{
  "_format": "hh-sol-artifact-1",
  "contractName": "Market",
  "sourceName": "contracts/Market.sol",
  "abi": [
    {
      "inputs": [
        {
          "internalType": "address",
          "name": "feeAddress_",
          "type": "address"
        }
      ],
      "stateMutability": "nonpayable",
      "type": "constructor"
    },
    {
      "anonymous": false,
      "inputs": [
        {
          "indexed": false,
          "internalType": "address",
          "name": "user",
          "type": "address"
        },
        {
          "indexed": false,
          "internalType": "uint256",
          "name": "price",
          "type": "uint256"
        },
        {
          "indexed": false,
          "internalType": "uint256",
          "name": "id",
          "type": "uint256"
        }
      ],
      "name": "AuctionResult",
      "type": "event"
    },
    {
      "anonymous": false,
      "inputs": [
        {
          "indexed": true,
          "internalType": "uint256",
          "name": "id",
          "type": "uint256"
        },
        {
          "indexed": true,
          "internalType": "address",
          "name": "user",
          "type": "address"
        },
        {
          "indexed": false,
          "internalType": "uint256",
          "name": "price",
          "type": "uint256"
        }
      ],
      "name": "EvAcceptOffer",
      "type": "event"
    },
    {
      "anonymous": false,
      "inputs": [
        {
          "indexed": true,
          "internalType": "uint256",
          "name": "id",
          "type": "uint256"
        }
      ],
      "name": "EvCancelOffer",
      "type": "event"
    },
    {
      "anonymous": false,
      "inputs": [
        {
          "indexed": false,
          "internalType": "contract IERC721",
          "name": "nft",
          "type": "address"
        },
        {
          "indexed": false,
          "internalType": "bool",
          "name": "blacklisted",
          "type": "bool"
        }
      ],
      "name": "EvNFTBlacklistUpdate",
      "type": "event"
    },
    {
      "anonymous": false,
      "inputs": [
        {
          "indexed": true,
          "internalType": "address",
          "name": "user",
          "type": "address"
        },
        {
          "indexed": true,
          "internalType": "contract IERC721",
          "name": "nft",
          "type": "address"
        },
        {
          "indexed": true,
          "internalType": "uint256",
          "name": "tokenId",
          "type": "uint256"
        },
        {
          "indexed": false,
          "internalType": "uint8",
          "name": "method",
          "type": "uint8"
        },
        {
          "indexed": false,
          "internalType": "uint256",
          "name": "price",
          "type": "uint256"
        },
        {
          "indexed": false,
          "internalType": "uint256",
          "name": "startTime",
          "type": "uint256"
        },
        {
          "indexed": false,
          "internalType": "uint256",
          "name": "endTime",
          "type": "uint256"
        },
        {
          "indexed": false,
          "internalType": "uint8",
          "name": "status",
          "type": "uint8"
        },
        {
          "indexed": false,
          "internalType": "uint256",
          "name": "id",
          "type": "uint256"
        }
      ],
      "name": "EvNewOffer",
      "type": "event"
    },
    {
      "anonymous": false,
      "inputs": [
        {
          "indexed": false,
          "internalType": "address",
          "name": "feeAddress",
          "type": "address"
        }
      ],
      "name": "EvSettingsUpdated",
      "type": "event"
    },
    {
      "anonymous": false,
      "inputs": [
        {
          "indexed": true,
          "internalType": "address",
          "name": "previousOwner",
          "type": "address"
        },
        {
          "indexed": true,
          "internalType": "address",
          "name": "newOwner",
          "type": "address"
        }
      ],
      "name": "OwnershipTransferred",
      "type": "event"
    },
    {
      "anonymous": false,
      "inputs": [
        {
          "indexed": false,
          "internalType": "address",
          "name": "account",
          "type": "address"
        }
      ],
      "name": "Paused",
      "type": "event"
    },
    {
      "anonymous": false,
      "inputs": [
        {
          "indexed": false,
          "internalType": "uint256",
          "name": "id",
          "type": "uint256"
        },
        {
          "indexed": false,
          "internalType": "address",
          "name": "user",
          "type": "address"
        },
        {
          "indexed": false,
          "internalType": "uint256",
          "name": "price",
          "type": "uint256"
        }
      ],
      "name": "PlaceBid",
      "type": "event"
    },
    {
      "anonymous": false,
      "inputs": [
        {
          "indexed": false,
          "internalType": "address",
          "name": "account",
          "type": "address"
        }
      ],
      "name": "Unpaused",
      "type": "event"
    },
    {
      "anonymous": false,
      "inputs": [
        {
          "indexed": false,
          "internalType": "address",
          "name": "deployer",
          "type": "address"
        }
      ],
      "name": "UpdateDeployer",
      "type": "event"
    },
    {
      "stateMutability": "payable",
      "type": "fallback"
    },
    {
      "inputs": [],
      "name": "STATUS_ACCEPTED",
      "outputs": [
        {
          "internalType": "uint8",
          "name": "",
          "type": "uint8"
        }
      ],
      "stateMutability": "view",
      "type": "function"
    },
    {
      "inputs": [],
      "name": "STATUS_CANCELLED",
      "outputs": [
        {
          "internalType": "uint8",
          "name": "",
          "type": "uint8"
        }
      ],
      "stateMutability": "view",
      "type": "function"
    },
    {
      "inputs": [],
      "name": "STATUS_OPEN",
      "outputs": [
        {
          "internalType": "uint8",
          "name": "",
          "type": "uint8"
        }
      ],
      "stateMutability": "view",
      "type": "function"
    },
    {
      "inputs": [
        {
          "internalType": "uint256",
          "name": "id",
          "type": "uint256"
        }
      ],
      "name": "acceptSell",
      "outputs": [],
      "stateMutability": "payable",
      "type": "function"
    },
    {
      "inputs": [
        {
          "internalType": "contract IERC721[]",
          "name": "nfts",
          "type": "address[]"
        }
      ],
      "name": "blacklistNFT",
      "outputs": [],
      "stateMutability": "nonpayable",
      "type": "function"
    },
    {
      "inputs": [
        {
          "internalType": "uint256",
          "name": "id",
          "type": "uint256"
        }
      ],
      "name": "cancelSell",
      "outputs": [],
      "stateMutability": "nonpayable",
      "type": "function"
    },
    {
      "inputs": [
        {
          "internalType": "string",
          "name": "_name",
          "type": "string"
        },
        {
          "internalType": "string",
          "name": "_symbol",
          "type": "string"
        },
        {
          "internalType": "string",
          "name": "_uri",
          "type": "string"
        }
      ],
      "name": "createCollection",
      "outputs": [],
      "stateMutability": "nonpayable",
      "type": "function"
    },
    {
      "inputs": [],
      "name": "feeAddress",
      "outputs": [
        {
          "internalType": "address",
          "name": "",
          "type": "address"
        }
      ],
      "stateMutability": "view",
      "type": "function"
    },
    {
      "inputs": [
        {
          "internalType": "uint256",
          "name": "id",
          "type": "uint256"
        }
      ],
      "name": "finalizeAuction",
      "outputs": [],
      "stateMutability": "nonpayable",
      "type": "function"
    },
    {
      "inputs": [
        {
          "internalType": "uint256",
          "name": "startIdx",
          "type": "uint256"
        },
        {
          "internalType": "uint256",
          "name": "count",
          "type": "uint256"
        }
      ],
      "name": "getBidOffersDump",
      "outputs": [
        {
          "components": [
            {
              "internalType": "uint256",
              "name": "offerId",
              "type": "uint256"
            },
            {
              "internalType": "uint256",
              "name": "tokenId",
              "type": "uint256"
            },
            {
              "internalType": "contract IERC721",
              "name": "nft",
              "type": "address"
            },
            {
              "internalType": "uint8",
              "name": "method",
              "type": "uint8"
            },
            {
              "internalType": "uint256",
              "name": "price",
              "type": "uint256"
            },
            {
              "internalType": "uint256",
              "name": "startTime",
              "type": "uint256"
            },
            {
              "internalType": "uint256",
              "name": "endTime",
              "type": "uint256"
            },
            {
              "internalType": "address",
              "name": "user",
              "type": "address"
            },
            {
              "internalType": "address",
              "name": "acceptUser",
              "type": "address"
            },
            {
              "internalType": "uint8",
              "name": "status",
              "type": "uint8"
            }
          ],
          "internalType": "struct Market.Offer[]",
          "name": "",
          "type": "tuple[]"
        }
      ],
      "stateMutability": "view",
      "type": "function"
    },
    {
      "inputs": [],
      "name": "getCollections",
      "outputs": [
        {
          "internalType": "address[]",
          "name": "",
          "type": "address[]"
        }
      ],
      "stateMutability": "view",
      "type": "function"
    },
    {
      "inputs": [],
      "name": "getOfferSize",
      "outputs": [
        {
          "internalType": "uint256",
          "name": "",
          "type": "uint256"
        }
      ],
      "stateMutability": "view",
      "type": "function"
    },
    {
      "inputs": [],
      "name": "getRecentCollection",
      "outputs": [
        {
          "internalType": "address",
          "name": "",
          "type": "address"
        }
      ],
      "stateMutability": "view",
      "type": "function"
    },
    {
      "inputs": [
        {
          "internalType": "address",
          "name": "collectionAddr",
          "type": "address"
        }
      ],
      "name": "getTokenId",
      "outputs": [
        {
          "internalType": "uint256",
          "name": "",
          "type": "uint256"
        }
      ],
      "stateMutability": "view",
      "type": "function"
    },
    {
      "inputs": [
        {
          "internalType": "uint256",
          "name": "id",
          "type": "uint256"
        }
      ],
      "name": "getTokenOwner",
      "outputs": [
        {
          "internalType": "address",
          "name": "",
          "type": "address"
        }
      ],
      "stateMutability": "view",
      "type": "function"
    },
    {
      "inputs": [
        {
          "internalType": "uint256",
          "name": "id",
          "type": "uint256"
        },
        {
          "internalType": "address",
          "name": "owner",
          "type": "address"
        }
      ],
      "name": "isTokenApproved",
      "outputs": [
        {
          "internalType": "bool",
          "name": "",
          "type": "bool"
        }
      ],
      "stateMutability": "view",
      "type": "function"
    },
    {
      "inputs": [
        {
          "internalType": "uint256",
          "name": "id",
          "type": "uint256"
        }
      ],
      "name": "isValidSell",
      "outputs": [
        {
          "internalType": "bool",
          "name": "",
          "type": "bool"
        }
      ],
      "stateMutability": "view",
      "type": "function"
    },
    {
      "inputs": [
        {
          "internalType": "address",
          "name": "collectionAddr",
          "type": "address"
        },
        {
          "internalType": "address",
          "name": "_to",
          "type": "address"
        },
        {
          "internalType": "string",
          "name": "uri",
          "type": "string"
        }
      ],
      "name": "mintTo",
      "outputs": [],
      "stateMutability": "nonpayable",
      "type": "function"
    },
    {
      "inputs": [
        {
          "internalType": "contract IERC721",
          "name": "",
          "type": "address"
        }
      ],
      "name": "nftBlacklist",
      "outputs": [
        {
          "internalType": "bool",
          "name": "",
          "type": "bool"
        }
      ],
      "stateMutability": "view",
      "type": "function"
    },
    {
      "inputs": [
        {
          "internalType": "contract IERC721",
          "name": "nft",
          "type": "address"
        },
        {
          "internalType": "uint256",
          "name": "tokenId",
          "type": "uint256"
        },
        {
          "internalType": "uint8",
          "name": "method",
          "type": "uint8"
        },
        {
          "internalType": "uint256",
          "name": "price",
          "type": "uint256"
        },
        {
          "internalType": "uint256",
          "name": "duration",
          "type": "uint256"
        }
      ],
      "name": "offerSell",
      "outputs": [],
      "stateMutability": "nonpayable",
      "type": "function"
    },
    {
      "inputs": [
        {
          "internalType": "uint256",
          "name": "",
          "type": "uint256"
        }
      ],
      "name": "offers",
      "outputs": [
        {
          "internalType": "uint256",
          "name": "offerId",
          "type": "uint256"
        },
        {
          "internalType": "uint256",
          "name": "tokenId",
          "type": "uint256"
        },
        {
          "internalType": "contract IERC721",
          "name": "nft",
          "type": "address"
        },
        {
          "internalType": "uint8",
          "name": "method",
          "type": "uint8"
        },
        {
          "internalType": "uint256",
          "name": "price",
          "type": "uint256"
        },
        {
          "internalType": "uint256",
          "name": "startTime",
          "type": "uint256"
        },
        {
          "internalType": "uint256",
          "name": "endTime",
          "type": "uint256"
        },
        {
          "internalType": "address",
          "name": "user",
          "type": "address"
        },
        {
          "internalType": "address",
          "name": "acceptUser",
          "type": "address"
        },
        {
          "internalType": "uint8",
          "name": "status",
          "type": "uint8"
        }
      ],
      "stateMutability": "view",
      "type": "function"
    },
    {
      "inputs": [],
      "name": "owner",
      "outputs": [
        {
          "internalType": "address",
          "name": "",
          "type": "address"
        }
      ],
      "stateMutability": "view",
      "type": "function"
    },
    {
      "inputs": [],
      "name": "pause",
      "outputs": [],
      "stateMutability": "nonpayable",
      "type": "function"
    },
    {
      "inputs": [],
      "name": "paused",
      "outputs": [
        {
          "internalType": "bool",
          "name": "",
          "type": "bool"
        }
      ],
      "stateMutability": "view",
      "type": "function"
    },
    {
      "inputs": [
        {
          "internalType": "uint256",
          "name": "id",
          "type": "uint256"
        }
      ],
      "name": "placeBid",
      "outputs": [],
      "stateMutability": "payable",
      "type": "function"
    },
    {
      "inputs": [],
      "name": "renounceOwnership",
      "outputs": [],
      "stateMutability": "nonpayable",
      "type": "function"
    },
    {
      "inputs": [
        {
          "internalType": "contract IERC721",
          "name": "",
          "type": "address"
        },
        {
          "internalType": "uint256",
          "name": "",
          "type": "uint256"
        }
      ],
      "name": "tokenSellOffers",
      "outputs": [
        {
          "internalType": "uint256",
          "name": "",
          "type": "uint256"
        }
      ],
      "stateMutability": "view",
      "type": "function"
    },
    {
      "inputs": [
        {
          "internalType": "address",
          "name": "_account",
          "type": "address"
        },
        {
          "internalType": "uint256",
          "name": "_amount",
          "type": "uint256"
        }
      ],
      "name": "transferMoney",
      "outputs": [],
      "stateMutability": "nonpayable",
      "type": "function"
    },
    {
      "inputs": [
        {
          "internalType": "address",
          "name": "newOwner",
          "type": "address"
        }
      ],
      "name": "transferOwnership",
      "outputs": [],
      "stateMutability": "nonpayable",
      "type": "function"
    },
    {
      "inputs": [
        {
          "internalType": "contract IERC721[]",
          "name": "nfts",
          "type": "address[]"
        }
      ],
      "name": "unblacklistNFT",
      "outputs": [],
      "stateMutability": "nonpayable",
      "type": "function"
    },
    {
      "inputs": [],
      "name": "unpause",
      "outputs": [],
      "stateMutability": "nonpayable",
      "type": "function"
    },
    {
      "inputs": [
        {
          "internalType": "address",
          "name": "_deployer",
          "type": "address"
        }
      ],
      "name": "updateDeployer",
      "outputs": [],
      "stateMutability": "nonpayable",
      "type": "function"
    },
    {
      "inputs": [
        {
          "internalType": "address",
          "name": "feeAddress_",
          "type": "address"
        }
      ],
      "name": "updateSettings",
      "outputs": [],
      "stateMutability": "nonpayable",
      "type": "function"
    },
    {
      "stateMutability": "payable",
      "type": "receive"
    }
  ],
  "bytecode": "0x60806040523480156200001157600080fd5b5060405162003b8938038062003b898339810160408190526200003491620002ad565b60016000556200004d6200004762000257565b6200025b565b6001805460ff60a01b199081168255600280546001600160a01b039485166001600160a01b03199182161782556040805161014081018252600080825260208201818152928201818152606083018281526080840183815260a0850184815260c0860185815260e08701868152610100880187815261012089019b8c52600380549e8f01815590975296516008909c027fc2575a0e9e593c00f959f8c92f12db2869c3395a3b0502d05e2516446f71f85b81019c909c5596517fc2575a0e9e593c00f959f8c92f12db2869c3395a3b0502d05e2516446f71f85c8c015592517fc2575a0e9e593c00f959f8c92f12db2869c3395a3b0502d05e2516446f71f85d8b018054935160ff908116600160a01b908102938f16958b16959095178c1692909217905590517fc2575a0e9e593c00f959f8c92f12db2869c3395a3b0502d05e2516446f71f85e8b015591517fc2575a0e9e593c00f959f8c92f12db2869c3395a3b0502d05e2516446f71f85f8a015593517fc2575a0e9e593c00f959f8c92f12db2869c3395a3b0502d05e2516446f71f86089015591517fc2575a0e9e593c00f959f8c92f12db2869c3395a3b0502d05e2516446f71f86188018054918a16918616919091179055517fc2575a0e9e593c00f959f8c92f12db2869c3395a3b0502d05e2516446f71f862909601805494519091169091029490951691161716179055620002dd565b3390565b600180546001600160a01b038381166001600160a01b0319831681179093556040519116919082907f8be0079c531659141344cd1fd0a4f28419497f9722a3daafe3b4186f6b6457e090600090a35050565b600060208284031215620002bf578081fd5b81516001600160a01b0381168114620002d6578182fd5b9392505050565b61389c80620002ed6000396000f3fe6080604052600436106101f25760003560e01c806389e25a651161010d578063bd51d725116100a0578063ee6ca1931161006f578063ee6ca19314610557578063f15376861461056a578063f2fde38b1461058a578063f5744b06146105aa578063fee666ad146105ca576101f9565b8063bd51d725146104e2578063cef56f1114610502578063e808386314610517578063ece86c2114610537576101f9565b8063a5cd761f116100dc578063a5cd761f14610460578063aa25221414610480578063b2eaf7d7146104a0578063b64c7e1e146104b5576101f9565b806389e25a65146103e25780638a72ea6a146104025780638da5cb5b146104385780639979ef451461044d576101f9565b80635403d88a11610185578063715018a611610154578063715018a6146103835780637440e06d1461039857806376451ae2146103ad5780638456cb59146103cd576101f9565b80635403d88a146102ff5780635a4e5a151461032c5780635c975abb146103415780636d69575b14610363576101f9565b80633f4ba83a116101c15780633f4ba83a14610286578063412753581461029b57806346e63586146102bd5780634d413e7d146102df576101f9565b806307c9cd45146101fb5780630ffe6fbe1461021b578063212ce7e81461023b57806324f8515b1461025b576101f9565b366101f957005b005b34801561020757600080fd5b506101f9610216366004612fdd565b6105ea565b34801561022757600080fd5b506101f9610236366004612df3565b6107bd565b34801561024757600080fd5b506101f9610256366004612e7e565b610889565b34801561026757600080fd5b506102706109bb565b60405161027d9190613759565b60405180910390f35b34801561029257600080fd5b506101f96109c0565b3480156102a757600080fd5b506102b0610a09565b60405161027d91906130bf565b3480156102c957600080fd5b506102d2610a18565b60405161027d9190613156565b3480156102eb57600080fd5b506101f96102fa366004612db4565b610a7a565b34801561030b57600080fd5b5061031f61031a366004612e53565b610b15565b60405161027d91906136d9565b34801561033857600080fd5b50610270610b32565b34801561034d57600080fd5b50610356610b37565b60405161027d9190613279565b34801561036f57600080fd5b5061035661037e366004612db4565b610b47565b34801561038f57600080fd5b506101f9610b5c565b3480156103a457600080fd5b506102b0610ba5565b3480156103b957600080fd5b506101f96103c8366004612f0d565b610c0f565b3480156103d957600080fd5b506101f96111aa565b3480156103ee57600080fd5b506103566103fd366004612fdd565b6111f1565b34801561040e57600080fd5b5061042261041d366004612fdd565b611315565b60405161027d9a99989796959493929190613701565b34801561044457600080fd5b506102b061138e565b6101f961045b366004612fdd565b61139d565b34801561046c57600080fd5b506102b061047b366004612fdd565b611663565b34801561048c57600080fd5b506101f961049b366004612e7e565b61171f565b3480156104ac57600080fd5b5061031f611843565b3480156104c157600080fd5b506104d56104d036600461303c565b611849565b60405161027d91906131a3565b3480156104ee57600080fd5b506101f96104fd366004612db4565b611af0565b34801561050e57600080fd5b50610270611b80565b34801561052357600080fd5b506101f9610532366004612fdd565b611b85565b34801561054357600080fd5b506101f9610552366004612f63565b612057565b6101f9610565366004612fdd565b6121c7565b34801561057657600080fd5b5061031f610585366004612db4565b6124e9565b34801561059657600080fd5b506101f96105a5366004612db4565b6125a1565b3480156105b657600080fd5b506103566105c536600461300d565b612612565b3480156105d657600080fd5b506101f96105e5366004612e53565b61276c565b600260005414156106165760405162461bcd60e51b815260040161060d906136a2565b60405180910390fd5b600260005580801580159061062c575060035481105b6106485760405162461bcd60e51b815260040161060d906135e4565b81600060ff166003828154811061066f57634e487b7160e01b600052603260045260246000fd5b6000918252602090912060089091020160070154600160a01b900460ff16146106aa5760405162461bcd60e51b815260040161060d90613320565b82336001600160a01b0316600382815481106106d657634e487b7160e01b600052603260045260246000fd5b60009182526020909120600660089092020101546001600160a01b0316146107105760405162461bcd60e51b815260040161060d90613640565b610718610b37565b156107355760405162461bcd60e51b815260040161060d90613518565b60006003858154811061075857634e487b7160e01b600052603260045260246000fd5b6000918252602082206008919091020160078101805460ff60a01b1916600160a11b17905560405190925086917f6207df80804540a4b62858818b8b76add067070ecbb89cce5cf34d457e9e80a291a26107b1816127e1565b50506001600055505050565b6107c5612811565b6001600160a01b03166107d661138e565b6001600160a01b0316146107fc5760405162461bcd60e51b815260040161060d90613587565b6001600160a01b03831660009081526008602052604090205460ff16151560011461082657600080fd5b6040516275a31760e01b81526001600160a01b038416906275a317906108529085908590600401613111565b600060405180830381600087803b15801561086c57600080fd5b505af1158015610880573d6000803e3d6000fd5b50505050505050565b610891612811565b6001600160a01b03166108a261138e565b6001600160a01b0316146108c85760405162461bcd60e51b815260040161060d90613587565b60005b818110156109b6576001600660008585858181106108f957634e487b7160e01b600052603260045260246000fd5b905060200201602081019061090e9190612db4565b6001600160a01b031681526020810191909152604001600020805460ff19169115159190911790557fc61e61c454d829d6739bfab76153ad5af101aab7439205403ae5e3dfac8eaff483838381811061097757634e487b7160e01b600052603260045260246000fd5b905060200201602081019061098c9190612db4565b600160405161099c929190613284565b60405180910390a1806109ae8161380a565b9150506108cb565b505050565b600081565b6109c8612811565b6001600160a01b03166109d961138e565b6001600160a01b0316146109ff5760405162461bcd60e51b815260040161060d90613587565b610a07612815565b565b6002546001600160a01b031681565b60606009805480602002602001604051908101604052809291908181526020018280548015610a7057602002820191906000526020600020905b81546001600160a01b03168152600190910190602001808311610a52575b5050505050905090565b610a82612811565b6001600160a01b0316610a9361138e565b6001600160a01b031614610ab95760405162461bcd60e51b815260040161060d90613587565b600780546001600160a01b0319166001600160a01b0383811691909117918290556040517f6df9022798e7bf61e11f2bbe94bd0ea9cf976ddd169169711c61de21c0767c0b92610b0a9216906130bf565b60405180910390a150565b600460209081526000928352604080842090915290825290205481565b600281565b600154600160a01b900460ff1690565b60066020526000908152604090205460ff1681565b610b64612811565b6001600160a01b0316610b7561138e565b6001600160a01b031614610b9b5760405162461bcd60e51b815260040161060d90613587565b610a076000612886565b600954600090610bc75760405162461bcd60e51b815260040161060d906135bc565b60098054610bd7906001906137f3565b81548110610bf557634e487b7160e01b600052603260045260246000fd5b6000918252602090912001546001600160a01b0316905090565b60026000541415610c325760405162461bcd60e51b815260040161060d906136a2565b6002600055610c3f610b37565b15610c5c5760405162461bcd60e51b815260040161060d90613518565b6001600160a01b038516600090815260066020526040902054859060ff1615610c975760405162461bcd60e51b815260040161060d906133f4565b60008060ff8616610ea3575050604080516101408101825260038054808352602083018981526001600160a01b03808c16958501958652600060608601818152608087018b815260a0880183815260c089018481523360e08b019081526101008b018681526101208c0187815260018b018c559a87529a5160089099027fc2575a0e9e593c00f959f8c92f12db2869c3395a3b0502d05e2516446f71f85b81019990995596517fc2575a0e9e593c00f959f8c92f12db2869c3395a3b0502d05e2516446f71f85c89015599517fc2575a0e9e593c00f959f8c92f12db2869c3395a3b0502d05e2516446f71f85d88018054945160ff908116600160a01b90810260ff60a01b19948a166001600160a01b03199889161785161790925593517fc2575a0e9e593c00f959f8c92f12db2869c3395a3b0502d05e2516446f71f85e8a015591517fc2575a0e9e593c00f959f8c92f12db2869c3395a3b0502d05e2516446f71f85f89015599517fc2575a0e9e593c00f959f8c92f12db2869c3395a3b0502d05e2516446f71f86088015594517fc2575a0e9e593c00f959f8c92f12db2869c3395a3b0502d05e2516446f71f8618701805491861691841691909117905596517fc2575a0e9e593c00f959f8c92f12db2869c3395a3b0502d05e2516446f71f86290950180549651909716909302939091169390911692909217909316929092179055806110a9565b429150610eb0848361379c565b604080516101408101825260038054808352602083018c81526001600160a01b03808f16958501958652600160608601818152608087018e815260a088018c815260c089018b81523360e08b0190815260006101008c018181526101208d01828152978b018c559a9052995160089098027fc2575a0e9e593c00f959f8c92f12db2869c3395a3b0502d05e2516446f71f85b81019890985595517fc2575a0e9e593c00f959f8c92f12db2869c3395a3b0502d05e2516446f71f85c88015598517fc2575a0e9e593c00f959f8c92f12db2869c3395a3b0502d05e2516446f71f85d87018054935160ff908116600160a01b90810260ff60a01b199489166001600160a01b03199788161785161790925592517fc2575a0e9e593c00f959f8c92f12db2869c3395a3b0502d05e2516446f71f85e89015599517fc2575a0e9e593c00f959f8c92f12db2869c3395a3b0502d05e2516446f71f85f88015594517fc2575a0e9e593c00f959f8c92f12db2869c3395a3b0502d05e2516446f71f86087015596517fc2575a0e9e593c00f959f8c92f12db2869c3395a3b0502d05e2516446f71f8618601805491851691831691909117905594517fc2575a0e9e593c00f959f8c92f12db2869c3395a3b0502d05e2516446f71f86290940180549151909616909602921694909216939093171691909117905590505b6003546000906110bb906001906137f3565b905087896001600160a01b0316336001600160a01b03167f6e05acbb984c50b6749a20f11037656445c275885b76c3f71c9a58b48d4cdaa08a8a888860008960405161110c96959493929190613767565b60405180910390a43361111e82611663565b6001600160a01b0316146111445760405162461bcd60e51b815260040161060d9061334e565b61114e8133612612565b61116a5760405162461bcd60e51b815260040161060d9061341e565b61117489896128d8565b6001600160a01b039098166000908152600460209081526040808320998352989052968720979097555050600190935550505050565b6111b2612811565b6001600160a01b03166111c361138e565b6001600160a01b0316146111e95760405162461bcd60e51b815260040161060d90613587565b610a076129ab565b600354600090821061120557506000611310565b60006003838154811061122857634e487b7160e01b600052603260045260246000fd5b60009182526020909120600760089092020190810154909150600160a01b900460ff1615801561126c5750600681015461126c9084906001600160a01b0316612612565b801561130c57506006810154600282015460018301546040516331a9108f60e11b81526001600160a01b039384169390921691636352211e916112b1916004016136d9565b60206040518083038186803b1580156112c957600080fd5b505afa1580156112dd573d6000803e3d6000fd5b505050506040513d601f19601f820116820180604052508101906113019190612dd7565b6001600160a01b0316145b9150505b919050565b6003818154811061132557600080fd5b60009182526020909120600890910201805460018201546002830154600384015460048501546005860154600687015460079097015495975093956001600160a01b038085169660ff600160a01b9687900481169795969495949383169392821692909104168a565b6001546001600160a01b031690565b600260005414156113c05760405162461bcd60e51b815260040161060d906136a2565b60026000558080158015906113d6575060035481105b6113f25760405162461bcd60e51b815260040161060d906135e4565b81600060ff166003828154811061141957634e487b7160e01b600052603260045260246000fd5b6000918252602090912060089091020160070154600160a01b900460ff16146114545760405162461bcd60e51b815260040161060d90613320565b8260006003828154811061147857634e487b7160e01b600052603260045260246000fd5b600091825260208083206002600890930201918201546001600160a01b031683526006905260409091205490915060ff16156114c65760405162461bcd60e51b815260040161060d906133f4565b6114ce610b37565b156114eb5760405162461bcd60e51b815260040161060d90613518565b60006003868154811061150e57634e487b7160e01b600052603260045260246000fd5b6000918252602090912060089091020160068101549091506001600160a01b031661153887611663565b6001600160a01b03161461155e5760405162461bcd60e51b815260040161060d90613542565b60068101546115779087906001600160a01b0316612612565b6115935760405162461bcd60e51b815260040161060d9061341e565b80600301543410156115b75760405162461bcd60e51b815260040161060d906133cb565b6000868152600560209081526040808320815180830183523380825234828601818152845460018082018755868a5297909820845160029099020180546001600160a01b0319166001600160a01b039099169890981788555196909501959095559151909391927f842d2ac3c24f62f502b949d8099647c7c74cc52d7897769455905a6aecc27c769261164c928c92906136e2565b60405180910390a150506001600055505050505050565b6000806003838154811061168757634e487b7160e01b600052603260045260246000fd5b60009182526020909120600890910201600281015460018201546040516331a9108f60e11b81529293506001600160a01b0390911691636352211e916116cf916004016136d9565b60206040518083038186803b1580156116e757600080fd5b505afa1580156116fb573d6000803e3d6000fd5b505050506040513d601f19601f8201168201806040525081019061130c9190612dd7565b611727612811565b6001600160a01b031661173861138e565b6001600160a01b03161461175e5760405162461bcd60e51b815260040161060d90613587565b60005b818110156109b6576006600084848481811061178d57634e487b7160e01b600052603260045260246000fd5b90506020020160208101906117a29190612db4565b6001600160a01b031681526020810191909152604001600020805460ff191690557fc61e61c454d829d6739bfab76153ad5af101aab7439205403ae5e3dfac8eaff483838381811061180457634e487b7160e01b600052603260045260246000fd5b90506020020160208101906118199190612db4565b6000604051611829929190613284565b60405180910390a18061183b8161380a565b915050611761565b60035490565b6060600080611858848661379c565b905060008592505b818310156118f8576003548310611876576118f8565b6003838154811061189757634e487b7160e01b600052603260045260246000fd5b906000526020600020906008020160020160149054906101000a900460ff1660ff1660011415806118ce57506118cc836111f1565b155b156118d8576118e6565b806118e28161380a565b9150505b826118f08161380a565b935050611860565b60008167ffffffffffffffff81111561192157634e487b7160e01b600052604160045260246000fd5b60405190808252806020026020018201604052801561195a57816020015b611947612cbf565b81526020019060019003908161193f5790505b50905060008794505b83851015611ae557600354851061197957611ae5565b6003858154811061199a57634e487b7160e01b600052603260045260246000fd5b906000526020600020906008020160020160149054906101000a900460ff1660ff1660011415806119d157506119cf856111f1565b155b156119db57611ad3565b600385815481106119fc57634e487b7160e01b600052603260045260246000fd5b6000918252602091829020604080516101408101825260089093029091018054835260018101549383019390935260028301546001600160a01b038082169284019290925260ff600160a01b918290048116606085015260038501546080850152600485015460a0850152600585015460c08501526006850154831660e085015260079094015491821661010084015290049091166101208201528251839083908110611ab957634e487b7160e01b600052603260045260246000fd5b60200260200101819052508080611acf9061380a565b9150505b84611add8161380a565b955050611963565b509695505050505050565b611af8612811565b6001600160a01b0316611b0961138e565b6001600160a01b031614611b2f5760405162461bcd60e51b815260040161060d90613587565b600280546001600160a01b0319166001600160a01b0383811691909117918290556040517ffc6ff37c6557c4e2cc73bdb3ea0a0f34884527e080ec6d9969cc813cff2a95c192610b0a9216906130bf565b600181565b60026000541415611ba85760405162461bcd60e51b815260040161060d906136a2565b6002600055808015801590611bbe575060035481105b611bda5760405162461bcd60e51b815260040161060d906135e4565b81600060ff1660038281548110611c0157634e487b7160e01b600052603260045260246000fd5b6000918252602090912060089091020160070154600160a01b900460ff1614611c3c5760405162461bcd60e51b815260040161060d90613320565b82600060038281548110611c6057634e487b7160e01b600052603260045260246000fd5b600091825260208083206002600890930201918201546001600160a01b031683526006905260409091205490915060ff1615611cae5760405162461bcd60e51b815260040161060d906133f4565b611cb6610b37565b15611cd35760405162461bcd60e51b815260040161060d90613518565b611cdb612811565b6001600160a01b0316611cec61138e565b6001600160a01b031614611d125760405162461bcd60e51b815260040161060d90613587565b600060038681548110611d3557634e487b7160e01b600052603260045260246000fd5b6000918252602090912060089091020160068101549091506001600160a01b0316611d5f87611663565b6001600160a01b031614611d855760405162461bcd60e51b815260040161060d90613542565b6006810154611d9e9087906001600160a01b0316612612565b611dba5760405162461bcd60e51b815260040161060d9061341e565b4281600401541115611dde5760405162461bcd60e51b815260040161060d90613612565b6002810154600160a01b900460ff16600114611e0c5760405162461bcd60e51b815260040161060d906134aa565b60008681526005602052604090208054156120495760008082600081548110611e4557634e487b7160e01b600052603260045260246000fd5b906000526020600020906002020160010154905060008092505b8354831015611ee3576000848481548110611e8a57634e487b7160e01b600052603260045260246000fd5b60009182526020918290206040805180820190915260029092020180546001600160a01b03168252600101549181018290529150831015611ed057806020015192508391505b5082611edb8161380a565b935050611e5f565b611eed8a82612a0c565b60078501805460ff60a01b1916600160a01b1790558354849082908110611f2457634e487b7160e01b600052603260045260246000fd5b60009182526020909120600290910201546007860180546001600160a01b0319166001600160a01b039092169190911790558354849082908110611f7857634e487b7160e01b600052603260045260246000fd5b90600052602060002090600202016001015485600301819055507f751b8eaa5ab4378445b4a8182513b04c4fde3f043584024e59bd93075f248998848281548110611fd357634e487b7160e01b600052603260045260246000fd5b600091825260209091206002909102015485546001600160a01b039091169086908490811061201257634e487b7160e01b600052603260045260246000fd5b9060005260206000209060020201600101548c60405161203493929190613135565b60405180910390a1612045856127e1565b5050505b505060016000555050505050565b60075460405163081cab4d60e11b81526000916001600160a01b031690631039569a9061208e90879087908790309060040161329f565b602060405180830381600087803b1580156120a857600080fd5b505af11580156120bc573d6000803e3d6000fd5b505050506040513d601f19601f820116820180604052508101906120e09190612dd7565b6001600160a01b03811660009081526008602052604090205490915060ff161561210957600080fd5b6009805460018082019092557f6e1540171b6c0c960b71a7020d9f60077f6af931a8bbf590da0223dacf75c7af0180546001600160a01b0319166001600160a01b03841690811790915560008181526008602052604090819020805460ff1916909317909255905163f2fde38b60e01b815263f2fde38b9061218f9033906004016130bf565b600060405180830381600087803b1580156121a957600080fd5b505af11580156121bd573d6000803e3d6000fd5b5050505050505050565b600260005414156121ea5760405162461bcd60e51b815260040161060d906136a2565b6002600055808015801590612200575060035481105b61221c5760405162461bcd60e51b815260040161060d906135e4565b81600060ff166003828154811061224357634e487b7160e01b600052603260045260246000fd5b6000918252602090912060089091020160070154600160a01b900460ff161461227e5760405162461bcd60e51b815260040161060d90613320565b826000600382815481106122a257634e487b7160e01b600052603260045260246000fd5b600091825260208083206002600890930201918201546001600160a01b031683526006905260409091205490915060ff16156122f05760405162461bcd60e51b815260040161060d906133f4565b6122f8610b37565b156123155760405162461bcd60e51b815260040161060d90613518565b60006003868154811061233857634e487b7160e01b600052603260045260246000fd5b6000918252602090912060089091020160068101549091506001600160a01b031661236287611663565b6001600160a01b0316146123885760405162461bcd60e51b815260040161060d90613542565b60068101546123a19087906001600160a01b0316612612565b6123bd5760405162461bcd60e51b815260040161060d9061341e565b80600301543410156123e15760405162461bcd60e51b815260040161060d906133cb565b600281015460068201546001830154604051632142170760e11b81526001600160a01b03938416936342842e0e93612421939116913391906004016130ed565b600060405180830381600087803b15801561243b57600080fd5b505af115801561244f573d6000803e3d6000fd5b505050600682015461246c915034906001600160a01b0316612b9c565b6007810180546001600160a01b031960ff60a01b19909116600160a01b171633908117909155346003830181905560405188917f1c74128ae19b4a888c096a2e6bdf487ef12431a53f86731e5cac4eb9e7a1f0c3916124cb91906136d9565b60405180910390a36124dc816127e1565b5050600160005550505050565b60006124f3612811565b6001600160a01b031661250461138e565b6001600160a01b03161461252a5760405162461bcd60e51b815260040161060d90613587565b816001600160a01b031663010a38f56040518163ffffffff1660e01b815260040160206040518083038186803b15801561256357600080fd5b505afa158015612577573d6000803e3d6000fd5b505050506040513d601f19601f8201168201806040525081019061259b9190612ff5565b92915050565b6125a9612811565b6001600160a01b03166125ba61138e565b6001600160a01b0316146125e05760405162461bcd60e51b815260040161060d90613587565b6001600160a01b0381166126065760405162461bcd60e51b815260040161060d90613385565b61260f81612886565b50565b6000806003848154811061263657634e487b7160e01b600052603260045260246000fd5b600091825260209091206008909102016002810154600182015460405163020604bf60e21b815292935030926001600160a01b039092169163081812fc91612680916004016136d9565b60206040518083038186803b15801561269857600080fd5b505afa1580156126ac573d6000803e3d6000fd5b505050506040513d601f19601f820116820180604052508101906126d09190612dd7565b6001600160a01b031614806127645750600281015460405163e985e9c560e01b81526001600160a01b039091169063e985e9c59061271490869030906004016130d3565b60206040518083038186803b15801561272c57600080fd5b505afa158015612740573d6000803e3d6000fd5b505050506040513d601f19601f820116820180604052508101906127649190612eed565b949350505050565b612774612811565b6001600160a01b031661278561138e565b6001600160a01b0316146127ab5760405162461bcd60e51b815260040161060d90613587565b6040516001600160a01b0383169082156108fc029083906000818181858888f193505050501580156109b6573d6000803e3d6000fd5b60028101546001600160a01b03166000908152600460209081526040808320600190940154835292905290812055565b3390565b61281d610b37565b6128395760405162461bcd60e51b815260040161060d906132f2565b6001805460ff60a01b191690557f5db9ee0a495bf2e6ff9c91a7834c1ba4fdd244a5e8aa4e537bd38aeae4b073aa61286f612811565b60405161287c91906130bf565b60405180910390a1565b600180546001600160a01b038381166001600160a01b0319831681179093556040519116919082907f8be0079c531659141344cd1fd0a4f28419497f9722a3daafe3b4186f6b6457e090600090a35050565b6001600160a01b03821660009081526004602090815260408083208484529091529020548061290757506129a7565b60006003828154811061292a57634e487b7160e01b600052603260045260246000fd5b6000918252602080832060076008909302019182018054600160a11b60ff60a01b1990911617905560028201546001600160a01b03168352600481526040808420600184015485529091528083208390555190925083917f6207df80804540a4b62858818b8b76add067070ecbb89cce5cf34d457e9e80a291a250505b5050565b6129b3610b37565b156129d05760405162461bcd60e51b815260040161060d90613518565b6001805460ff60a01b1916600160a01b1790557f62e78cea01bee320cd4e420270b5ea74000d11b0c9f74754ebdbfc544b05a25861286f612811565b612a15826111f1565b612a315760405162461bcd60e51b815260040161060d90613677565b600060038381548110612a5457634e487b7160e01b600052603260045260246000fd5b600091825260208083208684526005909152604083206008909202019250905b8154811015612b95576000828281548110612a9f57634e487b7160e01b600052603260045260246000fd5b60009182526020918290206040805180820190915260029092020180546001600160a01b031682526001015491810191909152905081851415612b70576002840154600685015482516001870154604051632142170760e11b81526001600160a01b03948516946342842e0e94612b1d9491169290916004016130ed565b600060405180830381600087803b158015612b3757600080fd5b505af1158015612b4b573d6000803e3d6000fd5b50505060208201516006860154612b6b92506001600160a01b0316612b9c565b612b82565b612b8281600001518260200151612bdc565b5080612b8d8161380a565b915050612a74565b5050505050565b60006064612bab8460026137d4565b612bb591906137b4565b600254909150612bce906001600160a01b031682612c18565b6109b682612bdc83866137f3565b80156129a7576040516001600160a01b0383169082156108fc029083906000818181858888f193505050501580156109b6573d6000803e3d6000fd5b80156129a7576129a7828280471015612c435760405162461bcd60e51b815260040161060d906134e1565b6000826001600160a01b031682604051612c5c906130bc565b60006040518083038185875af1925050503d8060008114612c99576040519150601f19603f3d011682016040523d82523d6000602084013e612c9e565b606091505b50509050806109b65760405162461bcd60e51b815260040161060d9061344d565b604051806101400160405280600081526020016000815260200160006001600160a01b03168152602001600060ff16815260200160008152602001600081526020016000815260200160006001600160a01b0316815260200160006001600160a01b03168152602001600060ff1681525090565b600082601f830112612d43578081fd5b813567ffffffffffffffff80821115612d5e57612d5e61383b565b604051601f8301601f191681016020018281118282101715612d8257612d8261383b565b604052828152848301602001861015612d99578384fd5b82602086016020830137918201602001929092529392505050565b600060208284031215612dc5578081fd5b8135612dd081613851565b9392505050565b600060208284031215612de8578081fd5b8151612dd081613851565b600080600060608486031215612e07578182fd5b8335612e1281613851565b92506020840135612e2281613851565b9150604084013567ffffffffffffffff811115612e3d578182fd5b612e4986828701612d33565b9150509250925092565b60008060408385031215612e65578182fd5b8235612e7081613851565b946020939093013593505050565b60008060208385031215612e90578182fd5b823567ffffffffffffffff80821115612ea7578384fd5b818501915085601f830112612eba578384fd5b813581811115612ec8578485fd5b8660208083028501011115612edb578485fd5b60209290920196919550909350505050565b600060208284031215612efe578081fd5b81518015158114612dd0578182fd5b600080600080600060a08688031215612f24578081fd5b8535612f2f81613851565b945060208601359350604086013560ff81168114612f4b578182fd5b94979396509394606081013594506080013592915050565b600080600060608486031215612f77578283fd5b833567ffffffffffffffff80821115612f8e578485fd5b612f9a87838801612d33565b94506020860135915080821115612faf578384fd5b612fbb87838801612d33565b93506040860135915080821115612fd0578283fd5b50612e4986828701612d33565b600060208284031215612fee578081fd5b5035919050565b600060208284031215613006578081fd5b5051919050565b6000806040838503121561301f578182fd5b82359150602083013561303181613851565b809150509250929050565b6000806040838503121561304e578182fd5b50508035926020909101359150565b6001600160a01b03169052565b60008151808452815b8181101561308f57602081850181015186830182015201613073565b818111156130a05782602083870101525b50601f01601f19169290920160200192915050565b60ff169052565b90565b6001600160a01b0391909116815260200190565b6001600160a01b0392831681529116602082015260400190565b6001600160a01b039384168152919092166020820152604081019190915260600190565b6001600160a01b03831681526040602082018190526000906127649083018461306a565b6001600160a01b039390931683526020830191909152604082015260600190565b6020808252825182820181905260009190848201906040850190845b818110156131975783516001600160a01b031683529284019291840191600101613172565b50909695505050505050565b602080825282518282018190526000919060409081850190868401855b8281101561326c578151805185528681015187860152858101516131e68787018261305d565b506060808201516131f9828801826130b5565b50506080818101519086015260a0808201519086015260c0808201519086015260e08082015161322b8288018261305d565b5050610100808201516132408288018261305d565b50506101209081015190613256868201836130b5565b50506101409390930192908501906001016131c0565b5091979650505050505050565b901515815260200190565b6001600160a01b039290921682521515602082015260400190565b6000608082526132b2608083018761306a565b82810360208401526132c4818761306a565b905082810360408401526132d8818661306a565b91505060018060a01b038316606083015295945050505050565b60208082526014908201527314185d5cd8589b194e881b9bdd081c185d5cd95960621b604082015260600190565b60208082526014908201527337b33332b91039b437bab6321031329037b832b760611b604082015260600190565b6020808252601b908201527f73656e6465722073686f756c64206f776e2074686520746f6b656e0000000000604082015260600190565b60208082526026908201527f4f776e61626c653a206e6577206f776e657220697320746865207a65726f206160408201526564647265737360d01b606082015260800190565b6020808252600f908201526e73656e64206d6f7265206d6f6e657960881b604082015260600190565b60208082526010908201526f139195081a5b88189b1858dadb1a5cdd60821b604082015260600190565b6020808252601590820152741d1bdad95b881a5cc81b9bdd08185c1c1c9bdd9959605a1b604082015260600190565b6020808252603a908201527f416464726573733a20756e61626c6520746f2073656e642076616c75652c207260408201527f6563697069656e74206d61792068617665207265766572746564000000000000606082015260800190565b6020808252601e908201527f626964206e6f7420666f722074696d65642d61756374696f6e2073616c650000604082015260600190565b6020808252601d908201527f416464726573733a20696e73756666696369656e742062616c616e6365000000604082015260600190565b60208082526010908201526f14185d5cd8589b194e881c185d5cd95960821b604082015260600190565b60208082526025908201527f746f6b656e206e6f74206f776e6564206279207468652073656c6c657220616e604082015264796d6f726560d81b606082015260800190565b6020808252818101527f4f776e61626c653a2063616c6c6572206973206e6f7420746865206f776e6572604082015260600190565b6020808252600e908201526d4e6f20636f6c6c656374696f6e7360901b604082015260600190565b6020808252601490820152731bd999995c88191bd95cc81b9bdd08195e1a5cdd60621b604082015260600190565b6020808252601490820152731cd85b19481b9bdd081cdd185c9d1959081e595d60621b604082015260600190565b60208082526019908201527f63616c6c2073686f756c64206f776e20746865206f6666657200000000000000604082015260600190565b6020808252601190820152701cd85b19481a5cc81b9bdd081d985b1a59607a1b604082015260600190565b6020808252601f908201527f5265656e7472616e637947756172643a207265656e7472616e742063616c6c00604082015260600190565b90815260200190565b9283526001600160a01b03919091166020830152604082015260600190565b998a5260208a01989098526001600160a01b0396871660408a015260ff95861660608a0152608089019490945260a088019290925260c0870152831660e0860152909116610100840152166101208201526101400190565b60ff91909116815260200190565b60ff9687168152602081019590955260408501939093526060840191909152909216608082015260a081019190915260c00190565b600082198211156137af576137af613825565b500190565b6000826137cf57634e487b7160e01b81526012600452602481fd5b500490565b60008160001904831182151516156137ee576137ee613825565b500290565b60008282101561380557613805613825565b500390565b600060001982141561381e5761381e613825565b5060010190565b634e487b7160e01b600052601160045260246000fd5b634e487b7160e01b600052604160045260246000fd5b6001600160a01b038116811461260f57600080fdfea2646970667358221220f1910813f518846eec5ef1678c8cd8609ee96699a93c701df6e0c24cfef840dd64736f6c63430008000033",
  "linkReferences": {},
  "deployedLinkReferences": {}
}