{
  "_format": "hh-sol-artifact-1",
  "contractName": "NFT",
  "sourceName": "contracts/TestTokens.sol",
  "abi": [
    {
      "inputs": [
        {
          "internalType": "address",
          "name": "marketplaceAddress",
          "type": "address"
        }
      ],
      "stateMutability": "nonpayable",
      "type": "constructor"
    },
    {
      "anonymous": false,
      "inputs": [
        {
          "indexed": true,
          "internalType": "address",
          "name": "owner",
          "type": "address"
        },
        {
          "indexed": true,
          "internalType": "address",
          "name": "approved",
          "type": "address"
        },
        {
          "indexed": true,
          "internalType": "uint256",
          "name": "tokenId",
          "type": "uint256"
        }
      ],
      "name": "Approval",
      "type": "event"
    },
    {
      "anonymous": false,
      "inputs": [
        {
          "indexed": true,
          "internalType": "address",
          "name": "owner",
          "type": "address"
        },
        {
          "indexed": true,
          "internalType": "address",
          "name": "operator",
          "type": "address"
        },
        {
          "indexed": false,
          "internalType": "bool",
          "name": "approved",
          "type": "bool"
        }
      ],
      "name": "ApprovalForAll",
      "type": "event"
    },
    {
      "anonymous": false,
      "inputs": [
        {
          "indexed": true,
          "internalType": "address",
          "name": "from",
          "type": "address"
        },
        {
          "indexed": true,
          "internalType": "address",
          "name": "to",
          "type": "address"
        },
        {
          "indexed": true,
          "internalType": "uint256",
          "name": "tokenId",
          "type": "uint256"
        }
      ],
      "name": "Transfer",
      "type": "event"
    },
    {
      "inputs": [
        {
          "internalType": "address",
          "name": "to",
          "type": "address"
        },
        {
          "internalType": "uint256",
          "name": "tokenId",
          "type": "uint256"
        }
      ],
      "name": "approve",
      "outputs": [],
      "stateMutability": "nonpayable",
      "type": "function"
    },
    {
      "inputs": [
        {
          "internalType": "address",
          "name": "owner",
          "type": "address"
        }
      ],
      "name": "balanceOf",
      "outputs": [
        {
          "internalType": "uint256",
          "name": "",
          "type": "uint256"
        }
      ],
      "stateMutability": "view",
      "type": "function"
    },
    {
      "inputs": [
        {
          "internalType": "string",
          "name": "tokenURI",
          "type": "string"
        }
      ],
      "name": "createToken",
      "outputs": [
        {
          "internalType": "uint256",
          "name": "",
          "type": "uint256"
        }
      ],
      "stateMutability": "nonpayable",
      "type": "function"
    },
    {
      "inputs": [
        {
          "internalType": "uint256",
          "name": "tokenId",
          "type": "uint256"
        }
      ],
      "name": "getApproved",
      "outputs": [
        {
          "internalType": "address",
          "name": "",
          "type": "address"
        }
      ],
      "stateMutability": "view",
      "type": "function"
    },
    {
      "inputs": [],
      "name": "getCurrentTokenId",
      "outputs": [
        {
          "internalType": "uint256",
          "name": "",
          "type": "uint256"
        }
      ],
      "stateMutability": "view",
      "type": "function"
    },
    {
      "inputs": [
        {
          "internalType": "address",
          "name": "owner",
          "type": "address"
        },
        {
          "internalType": "address",
          "name": "operator",
          "type": "address"
        }
      ],
      "name": "isApprovedForAll",
      "outputs": [
        {
          "internalType": "bool",
          "name": "",
          "type": "bool"
        }
      ],
      "stateMutability": "view",
      "type": "function"
    },
    {
      "inputs": [],
      "name": "name",
      "outputs": [
        {
          "internalType": "string",
          "name": "",
          "type": "string"
        }
      ],
      "stateMutability": "view",
      "type": "function"
    },
    {
      "inputs": [],
      "name": "owner",
      "outputs": [
        {
          "internalType": "address",
          "name": "",
          "type": "address"
        }
      ],
      "stateMutability": "view",
      "type": "function"
    },
    {
      "inputs": [
        {
          "internalType": "uint256",
          "name": "tokenId",
          "type": "uint256"
        }
      ],
      "name": "ownerOf",
      "outputs": [
        {
          "internalType": "address",
          "name": "",
          "type": "address"
        }
      ],
      "stateMutability": "view",
      "type": "function"
    },
    {
      "inputs": [
        {
          "internalType": "address",
          "name": "from",
          "type": "address"
        },
        {
          "internalType": "address",
          "name": "to",
          "type": "address"
        },
        {
          "internalType": "uint256",
          "name": "tokenId",
          "type": "uint256"
        }
      ],
      "name": "safeTransferFrom",
      "outputs": [],
      "stateMutability": "nonpayable",
      "type": "function"
    },
    {
      "inputs": [
        {
          "internalType": "address",
          "name": "from",
          "type": "address"
        },
        {
          "internalType": "address",
          "name": "to",
          "type": "address"
        },
        {
          "internalType": "uint256",
          "name": "tokenId",
          "type": "uint256"
        },
        {
          "internalType": "bytes",
          "name": "_data",
          "type": "bytes"
        }
      ],
      "name": "safeTransferFrom",
      "outputs": [],
      "stateMutability": "nonpayable",
      "type": "function"
    },
    {
      "inputs": [
        {
          "internalType": "address",
          "name": "operator",
          "type": "address"
        },
        {
          "internalType": "bool",
          "name": "approved",
          "type": "bool"
        }
      ],
      "name": "setApprovalForAll",
      "outputs": [],
      "stateMutability": "nonpayable",
      "type": "function"
    },
    {
      "inputs": [
        {
          "internalType": "address",
          "name": "marketplaceAddress",
          "type": "address"
        }
      ],
      "name": "setMarketplaceAddress",
      "outputs": [],
      "stateMutability": "nonpayable",
      "type": "function"
    },
    {
      "inputs": [
        {
          "internalType": "bytes4",
          "name": "interfaceId",
          "type": "bytes4"
        }
      ],
      "name": "supportsInterface",
      "outputs": [
        {
          "internalType": "bool",
          "name": "",
          "type": "bool"
        }
      ],
      "stateMutability": "view",
      "type": "function"
    },
    {
      "inputs": [],
      "name": "symbol",
      "outputs": [
        {
          "internalType": "string",
          "name": "",
          "type": "string"
        }
      ],
      "stateMutability": "view",
      "type": "function"
    },
    {
      "inputs": [
        {
          "internalType": "uint256",
          "name": "tokenId",
          "type": "uint256"
        }
      ],
      "name": "tokenURI",
      "outputs": [
        {
          "internalType": "string",
          "name": "",
          "type": "string"
        }
      ],
      "stateMutability": "view",
      "type": "function"
    },
    {
      "inputs": [
        {
          "internalType": "address",
          "name": "from",
          "type": "address"
        },
        {
          "internalType": "address",
          "name": "to",
          "type": "address"
        },
        {
          "internalType": "uint256",
          "name": "tokenId",
          "type": "uint256"
        }
      ],
      "name": "transferFrom",
      "outputs": [],
      "stateMutability": "nonpayable",
      "type": "function"
    }
  ],
  "bytecode": "0x60806040523480156200001157600080fd5b5060405162001a0b38038062001a0b833981016040819052620000349162000172565b604080518082018252600a81526954657374546f6b656e7360b01b602080830191825283518085019094526006845265109312d113d560d21b9084015281519192916200008491600091620000cc565b5080516200009a906001906020840190620000cc565b5050600880546001600160a01b039093166001600160a01b0319938416179055506009805490911633179055620001df565b828054620000da90620001a2565b90600052602060002090601f016020900481019282620000fe576000855562000149565b82601f106200011957805160ff191683800117855562000149565b8280016001018555821562000149579182015b82811115620001495782518255916020019190600101906200012c565b50620001579291506200015b565b5090565b5b808211156200015757600081556001016200015c565b60006020828403121562000184578081fd5b81516001600160a01b03811681146200019b578182fd5b9392505050565b600281046001821680620001b757607f821691505b60208210811415620001d957634e487b7160e01b600052602260045260246000fd5b50919050565b61181c80620001ef6000396000f3fe608060405234801561001057600080fd5b506004361061010b5760003560e01c80636352211e116100a2578063a22cb46511610071578063a22cb46514610207578063b47cc5561461021a578063b88d4fde1461022d578063c87b56dd14610240578063e985e9c5146102535761010b565b80636352211e146101d157806370a08231146101e45780638da5cb5b146101f757806395d89b41146101ff5761010b565b806323b872dd116100de57806323b872dd1461018357806342842e0e1461019657806345576f94146101a957806356189236146101c95761010b565b806301ffc9a71461011057806306fdde0314610139578063081812fc1461014e578063095ea7b31461016e575b600080fd5b61012361011e3660046110bf565b610266565b6040516101309190611201565b60405180910390f35b6101416102ae565b604051610130919061120c565b61016161015c36600461113d565b610340565b60405161013091906111b0565b61018161017c366004611096565b61038c565b005b610181610191366004610fa8565b610424565b6101816101a4366004610fa8565b61045c565b6101bc6101b73660046110f7565b610477565b60405161013091906116a9565b6101bc6104a5565b6101616101df36600461113d565b6104b6565b6101bc6101f2366004610f5c565b6104eb565b61016161052f565b61014161053e565b61018161021536600461105c565b61054d565b610181610228366004610f5c565b610563565b61018161023b366004610fe3565b610585565b61014161024e36600461113d565b6105c4565b610123610261366004610f76565b6106e5565b60006001600160e01b031982166380ac58cd60e01b148061029757506001600160e01b03198216635b5e139f60e01b145b806102a657506102a682610713565b90505b919050565b6060600080546102bd90611721565b80601f01602080910402602001604051908101604052809291908181526020018280546102e990611721565b80156103365780601f1061030b57610100808354040283529160200191610336565b820191906000526020600020905b81548152906001019060200180831161031957829003601f168201915b5050505050905090565b600061034b8261072c565b6103705760405162461bcd60e51b815260040161036790611533565b60405180910390fd5b506000908152600460205260409020546001600160a01b031690565b6000610397826104b6565b9050806001600160a01b0316836001600160a01b031614156103cb5760405162461bcd60e51b815260040161036790611617565b806001600160a01b03166103dd610749565b6001600160a01b031614806103f957506103f981610261610749565b6104155760405162461bcd60e51b81526004016103679061136f565b61041f838361074d565b505050565b61043561042f610749565b826107bb565b6104515760405162461bcd60e51b815260040161036790611658565b61041f838383610838565b61041f83838360405180602001604052806000815250610585565b60006104836007610965565b600061048f600761096e565b905061049b3382610972565b6102a68184610a51565b60006104b1600761096e565b905090565b6000818152600260205260408120546001600160a01b0316806102a65760405162461bcd60e51b815260040161036790611416565b60006001600160a01b0382166105135760405162461bcd60e51b8152600401610367906113cc565b506001600160a01b031660009081526003602052604090205490565b6009546001600160a01b031681565b6060600180546102bd90611721565b61055f610558610749565b8383610a95565b5050565b600880546001600160a01b0319166001600160a01b0392909216919091179055565b610596610590610749565b836107bb565b6105b25760405162461bcd60e51b815260040161036790611658565b6105be84848484610b38565b50505050565b60606105cf8261072c565b6105eb5760405162461bcd60e51b8152600401610367906114e2565b6000828152600660205260408120805461060490611721565b80601f016020809104026020016040519081016040528092919081815260200182805461063090611721565b801561067d5780601f106106525761010080835404028352916020019161067d565b820191906000526020600020905b81548152906001019060200180831161066057829003601f168201915b50505050509050600061068e610b6b565b90508051600014156106a2575090506102a9565b8151156106d45780826040516020016106bc929190611181565b604051602081830303815290604052925050506102a9565b6106dd84610b7d565b949350505050565b6001600160a01b03918216600090815260056020908152604080832093909416825291909152205460ff1690565b6001600160e01b031981166301ffc9a760e01b14919050565b6000908152600260205260409020546001600160a01b0316151590565b3390565b600081815260046020526040902080546001600160a01b0319166001600160a01b0384169081179091558190610782826104b6565b6001600160a01b03167f8c5be1e5ebec7d5bd14f71427d1e84f3dd0314c0f7b2291e5b200ac8c7c3b92560405160405180910390a45050565b60006107c68261072c565b6107e25760405162461bcd60e51b815260040161036790611323565b60006107ed836104b6565b9050806001600160a01b0316846001600160a01b031614806108285750836001600160a01b031661081d84610340565b6001600160a01b0316145b806106dd57506106dd81856106e5565b826001600160a01b031661084b826104b6565b6001600160a01b0316146108715760405162461bcd60e51b81526004016103679061157f565b6001600160a01b0382166108975760405162461bcd60e51b8152600401610367906112a8565b6108a283838361041f565b6108ad60008261074d565b6001600160a01b03831660009081526003602052604081208054600192906108d69084906116de565b90915550506001600160a01b03821660009081526003602052604081208054600192906109049084906116b2565b909155505060008181526002602052604080822080546001600160a01b0319166001600160a01b0386811691821790925591518493918716917fddf252ad1be2c89b69c2b068fc378daa952ba7f163c4a11628f55a4df523b3ef91a4505050565b80546001019055565b5490565b6001600160a01b0382166109985760405162461bcd60e51b8152600401610367906114ad565b6109a18161072c565b156109be5760405162461bcd60e51b815260040161036790611271565b6109ca6000838361041f565b6001600160a01b03821660009081526003602052604081208054600192906109f39084906116b2565b909155505060008181526002602052604080822080546001600160a01b0319166001600160a01b03861690811790915590518392907fddf252ad1be2c89b69c2b068fc378daa952ba7f163c4a11628f55a4df523b3ef908290a45050565b610a5a8261072c565b610a765760405162461bcd60e51b81526004016103679061145f565b6000828152600660209081526040909120825161041f92840190610e3c565b816001600160a01b0316836001600160a01b03161415610ac75760405162461bcd60e51b8152600401610367906112ec565b6001600160a01b0383811660008181526005602090815260408083209487168084529490915290819020805460ff1916851515179055517f17307eab39ab6107e8899845ad3d59bd9653f200f220920489ca2b5937696c3190610b2b908590611201565b60405180910390a3505050565b610b43848484610838565b610b4f84848484610c00565b6105be5760405162461bcd60e51b81526004016103679061121f565b60408051602081019091526000815290565b6060610b888261072c565b610ba45760405162461bcd60e51b8152600401610367906115c8565b6000610bae610b6b565b90506000815111610bce5760405180602001604052806000815250610bf9565b80610bd884610d1b565b604051602001610be9929190611181565b6040516020818303038152906040525b9392505050565b6000610c14846001600160a01b0316610e36565b15610d1057836001600160a01b031663150b7a02610c30610749565b8786866040518563ffffffff1660e01b8152600401610c5294939291906111c4565b602060405180830381600087803b158015610c6c57600080fd5b505af1925050508015610c9c575060408051601f3d908101601f19168201909252610c99918101906110db565b60015b610cf6573d808015610cca576040519150601f19603f3d011682016040523d82523d6000602084013e610ccf565b606091505b508051610cee5760405162461bcd60e51b81526004016103679061121f565b805181602001fd5b6001600160e01b031916630a85bd0160e11b1490506106dd565b506001949350505050565b606081610d4057506040805180820190915260018152600360fc1b60208201526102a9565b8160005b8115610d6a5780610d548161175c565b9150610d639050600a836116ca565b9150610d44565b60008167ffffffffffffffff811115610d9357634e487b7160e01b600052604160045260246000fd5b6040519080825280601f01601f191660200182016040528015610dbd576020820181803683370190505b5090505b84156106dd57610dd26001836116de565b9150610ddf600a86611777565b610dea9060306116b2565b60f81b818381518110610e0d57634e487b7160e01b600052603260045260246000fd5b60200101906001600160f81b031916908160001a905350610e2f600a866116ca565b9450610dc1565b3b151590565b828054610e4890611721565b90600052602060002090601f016020900481019282610e6a5760008555610eb0565b82601f10610e8357805160ff1916838001178555610eb0565b82800160010185558215610eb0579182015b82811115610eb0578251825591602001919060010190610e95565b50610ebc929150610ec0565b5090565b5b80821115610ebc5760008155600101610ec1565b600067ffffffffffffffff80841115610ef057610ef06117b7565b604051601f8501601f191681016020018281118282101715610f1457610f146117b7565b604052848152915081838501861015610f2c57600080fd5b8484602083013760006020868301015250509392505050565b80356001600160a01b03811681146102a957600080fd5b600060208284031215610f6d578081fd5b610bf982610f45565b60008060408385031215610f88578081fd5b610f9183610f45565b9150610f9f60208401610f45565b90509250929050565b600080600060608486031215610fbc578081fd5b610fc584610f45565b9250610fd360208501610f45565b9150604084013590509250925092565b60008060008060808587031215610ff8578081fd5b61100185610f45565b935061100f60208601610f45565b925060408501359150606085013567ffffffffffffffff811115611031578182fd5b8501601f81018713611041578182fd5b61105087823560208401610ed5565b91505092959194509250565b6000806040838503121561106e578182fd5b61107783610f45565b91506020830135801515811461108b578182fd5b809150509250929050565b600080604083850312156110a8578182fd5b6110b183610f45565b946020939093013593505050565b6000602082840312156110d0578081fd5b8135610bf9816117cd565b6000602082840312156110ec578081fd5b8151610bf9816117cd565b600060208284031215611108578081fd5b813567ffffffffffffffff81111561111e578182fd5b8201601f8101841361112e578182fd5b6106dd84823560208401610ed5565b60006020828403121561114e578081fd5b5035919050565b6000815180845261116d8160208601602086016116f5565b601f01601f19169290920160200192915050565b600083516111938184602088016116f5565b8351908301906111a78183602088016116f5565b01949350505050565b6001600160a01b0391909116815260200190565b6001600160a01b03858116825284166020820152604081018390526080606082018190526000906111f790830184611155565b9695505050505050565b901515815260200190565b600060208252610bf96020830184611155565b60208082526032908201527f4552433732313a207472616e7366657220746f206e6f6e20455243373231526560408201527131b2b4bb32b91034b6b83632b6b2b73a32b960711b606082015260800190565b6020808252601c908201527f4552433732313a20746f6b656e20616c7265616479206d696e74656400000000604082015260600190565b60208082526024908201527f4552433732313a207472616e7366657220746f20746865207a65726f206164646040820152637265737360e01b606082015260800190565b60208082526019908201527f4552433732313a20617070726f766520746f2063616c6c657200000000000000604082015260600190565b6020808252602c908201527f4552433732313a206f70657261746f7220717565727920666f72206e6f6e657860408201526b34b9ba32b73a103a37b5b2b760a11b606082015260800190565b60208082526038908201527f4552433732313a20617070726f76652063616c6c6572206973206e6f74206f7760408201527f6e6572206e6f7220617070726f76656420666f7220616c6c0000000000000000606082015260800190565b6020808252602a908201527f4552433732313a2062616c616e636520717565727920666f7220746865207a65604082015269726f206164647265737360b01b606082015260800190565b60208082526029908201527f4552433732313a206f776e657220717565727920666f72206e6f6e657869737460408201526832b73a103a37b5b2b760b91b606082015260800190565b6020808252602e908201527f45524337323155524953746f726167653a2055524920736574206f66206e6f6e60408201526d32bc34b9ba32b73a103a37b5b2b760911b606082015260800190565b6020808252818101527f4552433732313a206d696e7420746f20746865207a65726f2061646472657373604082015260600190565b60208082526031908201527f45524337323155524953746f726167653a2055524920717565727920666f72206040820152703737b732bc34b9ba32b73a103a37b5b2b760791b606082015260800190565b6020808252602c908201527f4552433732313a20617070726f76656420717565727920666f72206e6f6e657860408201526b34b9ba32b73a103a37b5b2b760a11b606082015260800190565b60208082526029908201527f4552433732313a207472616e73666572206f6620746f6b656e2074686174206960408201526839903737ba1037bbb760b91b606082015260800190565b6020808252602f908201527f4552433732314d657461646174613a2055524920717565727920666f72206e6f60408201526e3732bc34b9ba32b73a103a37b5b2b760891b606082015260800190565b60208082526021908201527f4552433732313a20617070726f76616c20746f2063757272656e74206f776e656040820152603960f91b606082015260800190565b60208082526031908201527f4552433732313a207472616e736665722063616c6c6572206973206e6f74206f6040820152701ddb995c881b9bdc88185c1c1c9bdd9959607a1b606082015260800190565b90815260200190565b600082198211156116c5576116c561178b565b500190565b6000826116d9576116d96117a1565b500490565b6000828210156116f0576116f061178b565b500390565b60005b838110156117105781810151838201526020016116f8565b838111156105be5750506000910152565b60028104600182168061173557607f821691505b6020821081141561175657634e487b7160e01b600052602260045260246000fd5b50919050565b60006000198214156117705761177061178b565b5060010190565b600082611786576117866117a1565b500690565b634e487b7160e01b600052601160045260246000fd5b634e487b7160e01b600052601260045260246000fd5b634e487b7160e01b600052604160045260246000fd5b6001600160e01b0319811681146117e357600080fd5b5056fea2646970667358221220c3bd0eb5c67f025cfe974ba9b2d22e5518733e264500a6e8a45ec8456d6fe17564736f6c63430008000033",
  "linkReferences": {},
  "deployedLinkReferences": {}
}