{
  "_format": "hh-sol-artifact-1",
  "contractName": "EIP712Base",
  "sourceName": "contracts/common/meta-transactions/EIP712Base.sol",
  "abi": [
    {
      "inputs": [],
      "name": "ERC712_VERSION",
      "outputs": [
        {
          "internalType": "string",
          "name": "",
          "type": "string"
        }
      ],
      "stateMutability": "view",
      "type": "function"
    },
    {
      "inputs": [],
      "name": "getChainId",
      "outputs": [
        {
          "internalType": "uint256",
          "name": "",
          "type": "uint256"
        }
      ],
      "stateMutability": "view",
      "type": "function"
    },
    {
      "inputs": [],
      "name": "getDomainSeperator",
      "outputs": [
        {
          "internalType": "bytes32",
          "name": "",
          "type": "bytes32"
        }
      ],
      "stateMutability": "view",
      "type": "function"
    }
  ],
  "bytecode": "0x60806040526000805460ff1916905534801561001a57600080fd5b506101288061002a6000396000f3fe6080604052348015600f57600080fd5b5060043610603c5760003560e01c80630f7e597014604157806320379ee514605b5780633408e47014606c575b600080fd5b60476072565b6040516052919060a2565b60405180910390f35b6061608f565b604051605291906099565b60616095565b604051806040016040528060018152602001603160f81b81525081565b60015490565b4690565b90815260200190565b6000602080835283518082850152825b8181101560cc5785810183015185820160400152820160b2565b8181111560dc5783604083870101525b50601f01601f191692909201604001939250505056fea264697066735822122095131626b5f0b8046a4673fd8e58d088ef8364124427162d8dcf613e8085946464736f6c63430008000033",
  "linkReferences": {},
  "deployedLinkReferences": {}
}