{
  "contracts/Market.sol": {
    "Market": {
      "abi": [
        {
          "inputs": [
            {
              "internalType": "address",
              "name": "feeAddress_",
              "type": "address"
            }
          ],
          "stateMutability": "nonpayable",
          "type": "constructor"
        },
        {
          "anonymous": false,
          "inputs": [
            {
              "indexed": false,
              "internalType": "address",
              "name": "user",
              "type": "address"
            },
            {
              "indexed": false,
              "internalType": "uint256",
              "name": "price",
              "type": "uint256"
            },
            {
              "indexed": false,
              "internalType": "uint256",
              "name": "id",
              "type": "uint256"
            }
          ],
          "name": "AuctionResult",
          "type": "event"
        },
        {
          "anonymous": false,
          "inputs": [
            {
              "indexed": true,
              "internalType": "uint256",
              "name": "id",
              "type": "uint256"
            },
            {
              "indexed": true,
              "internalType": "address",
              "name": "user",
              "type": "address"
            },
            {
              "indexed": false,
              "internalType": "uint256",
              "name": "price",
              "type": "uint256"
            }
          ],
          "name": "EvAcceptOffer",
          "type": "event"
        },
        {
          "anonymous": false,
          "inputs": [
            {
              "indexed": true,
              "internalType": "uint256",
              "name": "id",
              "type": "uint256"
            }
          ],
          "name": "EvCancelOffer",
          "type": "event"
        },
        {
          "anonymous": false,
          "inputs": [
            {
              "indexed": false,
              "internalType": "contract IERC721",
              "name": "nft",
              "type": "address"
            },
            {
              "indexed": false,
              "internalType": "bool",
              "name": "blacklisted",
              "type": "bool"
            }
          ],
          "name": "EvNFTBlacklistUpdate",
          "type": "event"
        },
        {
          "anonymous": false,
          "inputs": [
            {
              "indexed": true,
              "internalType": "address",
              "name": "user",
              "type": "address"
            },
            {
              "indexed": true,
              "internalType": "contract IERC721",
              "name": "nft",
              "type": "address"
            },
            {
              "indexed": true,
              "internalType": "uint256",
              "name": "tokenId",
              "type": "uint256"
            },
            {
              "indexed": false,
              "internalType": "uint8",
              "name": "method",
              "type": "uint8"
            },
            {
              "indexed": false,
              "internalType": "uint256",
              "name": "price",
              "type": "uint256"
            },
            {
              "indexed": false,
              "internalType": "uint256",
              "name": "startTime",
              "type": "uint256"
            },
            {
              "indexed": false,
              "internalType": "uint256",
              "name": "endTime",
              "type": "uint256"
            },
            {
              "indexed": false,
              "internalType": "uint8",
              "name": "status",
              "type": "uint8"
            },
            {
              "indexed": false,
              "internalType": "uint256",
              "name": "id",
              "type": "uint256"
            }
          ],
          "name": "EvNewOffer",
          "type": "event"
        },
        {
          "anonymous": false,
          "inputs": [
            {
              "indexed": false,
              "internalType": "address",
              "name": "feeAddress",
              "type": "address"
            }
          ],
          "name": "EvSettingsUpdated",
          "type": "event"
        },
        {
          "anonymous": false,
          "inputs": [
            {
              "indexed": true,
              "internalType": "address",
              "name": "previousOwner",
              "type": "address"
            },
            {
              "indexed": true,
              "internalType": "address",
              "name": "newOwner",
              "type": "address"
            }
          ],
          "name": "OwnershipTransferred",
          "type": "event"
        },
        {
          "anonymous": false,
          "inputs": [
            {
              "indexed": false,
              "internalType": "address",
              "name": "account",
              "type": "address"
            }
          ],
          "name": "Paused",
          "type": "event"
        },
        {
          "anonymous": false,
          "inputs": [
            {
              "indexed": false,
              "internalType": "uint256",
              "name": "id",
              "type": "uint256"
            },
            {
              "indexed": false,
              "internalType": "address",
              "name": "user",
              "type": "address"
            },
            {
              "indexed": false,
              "internalType": "uint256",
              "name": "price",
              "type": "uint256"
            }
          ],
          "name": "PlaceBid",
          "type": "event"
        },
        {
          "anonymous": false,
          "inputs": [
            {
              "indexed": false,
              "internalType": "address",
              "name": "account",
              "type": "address"
            }
          ],
          "name": "Unpaused",
          "type": "event"
        },
        {
          "inputs": [],
          "name": "STATUS_ACCEPTED",
          "outputs": [
            {
              "internalType": "uint8",
              "name": "",
              "type": "uint8"
            }
          ],
          "stateMutability": "view",
          "type": "function"
        },
        {
          "inputs": [],
          "name": "STATUS_CANCELLED",
          "outputs": [
            {
              "internalType": "uint8",
              "name": "",
              "type": "uint8"
            }
          ],
          "stateMutability": "view",
          "type": "function"
        },
        {
          "inputs": [],
          "name": "STATUS_OPEN",
          "outputs": [
            {
              "internalType": "uint8",
              "name": "",
              "type": "uint8"
            }
          ],
          "stateMutability": "view",
          "type": "function"
        },
        {
          "inputs": [
            {
              "internalType": "uint256",
              "name": "id",
              "type": "uint256"
            }
          ],
          "name": "acceptSell",
          "outputs": [],
          "stateMutability": "payable",
          "type": "function"
        },
        {
          "inputs": [
            {
              "internalType": "contract IERC721[]",
              "name": "nfts",
              "type": "address[]"
            }
          ],
          "name": "blacklistNFT",
          "outputs": [],
          "stateMutability": "nonpayable",
          "type": "function"
        },
        {
          "inputs": [
            {
              "internalType": "uint256",
              "name": "id",
              "type": "uint256"
            }
          ],
          "name": "cancelSell",
          "outputs": [],
          "stateMutability": "nonpayable",
          "type": "function"
        },
        {
          "inputs": [],
          "name": "feeAddress",
          "outputs": [
            {
              "internalType": "address",
              "name": "",
              "type": "address"
            }
          ],
          "stateMutability": "view",
          "type": "function"
        },
        {
          "inputs": [
            {
              "internalType": "uint256",
              "name": "id",
              "type": "uint256"
            }
          ],
          "name": "finalizeAuction",
          "outputs": [],
          "stateMutability": "nonpayable",
          "type": "function"
        },
        {
          "inputs": [
            {
              "internalType": "uint256",
              "name": "id",
              "type": "uint256"
            }
          ],
          "name": "getTokenOwner",
          "outputs": [
            {
              "internalType": "address",
              "name": "",
              "type": "address"
            }
          ],
          "stateMutability": "view",
          "type": "function"
        },
        {
          "inputs": [
            {
              "internalType": "uint256",
              "name": "id",
              "type": "uint256"
            },
            {
              "internalType": "address",
              "name": "owner",
              "type": "address"
            }
          ],
          "name": "isTokenApproved",
          "outputs": [
            {
              "internalType": "bool",
              "name": "",
              "type": "bool"
            }
          ],
          "stateMutability": "view",
          "type": "function"
        },
        {
          "inputs": [
            {
              "internalType": "uint256",
              "name": "id",
              "type": "uint256"
            }
          ],
          "name": "isValidSell",
          "outputs": [
            {
              "internalType": "bool",
              "name": "",
              "type": "bool"
            }
          ],
          "stateMutability": "view",
          "type": "function"
        },
        {
          "inputs": [
            {
              "internalType": "contract IERC721",
              "name": "",
              "type": "address"
            }
          ],
          "name": "nftBlacklist",
          "outputs": [
            {
              "internalType": "bool",
              "name": "",
              "type": "bool"
            }
          ],
          "stateMutability": "view",
          "type": "function"
        },
        {
          "inputs": [
            {
              "internalType": "contract IERC721",
              "name": "nft",
              "type": "address"
            },
            {
              "internalType": "uint256",
              "name": "tokenId",
              "type": "uint256"
            },
            {
              "internalType": "uint8",
              "name": "method",
              "type": "uint8"
            },
            {
              "internalType": "uint256",
              "name": "price",
              "type": "uint256"
            },
            {
              "internalType": "uint256",
              "name": "duration",
              "type": "uint256"
            }
          ],
          "name": "offerSell",
          "outputs": [],
          "stateMutability": "nonpayable",
          "type": "function"
        },
        {
          "inputs": [
            {
              "internalType": "uint256",
              "name": "",
              "type": "uint256"
            }
          ],
          "name": "offers",
          "outputs": [
            {
              "internalType": "uint256",
              "name": "tokenId",
              "type": "uint256"
            },
            {
              "internalType": "contract IERC721",
              "name": "nft",
              "type": "address"
            },
            {
              "internalType": "uint8",
              "name": "method",
              "type": "uint8"
            },
            {
              "internalType": "uint256",
              "name": "price",
              "type": "uint256"
            },
            {
              "internalType": "uint256",
              "name": "startTime",
              "type": "uint256"
            },
            {
              "internalType": "uint256",
              "name": "endTime",
              "type": "uint256"
            },
            {
              "internalType": "address",
              "name": "user",
              "type": "address"
            },
            {
              "internalType": "address",
              "name": "acceptUser",
              "type": "address"
            },
            {
              "internalType": "uint8",
              "name": "status",
              "type": "uint8"
            }
          ],
          "stateMutability": "view",
          "type": "function"
        },
        {
          "inputs": [],
          "name": "owner",
          "outputs": [
            {
              "internalType": "address",
              "name": "",
              "type": "address"
            }
          ],
          "stateMutability": "view",
          "type": "function"
        },
        {
          "inputs": [],
          "name": "pause",
          "outputs": [],
          "stateMutability": "nonpayable",
          "type": "function"
        },
        {
          "inputs": [],
          "name": "paused",
          "outputs": [
            {
              "internalType": "bool",
              "name": "",
              "type": "bool"
            }
          ],
          "stateMutability": "view",
          "type": "function"
        },
        {
          "inputs": [
            {
              "internalType": "uint256",
              "name": "id",
              "type": "uint256"
            }
          ],
          "name": "placeBid",
          "outputs": [],
          "stateMutability": "payable",
          "type": "function"
        },
        {
          "inputs": [],
          "name": "renounceOwnership",
          "outputs": [],
          "stateMutability": "nonpayable",
          "type": "function"
        },
        {
          "inputs": [
            {
              "internalType": "contract IERC721",
              "name": "",
              "type": "address"
            },
            {
              "internalType": "uint256",
              "name": "",
              "type": "uint256"
            }
          ],
          "name": "tokenSellOffers",
          "outputs": [
            {
              "internalType": "uint256",
              "name": "",
              "type": "uint256"
            }
          ],
          "stateMutability": "view",
          "type": "function"
        },
        {
          "inputs": [
            {
              "internalType": "address",
              "name": "newOwner",
              "type": "address"
            }
          ],
          "name": "transferOwnership",
          "outputs": [],
          "stateMutability": "nonpayable",
          "type": "function"
        },
        {
          "inputs": [
            {
              "internalType": "contract IERC721[]",
              "name": "nfts",
              "type": "address[]"
            }
          ],
          "name": "unblacklistNFT",
          "outputs": [],
          "stateMutability": "nonpayable",
          "type": "function"
        },
        {
          "inputs": [],
          "name": "unpause",
          "outputs": [],
          "stateMutability": "nonpayable",
          "type": "function"
        },
        {
          "inputs": [
            {
              "internalType": "address",
              "name": "feeAddress_",
              "type": "address"
            }
          ],
          "name": "updateSettings",
          "outputs": [],
          "stateMutability": "nonpayable",
          "type": "function"
        }
      ],
      "evm": {
        "bytecode": {
          "linkReferences": {},
          "object": "60806040523480156200001157600080fd5b5060405162002d6138038062002d6183398101604081905262000034916200027c565b60016000556200004d6200004762000226565b6200022a565b6001805460ff60a01b199081168255600280546001600160a01b039485166001600160a01b03199182161782556040805161012081018252600080825260208201818152928201818152606083018281526080840183815260a0850184815260c0860185815260e0870186815261010088019a8b52600380549d8e01815590965295516007909b027fc2575a0e9e593c00f959f8c92f12db2869c3395a3b0502d05e2516446f71f85b81019b909b5595517fc2575a0e9e593c00f959f8c92f12db2869c3395a3b0502d05e2516446f71f85c8b018054945160ff908116600160a01b908102938f16968b16969096178c1692909217905591517fc2575a0e9e593c00f959f8c92f12db2869c3395a3b0502d05e2516446f71f85d8b0155517fc2575a0e9e593c00f959f8c92f12db2869c3395a3b0502d05e2516446f71f85e8a015593517fc2575a0e9e593c00f959f8c92f12db2869c3395a3b0502d05e2516446f71f85f89015591517fc2575a0e9e593c00f959f8c92f12db2869c3395a3b0502d05e2516446f71f86088018054918a16918616919091179055517fc2575a0e9e593c00f959f8c92f12db2869c3395a3b0502d05e2516446f71f86190960180549451909216029490951691161716179055620002ac565b3390565b600180546001600160a01b038381166001600160a01b0319831681179093556040519116919082907f8be0079c531659141344cd1fd0a4f28419497f9722a3daafe3b4186f6b6457e090600090a35050565b6000602082840312156200028e578081fd5b81516001600160a01b0381168114620002a5578182fd5b9392505050565b612aa580620002bc6000396000f3fe60806040526004361061014b5760003560e01c806389e25a65116100b6578063bd51d7251161006f578063bd51d7251461037f578063cef56f111461039f578063e8083863146103b4578063ee6ca193146103d4578063f2fde38b146103e7578063f5744b06146104075761014b565b806389e25a65146102c25780638a72ea6a146102e25780638da5cb5b146103175780639979ef451461032c578063a5cd761f1461033f578063aa2522141461035f5761014b565b80635a4e5a15116101085780635a4e5a15146102215780635c975abb146102365780636d69575b14610258578063715018a61461027857806376451ae21461028d5780638456cb59146102ad5761014b565b806307c9cd4514610150578063212ce7e81461017257806324f8515b146101925780633f4ba83a146101bd57806341275358146101d25780635403d88a146101f4575b600080fd5b34801561015c57600080fd5b5061017061016b36600461245c565b610427565b005b34801561017e57600080fd5b5061017061018d36600461234c565b6105fa565b34801561019e57600080fd5b506101a761072c565b6040516101b49190612978565b60405180910390f35b3480156101c957600080fd5b50610170610731565b3480156101de57600080fd5b506101e761077a565b6040516101b491906124a6565b34801561020057600080fd5b5061021461020f3660046123db565b610789565b6040516101b491906128fe565b34801561022d57600080fd5b506101a76107a6565b34801561024257600080fd5b5061024b6107ab565b6040516101b49190612519565b34801561026457600080fd5b5061024b61027336600461230d565b6107bb565b34801561028457600080fd5b506101706107d0565b34801561029957600080fd5b506101706102a8366004612406565b610819565b3480156102b957600080fd5b50610170610d53565b3480156102ce57600080fd5b5061024b6102dd36600461245c565b610d9a565b3480156102ee57600080fd5b506103026102fd36600461245c565b610ebb565b6040516101b499989796959493929190612926565b34801561032357600080fd5b506101e7610f2f565b61017061033a36600461245c565b610f3e565b34801561034b57600080fd5b506101e761035a36600461245c565b611204565b34801561036b57600080fd5b5061017061037a36600461234c565b6112bd565b34801561038b57600080fd5b5061017061039a36600461230d565b6113e1565b3480156103ab57600080fd5b506101a761147c565b3480156103c057600080fd5b506101706103cf36600461245c565b611481565b6101706103e236600461245c565b611952565b3480156103f357600080fd5b5061017061040236600461230d565b611c71565b34801561041357600080fd5b5061024b610422366004612474565b611ce2565b600260005414156104535760405162461bcd60e51b815260040161044a906128c7565b60405180910390fd5b6002600055808015801590610469575060035481105b6104855760405162461bcd60e51b815260040161044a90612809565b81600060ff16600382815481106104ac57634e487b7160e01b600052603260045260246000fd5b6000918252602090912060079091020160060154600160a01b900460ff16146104e75760405162461bcd60e51b815260040161044a9061256d565b82336001600160a01b03166003828154811061051357634e487b7160e01b600052603260045260246000fd5b60009182526020909120600560079092020101546001600160a01b03161461054d5760405162461bcd60e51b815260040161044a90612865565b6105556107ab565b156105725760405162461bcd60e51b815260040161044a90612765565b60006003858154811061059557634e487b7160e01b600052603260045260246000fd5b6000918252602082206007919091020160068101805460ff60a01b1916600160a11b17905560405190925086917f6207df80804540a4b62858818b8b76add067070ecbb89cce5cf34d457e9e80a291a26105ee81611e39565b50506001600055505050565b610602611e65565b6001600160a01b0316610613610f2f565b6001600160a01b0316146106395760405162461bcd60e51b815260040161044a906127d4565b60005b818110156107275760016006600085858581811061066a57634e487b7160e01b600052603260045260246000fd5b905060200201602081019061067f919061230d565b6001600160a01b031681526020810191909152604001600020805460ff19169115159190911790557fc61e61c454d829d6739bfab76153ad5af101aab7439205403ae5e3dfac8eaff48383838181106106e857634e487b7160e01b600052603260045260246000fd5b90506020020160208101906106fd919061230d565b600160405161070d929190612524565b60405180910390a18061071f81612a29565b91505061063c565b505050565b600081565b610739611e65565b6001600160a01b031661074a610f2f565b6001600160a01b0316146107705760405162461bcd60e51b815260040161044a906127d4565b610778611e69565b565b6002546001600160a01b031681565b600460209081526000928352604080842090915290825290205481565b600281565b600154600160a01b900460ff1690565b60066020526000908152604090205460ff1681565b6107d8611e65565b6001600160a01b03166107e9610f2f565b6001600160a01b03161461080f5760405162461bcd60e51b815260040161044a906127d4565b6107786000611eda565b6002600054141561083c5760405162461bcd60e51b815260040161044a906128c7565b60026000556108496107ab565b156108665760405162461bcd60e51b815260040161044a90612765565b6001600160a01b038516600090815260066020526040902054859060ff16156108a15760405162461bcd60e51b815260040161044a90612641565b60008060ff8616610a7e57505060408051610120810182528681526001600160a01b03808916602083019081526000938301848152606084018881526080850186815260a086018781523360c0880190815260e0880189815261010089018a815260038054600181018255908c5299516007909a027fc2575a0e9e593c00f959f8c92f12db2869c3395a3b0502d05e2516446f71f85b81019a909a5596517fc2575a0e9e593c00f959f8c92f12db2869c3395a3b0502d05e2516446f71f85c8a018054975160ff908116600160a01b90810260ff60a01b19948d166001600160a01b03199b8c161785161790925596517fc2575a0e9e593c00f959f8c92f12db2869c3395a3b0502d05e2516446f71f85d8c015594517fc2575a0e9e593c00f959f8c92f12db2869c3395a3b0502d05e2516446f71f85e8b015592517fc2575a0e9e593c00f959f8c92f12db2869c3395a3b0502d05e2516446f71f85f8a015590517fc2575a0e9e593c00f959f8c92f12db2869c3395a3b0502d05e2516446f71f86089018054918916918716919091179055517fc2575a0e9e593c00f959f8c92f12db2869c3395a3b0502d05e2516446f71f8619097018054955190931690910295909416929091169190911790911691909117905580610c52565b429150610a8b84836129bb565b60408051610120810182528981526001600160a01b03808c16602083019081526001938301848152606084018b81526080850189815260a086018881523360c08801908152600060e089018181526101008a01828152600380549c8d01815590925298516007909a027fc2575a0e9e593c00f959f8c92f12db2869c3395a3b0502d05e2516446f71f85b81019a909a5595517fc2575a0e9e593c00f959f8c92f12db2869c3395a3b0502d05e2516446f71f85c8a018054965160ff908116600160a01b90810260ff60a01b19948c166001600160a01b03199a8b161785161790925595517fc2575a0e9e593c00f959f8c92f12db2869c3395a3b0502d05e2516446f71f85d8c015593517fc2575a0e9e593c00f959f8c92f12db2869c3395a3b0502d05e2516446f71f85e8b015591517fc2575a0e9e593c00f959f8c92f12db2869c3395a3b0502d05e2516446f71f85f8a0155517fc2575a0e9e593c00f959f8c92f12db2869c3395a3b0502d05e2516446f71f8608901805491881691861691909117905595517fc2575a0e9e593c00f959f8c92f12db2869c3395a3b0502d05e2516446f71f86190970180549451909216029590931691161790911691909117905590505b600354600090610c6490600190612a12565b905087896001600160a01b0316336001600160a01b03167f6e05acbb984c50b6749a20f11037656445c275885b76c3f71c9a58b48d4cdaa08a8a8888600089604051610cb596959493929190612986565b60405180910390a433610cc782611204565b6001600160a01b031614610ced5760405162461bcd60e51b815260040161044a9061259b565b610cf78133611ce2565b610d135760405162461bcd60e51b815260040161044a9061266b565b610d1d8989611f2c565b6001600160a01b039098166000908152600460209081526040808320998352989052968720979097555050600190935550505050565b610d5b611e65565b6001600160a01b0316610d6c610f2f565b6001600160a01b031614610d925760405162461bcd60e51b815260040161044a906127d4565b610778611ffc565b6003546000908210610dae57506000610eb6565b600060038381548110610dd157634e487b7160e01b600052603260045260246000fd5b60009182526020909120600660079092020190810154909150600160a01b900460ff16158015610e1557506005810154610e159084906001600160a01b0316611ce2565b8015610eb257506005810154600182015482546040516331a9108f60e11b81526001600160a01b039384169390921691636352211e91610e57916004016128fe565b60206040518083038186803b158015610e6f57600080fd5b505afa158015610e83573d6000803e3d6000fd5b505050506040513d601f19601f82011682018060405250810190610ea79190612330565b6001600160a01b0316145b9150505b919050565b60038181548110610ecb57600080fd5b600091825260209091206007909102018054600182015460028301546003840154600485015460058601546006909601549496506001600160a01b038085169660ff600160a01b968790048116979596949593949183169392831692919091041689565b6001546001600160a01b031690565b60026000541415610f615760405162461bcd60e51b815260040161044a906128c7565b6002600055808015801590610f77575060035481105b610f935760405162461bcd60e51b815260040161044a90612809565b81600060ff1660038281548110610fba57634e487b7160e01b600052603260045260246000fd5b6000918252602090912060079091020160060154600160a01b900460ff1614610ff55760405162461bcd60e51b815260040161044a9061256d565b8260006003828154811061101957634e487b7160e01b600052603260045260246000fd5b600091825260208083206001600790930201918201546001600160a01b031683526006905260409091205490915060ff16156110675760405162461bcd60e51b815260040161044a90612641565b61106f6107ab565b1561108c5760405162461bcd60e51b815260040161044a90612765565b6000600386815481106110af57634e487b7160e01b600052603260045260246000fd5b6000918252602090912060079091020160058101549091506001600160a01b03166110d987611204565b6001600160a01b0316146110ff5760405162461bcd60e51b815260040161044a9061278f565b60058101546111189087906001600160a01b0316611ce2565b6111345760405162461bcd60e51b815260040161044a9061266b565b80600201543410156111585760405162461bcd60e51b815260040161044a90612618565b6000868152600560209081526040808320815180830183523380825234828601818152845460018082018755868a5297909820845160029099020180546001600160a01b0319166001600160a01b039099169890981788555196909501959095559151909391927f842d2ac3c24f62f502b949d8099647c7c74cc52d7897769455905a6aecc27c76926111ed928c9290612907565b60405180910390a150506001600055505050505050565b6000806003838154811061122857634e487b7160e01b600052603260045260246000fd5b60009182526020909120600790910201600181015481546040516331a9108f60e11b81529293506001600160a01b0390911691636352211e9161126d916004016128fe565b60206040518083038186803b15801561128557600080fd5b505afa158015611299573d6000803e3d6000fd5b505050506040513d601f19601f82011682018060405250810190610eb29190612330565b6112c5611e65565b6001600160a01b03166112d6610f2f565b6001600160a01b0316146112fc5760405162461bcd60e51b815260040161044a906127d4565b60005b81811015610727576006600084848481811061132b57634e487b7160e01b600052603260045260246000fd5b9050602002016020810190611340919061230d565b6001600160a01b031681526020810191909152604001600020805460ff191690557fc61e61c454d829d6739bfab76153ad5af101aab7439205403ae5e3dfac8eaff48383838181106113a257634e487b7160e01b600052603260045260246000fd5b90506020020160208101906113b7919061230d565b60006040516113c7929190612524565b60405180910390a1806113d981612a29565b9150506112ff565b6113e9611e65565b6001600160a01b03166113fa610f2f565b6001600160a01b0316146114205760405162461bcd60e51b815260040161044a906127d4565b600280546001600160a01b0319166001600160a01b0383811691909117918290556040517ffc6ff37c6557c4e2cc73bdb3ea0a0f34884527e080ec6d9969cc813cff2a95c1926114719216906124a6565b60405180910390a150565b600181565b600260005414156114a45760405162461bcd60e51b815260040161044a906128c7565b60026000558080158015906114ba575060035481105b6114d65760405162461bcd60e51b815260040161044a90612809565b81600060ff16600382815481106114fd57634e487b7160e01b600052603260045260246000fd5b6000918252602090912060079091020160060154600160a01b900460ff16146115385760405162461bcd60e51b815260040161044a9061256d565b8260006003828154811061155c57634e487b7160e01b600052603260045260246000fd5b600091825260208083206001600790930201918201546001600160a01b031683526006905260409091205490915060ff16156115aa5760405162461bcd60e51b815260040161044a90612641565b6115b26107ab565b156115cf5760405162461bcd60e51b815260040161044a90612765565b6115d7611e65565b6001600160a01b03166115e8610f2f565b6001600160a01b03161461160e5760405162461bcd60e51b815260040161044a906127d4565b60006003868154811061163157634e487b7160e01b600052603260045260246000fd5b6000918252602090912060079091020160058101549091506001600160a01b031661165b87611204565b6001600160a01b0316146116815760405162461bcd60e51b815260040161044a9061278f565b600581015461169a9087906001600160a01b0316611ce2565b6116b65760405162461bcd60e51b815260040161044a9061266b565b42816003015411156116da5760405162461bcd60e51b815260040161044a90612837565b600181810154600160a01b900460ff16146117075760405162461bcd60e51b815260040161044a906126f7565b6000868152600560205260409020805415611944576000808260008154811061174057634e487b7160e01b600052603260045260246000fd5b906000526020600020906002020160010154905060008092505b83548310156117de57600084848154811061178557634e487b7160e01b600052603260045260246000fd5b60009182526020918290206040805180820190915260029092020180546001600160a01b031682526001015491810182905291508310156117cb57806020015192508391505b50826117d681612a29565b93505061175a565b60068501805460ff60a01b1916600160a01b179055835484908290811061181557634e487b7160e01b600052603260045260246000fd5b60009182526020909120600290910201546006860180546001600160a01b0319166001600160a01b03909216919091179055835484908290811061186957634e487b7160e01b600052603260045260246000fd5b90600052602060002090600202016001015485600201819055507f751b8eaa5ab4378445b4a8182513b04c4fde3f043584024e59bd93075f2489988482815481106118c457634e487b7160e01b600052603260045260246000fd5b600091825260209091206002909102015485546001600160a01b039091169086908490811061190357634e487b7160e01b600052603260045260246000fd5b9060005260206000209060020201600101548c604051611925939291906124f8565b60405180910390a16119378a8261205d565b61194085611e39565b5050505b505060016000555050505050565b600260005414156119755760405162461bcd60e51b815260040161044a906128c7565b600260005580801580159061198b575060035481105b6119a75760405162461bcd60e51b815260040161044a90612809565b81600060ff16600382815481106119ce57634e487b7160e01b600052603260045260246000fd5b6000918252602090912060079091020160060154600160a01b900460ff1614611a095760405162461bcd60e51b815260040161044a9061256d565b82600060038281548110611a2d57634e487b7160e01b600052603260045260246000fd5b600091825260208083206001600790930201918201546001600160a01b031683526006905260409091205490915060ff1615611a7b5760405162461bcd60e51b815260040161044a90612641565b611a836107ab565b15611aa05760405162461bcd60e51b815260040161044a90612765565b600060038681548110611ac357634e487b7160e01b600052603260045260246000fd5b6000918252602090912060079091020160058101549091506001600160a01b0316611aed87611204565b6001600160a01b031614611b135760405162461bcd60e51b815260040161044a9061278f565b6005810154611b2c9087906001600160a01b0316611ce2565b611b485760405162461bcd60e51b815260040161044a9061266b565b8060020154341015611b6c5760405162461bcd60e51b815260040161044a90612618565b600181015460058201548254604051632142170760e11b81526001600160a01b03938416936342842e0e93611ba9939116913391906004016124d4565b600060405180830381600087803b158015611bc357600080fd5b505af1158015611bd7573d6000803e3d6000fd5b5050506005820154611bf4915034906001600160a01b03166121ea565b6006810180546001600160a01b031960ff60a01b19909116600160a01b171633908117909155346002830181905560405188917f1c74128ae19b4a888c096a2e6bdf487ef12431a53f86731e5cac4eb9e7a1f0c391611c5391906128fe565b60405180910390a3611c6481611e39565b5050600160005550505050565b611c79611e65565b6001600160a01b0316611c8a610f2f565b6001600160a01b031614611cb05760405162461bcd60e51b815260040161044a906127d4565b6001600160a01b038116611cd65760405162461bcd60e51b815260040161044a906125d2565b611cdf81611eda565b50565b60008060038481548110611d0657634e487b7160e01b600052603260045260246000fd5b600091825260209091206007909102016001810154815460405163020604bf60e21b815292935030926001600160a01b039092169163081812fc91611d4d916004016128fe565b60206040518083038186803b158015611d6557600080fd5b505afa158015611d79573d6000803e3d6000fd5b505050506040513d601f19601f82011682018060405250810190611d9d9190612330565b6001600160a01b03161480611e315750600181015460405163e985e9c560e01b81526001600160a01b039091169063e985e9c590611de190869030906004016124ba565b60206040518083038186803b158015611df957600080fd5b505afa158015611e0d573d6000803e3d6000fd5b505050506040513d601f19601f82011682018060405250810190611e3191906123bb565b949350505050565b60018101546001600160a01b031660009081526004602090815260408083209354835292905290812055565b3390565b611e716107ab565b611e8d5760405162461bcd60e51b815260040161044a9061253f565b6001805460ff60a01b191690557f5db9ee0a495bf2e6ff9c91a7834c1ba4fdd244a5e8aa4e537bd38aeae4b073aa611ec3611e65565b604051611ed091906124a6565b60405180910390a1565b600180546001600160a01b038381166001600160a01b0319831681179093556040519116919082907f8be0079c531659141344cd1fd0a4f28419497f9722a3daafe3b4186f6b6457e090600090a35050565b6001600160a01b038216600090815260046020908152604080832084845290915290205480611f5b5750611ff8565b600060038281548110611f7e57634e487b7160e01b600052603260045260246000fd5b6000918252602080832060066007909302019182018054600160a11b60ff60a01b1990911617905560018201546001600160a01b03168352600481526040808420835485529091528083208390555190925083917f6207df80804540a4b62858818b8b76add067070ecbb89cce5cf34d457e9e80a291a250505b5050565b6120046107ab565b156120215760405162461bcd60e51b815260040161044a90612765565b6001805460ff60a01b1916600160a01b1790557f62e78cea01bee320cd4e420270b5ea74000d11b0c9f74754ebdbfc544b05a258611ec3611e65565b61206682610d9a565b6120825760405162461bcd60e51b815260040161044a9061289c565b6000600383815481106120a557634e487b7160e01b600052603260045260246000fd5b600091825260208083208684526005909152604083206007909202019250905b81548110156121e35760008282815481106120f057634e487b7160e01b600052603260045260246000fd5b60009182526020918290206040805180820190915260029092020180546001600160a01b0316825260010154918101919091529050818514156121be576001840154600585015482518654604051632142170760e11b81526001600160a01b03948516946342842e0e9461216b9491169290916004016124d4565b600060405180830381600087803b15801561218557600080fd5b505af1158015612199573d6000803e3d6000fd5b505050602082015160058601546121b992506001600160a01b03166121ea565b6121d0565b6121d08160000151826020015161222a565b50806121db81612a29565b9150506120c5565b5050505050565b600060646121f98460026129f3565b61220391906129d3565b60025490915061221c906001600160a01b031682612266565b6107278261222a8386612a12565b8015611ff8576040516001600160a01b0383169082156108fc029083906000818181858888f19350505050158015610727573d6000803e3d6000fd5b8015611ff857611ff88282804710156122915760405162461bcd60e51b815260040161044a9061272e565b6000826001600160a01b0316826040516122aa906124a3565b60006040518083038185875af1925050503d80600081146122e7576040519150601f19603f3d011682016040523d82523d6000602084013e6122ec565b606091505b50509050806107275760405162461bcd60e51b815260040161044a9061269a565b60006020828403121561231e578081fd5b813561232981612a5a565b9392505050565b600060208284031215612341578081fd5b815161232981612a5a565b6000806020838503121561235e578081fd5b823567ffffffffffffffff80821115612375578283fd5b818501915085601f830112612388578283fd5b813581811115612396578384fd5b86602080830285010111156123a9578384fd5b60209290920196919550909350505050565b6000602082840312156123cc578081fd5b81518015158114612329578182fd5b600080604083850312156123ed578182fd5b82356123f881612a5a565b946020939093013593505050565b600080600080600060a0868803121561241d578081fd5b853561242881612a5a565b945060208601359350604086013560ff81168114612444578182fd5b94979396509394606081013594506080013592915050565b60006020828403121561246d578081fd5b5035919050565b60008060408385031215612486578182fd5b82359150602083013561249881612a5a565b809150509250929050565b90565b6001600160a01b0391909116815260200190565b6001600160a01b0392831681529116602082015260400190565b6001600160a01b039384168152919092166020820152604081019190915260600190565b6001600160a01b039390931683526020830191909152604082015260600190565b901515815260200190565b6001600160a01b039290921682521515602082015260400190565b60208082526014908201527314185d5cd8589b194e881b9bdd081c185d5cd95960621b604082015260600190565b60208082526014908201527337b33332b91039b437bab6321031329037b832b760611b604082015260600190565b6020808252601b908201527f73656e6465722073686f756c64206f776e2074686520746f6b656e0000000000604082015260600190565b60208082526026908201527f4f776e61626c653a206e6577206f776e657220697320746865207a65726f206160408201526564647265737360d01b606082015260800190565b6020808252600f908201526e73656e64206d6f7265206d6f6e657960881b604082015260600190565b60208082526010908201526f139195081a5b88189b1858dadb1a5cdd60821b604082015260600190565b6020808252601590820152741d1bdad95b881a5cc81b9bdd08185c1c1c9bdd9959605a1b604082015260600190565b6020808252603a908201527f416464726573733a20756e61626c6520746f2073656e642076616c75652c207260408201527f6563697069656e74206d61792068617665207265766572746564000000000000606082015260800190565b6020808252601e908201527f626964206e6f7420666f722074696d65642d61756374696f6e2073616c650000604082015260600190565b6020808252601d908201527f416464726573733a20696e73756666696369656e742062616c616e6365000000604082015260600190565b60208082526010908201526f14185d5cd8589b194e881c185d5cd95960821b604082015260600190565b60208082526025908201527f746f6b656e206e6f74206f776e6564206279207468652073656c6c657220616e604082015264796d6f726560d81b606082015260800190565b6020808252818101527f4f776e61626c653a2063616c6c6572206973206e6f7420746865206f776e6572604082015260600190565b6020808252601490820152731bd999995c88191bd95cc81b9bdd08195e1a5cdd60621b604082015260600190565b6020808252601490820152731cd85b19481b9bdd081cdd185c9d1959081e595d60621b604082015260600190565b60208082526019908201527f63616c6c2073686f756c64206f776e20746865206f6666657200000000000000604082015260600190565b6020808252601190820152701cd85b19481a5cc81b9bdd081d985b1a59607a1b604082015260600190565b6020808252601f908201527f5265656e7472616e637947756172643a207265656e7472616e742063616c6c00604082015260600190565b90815260200190565b9283526001600160a01b03919091166020830152604082015260600190565b9889526001600160a01b0397881660208a015260ff96871660408a01526060890195909552608088019390935260a0870191909152841660c086015290921660e0840152166101008201526101200190565b60ff91909116815260200190565b60ff9687168152602081019590955260408501939093526060840191909152909216608082015260a081019190915260c00190565b600082198211156129ce576129ce612a44565b500190565b6000826129ee57634e487b7160e01b81526012600452602481fd5b500490565b6000816000190483118215151615612a0d57612a0d612a44565b500290565b600082821015612a2457612a24612a44565b500390565b6000600019821415612a3d57612a3d612a44565b5060010190565b634e487b7160e01b600052601160045260246000fd5b6001600160a01b0381168114611cdf57600080fdfea26469706673582212200020991e9d1b734975654e7de62ca90983663ce3c947600f6cb1cef17ead2dc264736f6c63430008000033",
          "opcodes": "PUSH1 0x80 PUSH1 0x40 MSTORE CALLVALUE DUP1 ISZERO PUSH3 0x11 JUMPI PUSH1 0x0 DUP1 REVERT JUMPDEST POP PUSH1 0x40 MLOAD PUSH3 0x2D61 CODESIZE SUB DUP1 PUSH3 0x2D61 DUP4 CODECOPY DUP2 ADD PUSH1 0x40 DUP2 SWAP1 MSTORE PUSH3 0x34 SWAP2 PUSH3 0x27C JUMP JUMPDEST PUSH1 0x1 PUSH1 0x0 SSTORE PUSH3 0x4D PUSH3 0x47 PUSH3 0x226 JUMP JUMPDEST PUSH3 0x22A JUMP JUMPDEST PUSH1 0x1 DUP1 SLOAD PUSH1 0xFF PUSH1 0xA0 SHL NOT SWAP1 DUP2 AND DUP3 SSTORE PUSH1 0x2 DUP1 SLOAD PUSH1 0x1 PUSH1 0x1 PUSH1 0xA0 SHL SUB SWAP5 DUP6 AND PUSH1 0x1 PUSH1 0x1 PUSH1 0xA0 SHL SUB NOT SWAP2 DUP3 AND OR DUP3 SSTORE PUSH1 0x40 DUP1 MLOAD PUSH2 0x120 DUP2 ADD DUP3 MSTORE PUSH1 0x0 DUP1 DUP3 MSTORE PUSH1 0x20 DUP3 ADD DUP2 DUP2 MSTORE SWAP3 DUP3 ADD DUP2 DUP2 MSTORE PUSH1 0x60 DUP4 ADD DUP3 DUP2 MSTORE PUSH1 0x80 DUP5 ADD DUP4 DUP2 MSTORE PUSH1 0xA0 DUP6 ADD DUP5 DUP2 MSTORE PUSH1 0xC0 DUP7 ADD DUP6 DUP2 MSTORE PUSH1 0xE0 DUP8 ADD DUP7 DUP2 MSTORE PUSH2 0x100 DUP9 ADD SWAP11 DUP12 MSTORE PUSH1 0x3 DUP1 SLOAD SWAP14 DUP15 ADD DUP2 SSTORE SWAP1 SWAP7 MSTORE SWAP6 MLOAD PUSH1 0x7 SWAP1 SWAP12 MUL PUSH32 0xC2575A0E9E593C00F959F8C92F12DB2869C3395A3B0502D05E2516446F71F85B DUP2 ADD SWAP12 SWAP1 SWAP12 SSTORE SWAP6 MLOAD PUSH32 0xC2575A0E9E593C00F959F8C92F12DB2869C3395A3B0502D05E2516446F71F85C DUP12 ADD DUP1 SLOAD SWAP5 MLOAD PUSH1 0xFF SWAP1 DUP2 AND PUSH1 0x1 PUSH1 0xA0 SHL SWAP1 DUP2 MUL SWAP4 DUP16 AND SWAP7 DUP12 AND SWAP7 SWAP1 SWAP7 OR DUP13 AND SWAP3 SWAP1 SWAP3 OR SWAP1 SSTORE SWAP2 MLOAD PUSH32 0xC2575A0E9E593C00F959F8C92F12DB2869C3395A3B0502D05E2516446F71F85D DUP12 ADD SSTORE MLOAD PUSH32 0xC2575A0E9E593C00F959F8C92F12DB2869C3395A3B0502D05E2516446F71F85E DUP11 ADD SSTORE SWAP4 MLOAD PUSH32 0xC2575A0E9E593C00F959F8C92F12DB2869C3395A3B0502D05E2516446F71F85F DUP10 ADD SSTORE SWAP2 MLOAD PUSH32 0xC2575A0E9E593C00F959F8C92F12DB2869C3395A3B0502D05E2516446F71F860 DUP9 ADD DUP1 SLOAD SWAP2 DUP11 AND SWAP2 DUP7 AND SWAP2 SWAP1 SWAP2 OR SWAP1 SSTORE MLOAD PUSH32 0xC2575A0E9E593C00F959F8C92F12DB2869C3395A3B0502D05E2516446F71F861 SWAP1 SWAP7 ADD DUP1 SLOAD SWAP5 MLOAD SWAP1 SWAP3 AND MUL SWAP5 SWAP1 SWAP6 AND SWAP2 AND OR AND OR SWAP1 SSTORE PUSH3 0x2AC JUMP JUMPDEST CALLER SWAP1 JUMP JUMPDEST PUSH1 0x1 DUP1 SLOAD PUSH1 0x1 PUSH1 0x1 PUSH1 0xA0 SHL SUB DUP4 DUP2 AND PUSH1 0x1 PUSH1 0x1 PUSH1 0xA0 SHL SUB NOT DUP4 AND DUP2 OR SWAP1 SWAP4 SSTORE PUSH1 0x40 MLOAD SWAP2 AND SWAP2 SWAP1 DUP3 SWAP1 PUSH32 0x8BE0079C531659141344CD1FD0A4F28419497F9722A3DAAFE3B4186F6B6457E0 SWAP1 PUSH1 0x0 SWAP1 LOG3 POP POP JUMP JUMPDEST PUSH1 0x0 PUSH1 0x20 DUP3 DUP5 SUB SLT ISZERO PUSH3 0x28E JUMPI DUP1 DUP2 REVERT JUMPDEST DUP2 MLOAD PUSH1 0x1 PUSH1 0x1 PUSH1 0xA0 SHL SUB DUP2 AND DUP2 EQ PUSH3 0x2A5 JUMPI DUP2 DUP3 REVERT JUMPDEST SWAP4 SWAP3 POP POP POP JUMP JUMPDEST PUSH2 0x2AA5 DUP1 PUSH3 0x2BC PUSH1 0x0 CODECOPY PUSH1 0x0 RETURN INVALID PUSH1 0x80 PUSH1 0x40 MSTORE PUSH1 0x4 CALLDATASIZE LT PUSH2 0x14B JUMPI PUSH1 0x0 CALLDATALOAD PUSH1 0xE0 SHR DUP1 PUSH4 0x89E25A65 GT PUSH2 0xB6 JUMPI DUP1 PUSH4 0xBD51D725 GT PUSH2 0x6F JUMPI DUP1 PUSH4 0xBD51D725 EQ PUSH2 0x37F JUMPI DUP1 PUSH4 0xCEF56F11 EQ PUSH2 0x39F JUMPI DUP1 PUSH4 0xE8083863 EQ PUSH2 0x3B4 JUMPI DUP1 PUSH4 0xEE6CA193 EQ PUSH2 0x3D4 JUMPI DUP1 PUSH4 0xF2FDE38B EQ PUSH2 0x3E7 JUMPI DUP1 PUSH4 0xF5744B06 EQ PUSH2 0x407 JUMPI PUSH2 0x14B JUMP JUMPDEST DUP1 PUSH4 0x89E25A65 EQ PUSH2 0x2C2 JUMPI DUP1 PUSH4 0x8A72EA6A EQ PUSH2 0x2E2 JUMPI DUP1 PUSH4 0x8DA5CB5B EQ PUSH2 0x317 JUMPI DUP1 PUSH4 0x9979EF45 EQ PUSH2 0x32C JUMPI DUP1 PUSH4 0xA5CD761F EQ PUSH2 0x33F JUMPI DUP1 PUSH4 0xAA252214 EQ PUSH2 0x35F JUMPI PUSH2 0x14B JUMP JUMPDEST DUP1 PUSH4 0x5A4E5A15 GT PUSH2 0x108 JUMPI DUP1 PUSH4 0x5A4E5A15 EQ PUSH2 0x221 JUMPI DUP1 PUSH4 0x5C975ABB EQ PUSH2 0x236 JUMPI DUP1 PUSH4 0x6D69575B EQ PUSH2 0x258 JUMPI DUP1 PUSH4 0x715018A6 EQ PUSH2 0x278 JUMPI DUP1 PUSH4 0x76451AE2 EQ PUSH2 0x28D JUMPI DUP1 PUSH4 0x8456CB59 EQ PUSH2 0x2AD JUMPI PUSH2 0x14B JUMP JUMPDEST DUP1 PUSH4 0x7C9CD45 EQ PUSH2 0x150 JUMPI DUP1 PUSH4 0x212CE7E8 EQ PUSH2 0x172 JUMPI DUP1 PUSH4 0x24F8515B EQ PUSH2 0x192 JUMPI DUP1 PUSH4 0x3F4BA83A EQ PUSH2 0x1BD JUMPI DUP1 PUSH4 0x41275358 EQ PUSH2 0x1D2 JUMPI DUP1 PUSH4 0x5403D88A EQ PUSH2 0x1F4 JUMPI JUMPDEST PUSH1 0x0 DUP1 REVERT JUMPDEST CALLVALUE DUP1 ISZERO PUSH2 0x15C JUMPI PUSH1 0x0 DUP1 REVERT JUMPDEST POP PUSH2 0x170 PUSH2 0x16B CALLDATASIZE PUSH1 0x4 PUSH2 0x245C JUMP JUMPDEST PUSH2 0x427 JUMP JUMPDEST STOP JUMPDEST CALLVALUE DUP1 ISZERO PUSH2 0x17E JUMPI PUSH1 0x0 DUP1 REVERT JUMPDEST POP PUSH2 0x170 PUSH2 0x18D CALLDATASIZE PUSH1 0x4 PUSH2 0x234C JUMP JUMPDEST PUSH2 0x5FA JUMP JUMPDEST CALLVALUE DUP1 ISZERO PUSH2 0x19E JUMPI PUSH1 0x0 DUP1 REVERT JUMPDEST POP PUSH2 0x1A7 PUSH2 0x72C JUMP JUMPDEST PUSH1 0x40 MLOAD PUSH2 0x1B4 SWAP2 SWAP1 PUSH2 0x2978 JUMP JUMPDEST PUSH1 0x40 MLOAD DUP1 SWAP2 SUB SWAP1 RETURN JUMPDEST CALLVALUE DUP1 ISZERO PUSH2 0x1C9 JUMPI PUSH1 0x0 DUP1 REVERT JUMPDEST POP PUSH2 0x170 PUSH2 0x731 JUMP JUMPDEST CALLVALUE DUP1 ISZERO PUSH2 0x1DE JUMPI PUSH1 0x0 DUP1 REVERT JUMPDEST POP PUSH2 0x1E7 PUSH2 0x77A JUMP JUMPDEST PUSH1 0x40 MLOAD PUSH2 0x1B4 SWAP2 SWAP1 PUSH2 0x24A6 JUMP JUMPDEST CALLVALUE DUP1 ISZERO PUSH2 0x200 JUMPI PUSH1 0x0 DUP1 REVERT JUMPDEST POP PUSH2 0x214 PUSH2 0x20F CALLDATASIZE PUSH1 0x4 PUSH2 0x23DB JUMP JUMPDEST PUSH2 0x789 JUMP JUMPDEST PUSH1 0x40 MLOAD PUSH2 0x1B4 SWAP2 SWAP1 PUSH2 0x28FE JUMP JUMPDEST CALLVALUE DUP1 ISZERO PUSH2 0x22D JUMPI PUSH1 0x0 DUP1 REVERT JUMPDEST POP PUSH2 0x1A7 PUSH2 0x7A6 JUMP JUMPDEST CALLVALUE DUP1 ISZERO PUSH2 0x242 JUMPI PUSH1 0x0 DUP1 REVERT JUMPDEST POP PUSH2 0x24B PUSH2 0x7AB JUMP JUMPDEST PUSH1 0x40 MLOAD PUSH2 0x1B4 SWAP2 SWAP1 PUSH2 0x2519 JUMP JUMPDEST CALLVALUE DUP1 ISZERO PUSH2 0x264 JUMPI PUSH1 0x0 DUP1 REVERT JUMPDEST POP PUSH2 0x24B PUSH2 0x273 CALLDATASIZE PUSH1 0x4 PUSH2 0x230D JUMP JUMPDEST PUSH2 0x7BB JUMP JUMPDEST CALLVALUE DUP1 ISZERO PUSH2 0x284 JUMPI PUSH1 0x0 DUP1 REVERT JUMPDEST POP PUSH2 0x170 PUSH2 0x7D0 JUMP JUMPDEST CALLVALUE DUP1 ISZERO PUSH2 0x299 JUMPI PUSH1 0x0 DUP1 REVERT JUMPDEST POP PUSH2 0x170 PUSH2 0x2A8 CALLDATASIZE PUSH1 0x4 PUSH2 0x2406 JUMP JUMPDEST PUSH2 0x819 JUMP JUMPDEST CALLVALUE DUP1 ISZERO PUSH2 0x2B9 JUMPI PUSH1 0x0 DUP1 REVERT JUMPDEST POP PUSH2 0x170 PUSH2 0xD53 JUMP JUMPDEST CALLVALUE DUP1 ISZERO PUSH2 0x2CE JUMPI PUSH1 0x0 DUP1 REVERT JUMPDEST POP PUSH2 0x24B PUSH2 0x2DD CALLDATASIZE PUSH1 0x4 PUSH2 0x245C JUMP JUMPDEST PUSH2 0xD9A JUMP JUMPDEST CALLVALUE DUP1 ISZERO PUSH2 0x2EE JUMPI PUSH1 0x0 DUP1 REVERT JUMPDEST POP PUSH2 0x302 PUSH2 0x2FD CALLDATASIZE PUSH1 0x4 PUSH2 0x245C JUMP JUMPDEST PUSH2 0xEBB JUMP JUMPDEST PUSH1 0x40 MLOAD PUSH2 0x1B4 SWAP10 SWAP9 SWAP8 SWAP7 SWAP6 SWAP5 SWAP4 SWAP3 SWAP2 SWAP1 PUSH2 0x2926 JUMP JUMPDEST CALLVALUE DUP1 ISZERO PUSH2 0x323 JUMPI PUSH1 0x0 DUP1 REVERT JUMPDEST POP PUSH2 0x1E7 PUSH2 0xF2F JUMP JUMPDEST PUSH2 0x170 PUSH2 0x33A CALLDATASIZE PUSH1 0x4 PUSH2 0x245C JUMP JUMPDEST PUSH2 0xF3E JUMP JUMPDEST CALLVALUE DUP1 ISZERO PUSH2 0x34B JUMPI PUSH1 0x0 DUP1 REVERT JUMPDEST POP PUSH2 0x1E7 PUSH2 0x35A CALLDATASIZE PUSH1 0x4 PUSH2 0x245C JUMP JUMPDEST PUSH2 0x1204 JUMP JUMPDEST CALLVALUE DUP1 ISZERO PUSH2 0x36B JUMPI PUSH1 0x0 DUP1 REVERT JUMPDEST POP PUSH2 0x170 PUSH2 0x37A CALLDATASIZE PUSH1 0x4 PUSH2 0x234C JUMP JUMPDEST PUSH2 0x12BD JUMP JUMPDEST CALLVALUE DUP1 ISZERO PUSH2 0x38B JUMPI PUSH1 0x0 DUP1 REVERT JUMPDEST POP PUSH2 0x170 PUSH2 0x39A CALLDATASIZE PUSH1 0x4 PUSH2 0x230D JUMP JUMPDEST PUSH2 0x13E1 JUMP JUMPDEST CALLVALUE DUP1 ISZERO PUSH2 0x3AB JUMPI PUSH1 0x0 DUP1 REVERT JUMPDEST POP PUSH2 0x1A7 PUSH2 0x147C JUMP JUMPDEST CALLVALUE DUP1 ISZERO PUSH2 0x3C0 JUMPI PUSH1 0x0 DUP1 REVERT JUMPDEST POP PUSH2 0x170 PUSH2 0x3CF CALLDATASIZE PUSH1 0x4 PUSH2 0x245C JUMP JUMPDEST PUSH2 0x1481 JUMP JUMPDEST PUSH2 0x170 PUSH2 0x3E2 CALLDATASIZE PUSH1 0x4 PUSH2 0x245C JUMP JUMPDEST PUSH2 0x1952 JUMP JUMPDEST CALLVALUE DUP1 ISZERO PUSH2 0x3F3 JUMPI PUSH1 0x0 DUP1 REVERT JUMPDEST POP PUSH2 0x170 PUSH2 0x402 CALLDATASIZE PUSH1 0x4 PUSH2 0x230D JUMP JUMPDEST PUSH2 0x1C71 JUMP JUMPDEST CALLVALUE DUP1 ISZERO PUSH2 0x413 JUMPI PUSH1 0x0 DUP1 REVERT JUMPDEST POP PUSH2 0x24B PUSH2 0x422 CALLDATASIZE PUSH1 0x4 PUSH2 0x2474 JUMP JUMPDEST PUSH2 0x1CE2 JUMP JUMPDEST PUSH1 0x2 PUSH1 0x0 SLOAD EQ ISZERO PUSH2 0x453 JUMPI PUSH1 0x40 MLOAD PUSH3 0x461BCD PUSH1 0xE5 SHL DUP2 MSTORE PUSH1 0x4 ADD PUSH2 0x44A SWAP1 PUSH2 0x28C7 JUMP JUMPDEST PUSH1 0x40 MLOAD DUP1 SWAP2 SUB SWAP1 REVERT JUMPDEST PUSH1 0x2 PUSH1 0x0 SSTORE DUP1 DUP1 ISZERO DUP1 ISZERO SWAP1 PUSH2 0x469 JUMPI POP PUSH1 0x3 SLOAD DUP2 LT JUMPDEST PUSH2 0x485 JUMPI PUSH1 0x40 MLOAD PUSH3 0x461BCD PUSH1 0xE5 SHL DUP2 MSTORE PUSH1 0x4 ADD PUSH2 0x44A SWAP1 PUSH2 0x2809 JUMP JUMPDEST DUP2 PUSH1 0x0 PUSH1 0xFF AND PUSH1 0x3 DUP3 DUP2 SLOAD DUP2 LT PUSH2 0x4AC JUMPI PUSH4 0x4E487B71 PUSH1 0xE0 SHL PUSH1 0x0 MSTORE PUSH1 0x32 PUSH1 0x4 MSTORE PUSH1 0x24 PUSH1 0x0 REVERT JUMPDEST PUSH1 0x0 SWAP2 DUP3 MSTORE PUSH1 0x20 SWAP1 SWAP2 KECCAK256 PUSH1 0x7 SWAP1 SWAP2 MUL ADD PUSH1 0x6 ADD SLOAD PUSH1 0x1 PUSH1 0xA0 SHL SWAP1 DIV PUSH1 0xFF AND EQ PUSH2 0x4E7 JUMPI PUSH1 0x40 MLOAD PUSH3 0x461BCD PUSH1 0xE5 SHL DUP2 MSTORE PUSH1 0x4 ADD PUSH2 0x44A SWAP1 PUSH2 0x256D JUMP JUMPDEST DUP3 CALLER PUSH1 0x1 PUSH1 0x1 PUSH1 0xA0 SHL SUB AND PUSH1 0x3 DUP3 DUP2 SLOAD DUP2 LT PUSH2 0x513 JUMPI PUSH4 0x4E487B71 PUSH1 0xE0 SHL PUSH1 0x0 MSTORE PUSH1 0x32 PUSH1 0x4 MSTORE PUSH1 0x24 PUSH1 0x0 REVERT JUMPDEST PUSH1 0x0 SWAP2 DUP3 MSTORE PUSH1 0x20 SWAP1 SWAP2 KECCAK256 PUSH1 0x5 PUSH1 0x7 SWAP1 SWAP3 MUL ADD ADD SLOAD PUSH1 0x1 PUSH1 0x1 PUSH1 0xA0 SHL SUB AND EQ PUSH2 0x54D JUMPI PUSH1 0x40 MLOAD PUSH3 0x461BCD PUSH1 0xE5 SHL DUP2 MSTORE PUSH1 0x4 ADD PUSH2 0x44A SWAP1 PUSH2 0x2865 JUMP JUMPDEST PUSH2 0x555 PUSH2 0x7AB JUMP JUMPDEST ISZERO PUSH2 0x572 JUMPI PUSH1 0x40 MLOAD PUSH3 0x461BCD PUSH1 0xE5 SHL DUP2 MSTORE PUSH1 0x4 ADD PUSH2 0x44A SWAP1 PUSH2 0x2765 JUMP JUMPDEST PUSH1 0x0 PUSH1 0x3 DUP6 DUP2 SLOAD DUP2 LT PUSH2 0x595 JUMPI PUSH4 0x4E487B71 PUSH1 0xE0 SHL PUSH1 0x0 MSTORE PUSH1 0x32 PUSH1 0x4 MSTORE PUSH1 0x24 PUSH1 0x0 REVERT JUMPDEST PUSH1 0x0 SWAP2 DUP3 MSTORE PUSH1 0x20 DUP3 KECCAK256 PUSH1 0x7 SWAP2 SWAP1 SWAP2 MUL ADD PUSH1 0x6 DUP2 ADD DUP1 SLOAD PUSH1 0xFF PUSH1 0xA0 SHL NOT AND PUSH1 0x1 PUSH1 0xA1 SHL OR SWAP1 SSTORE PUSH1 0x40 MLOAD SWAP1 SWAP3 POP DUP7 SWAP2 PUSH32 0x6207DF80804540A4B62858818B8B76ADD067070ECBB89CCE5CF34D457E9E80A2 SWAP2 LOG2 PUSH2 0x5EE DUP2 PUSH2 0x1E39 JUMP JUMPDEST POP POP PUSH1 0x1 PUSH1 0x0 SSTORE POP POP POP JUMP JUMPDEST PUSH2 0x602 PUSH2 0x1E65 JUMP JUMPDEST PUSH1 0x1 PUSH1 0x1 PUSH1 0xA0 SHL SUB AND PUSH2 0x613 PUSH2 0xF2F JUMP JUMPDEST PUSH1 0x1 PUSH1 0x1 PUSH1 0xA0 SHL SUB AND EQ PUSH2 0x639 JUMPI PUSH1 0x40 MLOAD PUSH3 0x461BCD PUSH1 0xE5 SHL DUP2 MSTORE PUSH1 0x4 ADD PUSH2 0x44A SWAP1 PUSH2 0x27D4 JUMP JUMPDEST PUSH1 0x0 JUMPDEST DUP2 DUP2 LT ISZERO PUSH2 0x727 JUMPI PUSH1 0x1 PUSH1 0x6 PUSH1 0x0 DUP6 DUP6 DUP6 DUP2 DUP2 LT PUSH2 0x66A JUMPI PUSH4 0x4E487B71 PUSH1 0xE0 SHL PUSH1 0x0 MSTORE PUSH1 0x32 PUSH1 0x4 MSTORE PUSH1 0x24 PUSH1 0x0 REVERT JUMPDEST SWAP1 POP PUSH1 0x20 MUL ADD PUSH1 0x20 DUP2 ADD SWAP1 PUSH2 0x67F SWAP2 SWAP1 PUSH2 0x230D JUMP JUMPDEST PUSH1 0x1 PUSH1 0x1 PUSH1 0xA0 SHL SUB AND DUP2 MSTORE PUSH1 0x20 DUP2 ADD SWAP2 SWAP1 SWAP2 MSTORE PUSH1 0x40 ADD PUSH1 0x0 KECCAK256 DUP1 SLOAD PUSH1 0xFF NOT AND SWAP2 ISZERO ISZERO SWAP2 SWAP1 SWAP2 OR SWAP1 SSTORE PUSH32 0xC61E61C454D829D6739BFAB76153AD5AF101AAB7439205403AE5E3DFAC8EAFF4 DUP4 DUP4 DUP4 DUP2 DUP2 LT PUSH2 0x6E8 JUMPI PUSH4 0x4E487B71 PUSH1 0xE0 SHL PUSH1 0x0 MSTORE PUSH1 0x32 PUSH1 0x4 MSTORE PUSH1 0x24 PUSH1 0x0 REVERT JUMPDEST SWAP1 POP PUSH1 0x20 MUL ADD PUSH1 0x20 DUP2 ADD SWAP1 PUSH2 0x6FD SWAP2 SWAP1 PUSH2 0x230D JUMP JUMPDEST PUSH1 0x1 PUSH1 0x40 MLOAD PUSH2 0x70D SWAP3 SWAP2 SWAP1 PUSH2 0x2524 JUMP JUMPDEST PUSH1 0x40 MLOAD DUP1 SWAP2 SUB SWAP1 LOG1 DUP1 PUSH2 0x71F DUP2 PUSH2 0x2A29 JUMP JUMPDEST SWAP2 POP POP PUSH2 0x63C JUMP JUMPDEST POP POP POP JUMP JUMPDEST PUSH1 0x0 DUP2 JUMP JUMPDEST PUSH2 0x739 PUSH2 0x1E65 JUMP JUMPDEST PUSH1 0x1 PUSH1 0x1 PUSH1 0xA0 SHL SUB AND PUSH2 0x74A PUSH2 0xF2F JUMP JUMPDEST PUSH1 0x1 PUSH1 0x1 PUSH1 0xA0 SHL SUB AND EQ PUSH2 0x770 JUMPI PUSH1 0x40 MLOAD PUSH3 0x461BCD PUSH1 0xE5 SHL DUP2 MSTORE PUSH1 0x4 ADD PUSH2 0x44A SWAP1 PUSH2 0x27D4 JUMP JUMPDEST PUSH2 0x778 PUSH2 0x1E69 JUMP JUMPDEST JUMP JUMPDEST PUSH1 0x2 SLOAD PUSH1 0x1 PUSH1 0x1 PUSH1 0xA0 SHL SUB AND DUP2 JUMP JUMPDEST PUSH1 0x4 PUSH1 0x20 SWAP1 DUP2 MSTORE PUSH1 0x0 SWAP3 DUP4 MSTORE PUSH1 0x40 DUP1 DUP5 KECCAK256 SWAP1 SWAP2 MSTORE SWAP1 DUP3 MSTORE SWAP1 KECCAK256 SLOAD DUP2 JUMP JUMPDEST PUSH1 0x2 DUP2 JUMP JUMPDEST PUSH1 0x1 SLOAD PUSH1 0x1 PUSH1 0xA0 SHL SWAP1 DIV PUSH1 0xFF AND SWAP1 JUMP JUMPDEST PUSH1 0x6 PUSH1 0x20 MSTORE PUSH1 0x0 SWAP1 DUP2 MSTORE PUSH1 0x40 SWAP1 KECCAK256 SLOAD PUSH1 0xFF AND DUP2 JUMP JUMPDEST PUSH2 0x7D8 PUSH2 0x1E65 JUMP JUMPDEST PUSH1 0x1 PUSH1 0x1 PUSH1 0xA0 SHL SUB AND PUSH2 0x7E9 PUSH2 0xF2F JUMP JUMPDEST PUSH1 0x1 PUSH1 0x1 PUSH1 0xA0 SHL SUB AND EQ PUSH2 0x80F JUMPI PUSH1 0x40 MLOAD PUSH3 0x461BCD PUSH1 0xE5 SHL DUP2 MSTORE PUSH1 0x4 ADD PUSH2 0x44A SWAP1 PUSH2 0x27D4 JUMP JUMPDEST PUSH2 0x778 PUSH1 0x0 PUSH2 0x1EDA JUMP JUMPDEST PUSH1 0x2 PUSH1 0x0 SLOAD EQ ISZERO PUSH2 0x83C JUMPI PUSH1 0x40 MLOAD PUSH3 0x461BCD PUSH1 0xE5 SHL DUP2 MSTORE PUSH1 0x4 ADD PUSH2 0x44A SWAP1 PUSH2 0x28C7 JUMP JUMPDEST PUSH1 0x2 PUSH1 0x0 SSTORE PUSH2 0x849 PUSH2 0x7AB JUMP JUMPDEST ISZERO PUSH2 0x866 JUMPI PUSH1 0x40 MLOAD PUSH3 0x461BCD PUSH1 0xE5 SHL DUP2 MSTORE PUSH1 0x4 ADD PUSH2 0x44A SWAP1 PUSH2 0x2765 JUMP JUMPDEST PUSH1 0x1 PUSH1 0x1 PUSH1 0xA0 SHL SUB DUP6 AND PUSH1 0x0 SWAP1 DUP2 MSTORE PUSH1 0x6 PUSH1 0x20 MSTORE PUSH1 0x40 SWAP1 KECCAK256 SLOAD DUP6 SWAP1 PUSH1 0xFF AND ISZERO PUSH2 0x8A1 JUMPI PUSH1 0x40 MLOAD PUSH3 0x461BCD PUSH1 0xE5 SHL DUP2 MSTORE PUSH1 0x4 ADD PUSH2 0x44A SWAP1 PUSH2 0x2641 JUMP JUMPDEST PUSH1 0x0 DUP1 PUSH1 0xFF DUP7 AND PUSH2 0xA7E JUMPI POP POP PUSH1 0x40 DUP1 MLOAD PUSH2 0x120 DUP2 ADD DUP3 MSTORE DUP7 DUP2 MSTORE PUSH1 0x1 PUSH1 0x1 PUSH1 0xA0 SHL SUB DUP1 DUP10 AND PUSH1 0x20 DUP4 ADD SWAP1 DUP2 MSTORE PUSH1 0x0 SWAP4 DUP4 ADD DUP5 DUP2 MSTORE PUSH1 0x60 DUP5 ADD DUP9 DUP2 MSTORE PUSH1 0x80 DUP6 ADD DUP7 DUP2 MSTORE PUSH1 0xA0 DUP7 ADD DUP8 DUP2 MSTORE CALLER PUSH1 0xC0 DUP9 ADD SWAP1 DUP2 MSTORE PUSH1 0xE0 DUP9 ADD DUP10 DUP2 MSTORE PUSH2 0x100 DUP10 ADD DUP11 DUP2 MSTORE PUSH1 0x3 DUP1 SLOAD PUSH1 0x1 DUP2 ADD DUP3 SSTORE SWAP1 DUP13 MSTORE SWAP10 MLOAD PUSH1 0x7 SWAP1 SWAP11 MUL PUSH32 0xC2575A0E9E593C00F959F8C92F12DB2869C3395A3B0502D05E2516446F71F85B DUP2 ADD SWAP11 SWAP1 SWAP11 SSTORE SWAP7 MLOAD PUSH32 0xC2575A0E9E593C00F959F8C92F12DB2869C3395A3B0502D05E2516446F71F85C DUP11 ADD DUP1 SLOAD SWAP8 MLOAD PUSH1 0xFF SWAP1 DUP2 AND PUSH1 0x1 PUSH1 0xA0 SHL SWAP1 DUP2 MUL PUSH1 0xFF PUSH1 0xA0 SHL NOT SWAP5 DUP14 AND PUSH1 0x1 PUSH1 0x1 PUSH1 0xA0 SHL SUB NOT SWAP12 DUP13 AND OR DUP6 AND OR SWAP1 SWAP3 SSTORE SWAP7 MLOAD PUSH32 0xC2575A0E9E593C00F959F8C92F12DB2869C3395A3B0502D05E2516446F71F85D DUP13 ADD SSTORE SWAP5 MLOAD PUSH32 0xC2575A0E9E593C00F959F8C92F12DB2869C3395A3B0502D05E2516446F71F85E DUP12 ADD SSTORE SWAP3 MLOAD PUSH32 0xC2575A0E9E593C00F959F8C92F12DB2869C3395A3B0502D05E2516446F71F85F DUP11 ADD SSTORE SWAP1 MLOAD PUSH32 0xC2575A0E9E593C00F959F8C92F12DB2869C3395A3B0502D05E2516446F71F860 DUP10 ADD DUP1 SLOAD SWAP2 DUP10 AND SWAP2 DUP8 AND SWAP2 SWAP1 SWAP2 OR SWAP1 SSTORE MLOAD PUSH32 0xC2575A0E9E593C00F959F8C92F12DB2869C3395A3B0502D05E2516446F71F861 SWAP1 SWAP8 ADD DUP1 SLOAD SWAP6 MLOAD SWAP1 SWAP4 AND SWAP1 SWAP2 MUL SWAP6 SWAP1 SWAP5 AND SWAP3 SWAP1 SWAP2 AND SWAP2 SWAP1 SWAP2 OR SWAP1 SWAP2 AND SWAP2 SWAP1 SWAP2 OR SWAP1 SSTORE DUP1 PUSH2 0xC52 JUMP JUMPDEST TIMESTAMP SWAP2 POP PUSH2 0xA8B DUP5 DUP4 PUSH2 0x29BB JUMP JUMPDEST PUSH1 0x40 DUP1 MLOAD PUSH2 0x120 DUP2 ADD DUP3 MSTORE DUP10 DUP2 MSTORE PUSH1 0x1 PUSH1 0x1 PUSH1 0xA0 SHL SUB DUP1 DUP13 AND PUSH1 0x20 DUP4 ADD SWAP1 DUP2 MSTORE PUSH1 0x1 SWAP4 DUP4 ADD DUP5 DUP2 MSTORE PUSH1 0x60 DUP5 ADD DUP12 DUP2 MSTORE PUSH1 0x80 DUP6 ADD DUP10 DUP2 MSTORE PUSH1 0xA0 DUP7 ADD DUP9 DUP2 MSTORE CALLER PUSH1 0xC0 DUP9 ADD SWAP1 DUP2 MSTORE PUSH1 0x0 PUSH1 0xE0 DUP10 ADD DUP2 DUP2 MSTORE PUSH2 0x100 DUP11 ADD DUP3 DUP2 MSTORE PUSH1 0x3 DUP1 SLOAD SWAP13 DUP14 ADD DUP2 SSTORE SWAP1 SWAP3 MSTORE SWAP9 MLOAD PUSH1 0x7 SWAP1 SWAP11 MUL PUSH32 0xC2575A0E9E593C00F959F8C92F12DB2869C3395A3B0502D05E2516446F71F85B DUP2 ADD SWAP11 SWAP1 SWAP11 SSTORE SWAP6 MLOAD PUSH32 0xC2575A0E9E593C00F959F8C92F12DB2869C3395A3B0502D05E2516446F71F85C DUP11 ADD DUP1 SLOAD SWAP7 MLOAD PUSH1 0xFF SWAP1 DUP2 AND PUSH1 0x1 PUSH1 0xA0 SHL SWAP1 DUP2 MUL PUSH1 0xFF PUSH1 0xA0 SHL NOT SWAP5 DUP13 AND PUSH1 0x1 PUSH1 0x1 PUSH1 0xA0 SHL SUB NOT SWAP11 DUP12 AND OR DUP6 AND OR SWAP1 SWAP3 SSTORE SWAP6 MLOAD PUSH32 0xC2575A0E9E593C00F959F8C92F12DB2869C3395A3B0502D05E2516446F71F85D DUP13 ADD SSTORE SWAP4 MLOAD PUSH32 0xC2575A0E9E593C00F959F8C92F12DB2869C3395A3B0502D05E2516446F71F85E DUP12 ADD SSTORE SWAP2 MLOAD PUSH32 0xC2575A0E9E593C00F959F8C92F12DB2869C3395A3B0502D05E2516446F71F85F DUP11 ADD SSTORE MLOAD PUSH32 0xC2575A0E9E593C00F959F8C92F12DB2869C3395A3B0502D05E2516446F71F860 DUP10 ADD DUP1 SLOAD SWAP2 DUP9 AND SWAP2 DUP7 AND SWAP2 SWAP1 SWAP2 OR SWAP1 SSTORE SWAP6 MLOAD PUSH32 0xC2575A0E9E593C00F959F8C92F12DB2869C3395A3B0502D05E2516446F71F861 SWAP1 SWAP8 ADD DUP1 SLOAD SWAP5 MLOAD SWAP1 SWAP3 AND MUL SWAP6 SWAP1 SWAP4 AND SWAP2 AND OR SWAP1 SWAP2 AND SWAP2 SWAP1 SWAP2 OR SWAP1 SSTORE SWAP1 POP JUMPDEST PUSH1 0x3 SLOAD PUSH1 0x0 SWAP1 PUSH2 0xC64 SWAP1 PUSH1 0x1 SWAP1 PUSH2 0x2A12 JUMP JUMPDEST SWAP1 POP DUP8 DUP10 PUSH1 0x1 PUSH1 0x1 PUSH1 0xA0 SHL SUB AND CALLER PUSH1 0x1 PUSH1 0x1 PUSH1 0xA0 SHL SUB AND PUSH32 0x6E05ACBB984C50B6749A20F11037656445C275885B76C3F71C9A58B48D4CDAA0 DUP11 DUP11 DUP9 DUP9 PUSH1 0x0 DUP10 PUSH1 0x40 MLOAD PUSH2 0xCB5 SWAP7 SWAP6 SWAP5 SWAP4 SWAP3 SWAP2 SWAP1 PUSH2 0x2986 JUMP JUMPDEST PUSH1 0x40 MLOAD DUP1 SWAP2 SUB SWAP1 LOG4 CALLER PUSH2 0xCC7 DUP3 PUSH2 0x1204 JUMP JUMPDEST PUSH1 0x1 PUSH1 0x1 PUSH1 0xA0 SHL SUB AND EQ PUSH2 0xCED JUMPI PUSH1 0x40 MLOAD PUSH3 0x461BCD PUSH1 0xE5 SHL DUP2 MSTORE PUSH1 0x4 ADD PUSH2 0x44A SWAP1 PUSH2 0x259B JUMP JUMPDEST PUSH2 0xCF7 DUP2 CALLER PUSH2 0x1CE2 JUMP JUMPDEST PUSH2 0xD13 JUMPI PUSH1 0x40 MLOAD PUSH3 0x461BCD PUSH1 0xE5 SHL DUP2 MSTORE PUSH1 0x4 ADD PUSH2 0x44A SWAP1 PUSH2 0x266B JUMP JUMPDEST PUSH2 0xD1D DUP10 DUP10 PUSH2 0x1F2C JUMP JUMPDEST PUSH1 0x1 PUSH1 0x1 PUSH1 0xA0 SHL SUB SWAP1 SWAP9 AND PUSH1 0x0 SWAP1 DUP2 MSTORE PUSH1 0x4 PUSH1 0x20 SWAP1 DUP2 MSTORE PUSH1 0x40 DUP1 DUP4 KECCAK256 SWAP10 DUP4 MSTORE SWAP9 SWAP1 MSTORE SWAP7 DUP8 KECCAK256 SWAP8 SWAP1 SWAP8 SSTORE POP POP PUSH1 0x1 SWAP1 SWAP4 SSTORE POP POP POP POP JUMP JUMPDEST PUSH2 0xD5B PUSH2 0x1E65 JUMP JUMPDEST PUSH1 0x1 PUSH1 0x1 PUSH1 0xA0 SHL SUB AND PUSH2 0xD6C PUSH2 0xF2F JUMP JUMPDEST PUSH1 0x1 PUSH1 0x1 PUSH1 0xA0 SHL SUB AND EQ PUSH2 0xD92 JUMPI PUSH1 0x40 MLOAD PUSH3 0x461BCD PUSH1 0xE5 SHL DUP2 MSTORE PUSH1 0x4 ADD PUSH2 0x44A SWAP1 PUSH2 0x27D4 JUMP JUMPDEST PUSH2 0x778 PUSH2 0x1FFC JUMP JUMPDEST PUSH1 0x3 SLOAD PUSH1 0x0 SWAP1 DUP3 LT PUSH2 0xDAE JUMPI POP PUSH1 0x0 PUSH2 0xEB6 JUMP JUMPDEST PUSH1 0x0 PUSH1 0x3 DUP4 DUP2 SLOAD DUP2 LT PUSH2 0xDD1 JUMPI PUSH4 0x4E487B71 PUSH1 0xE0 SHL PUSH1 0x0 MSTORE PUSH1 0x32 PUSH1 0x4 MSTORE PUSH1 0x24 PUSH1 0x0 REVERT JUMPDEST PUSH1 0x0 SWAP2 DUP3 MSTORE PUSH1 0x20 SWAP1 SWAP2 KECCAK256 PUSH1 0x6 PUSH1 0x7 SWAP1 SWAP3 MUL ADD SWAP1 DUP2 ADD SLOAD SWAP1 SWAP2 POP PUSH1 0x1 PUSH1 0xA0 SHL SWAP1 DIV PUSH1 0xFF AND ISZERO DUP1 ISZERO PUSH2 0xE15 JUMPI POP PUSH1 0x5 DUP2 ADD SLOAD PUSH2 0xE15 SWAP1 DUP5 SWAP1 PUSH1 0x1 PUSH1 0x1 PUSH1 0xA0 SHL SUB AND PUSH2 0x1CE2 JUMP JUMPDEST DUP1 ISZERO PUSH2 0xEB2 JUMPI POP PUSH1 0x5 DUP2 ADD SLOAD PUSH1 0x1 DUP3 ADD SLOAD DUP3 SLOAD PUSH1 0x40 MLOAD PUSH4 0x31A9108F PUSH1 0xE1 SHL DUP2 MSTORE PUSH1 0x1 PUSH1 0x1 PUSH1 0xA0 SHL SUB SWAP4 DUP5 AND SWAP4 SWAP1 SWAP3 AND SWAP2 PUSH4 0x6352211E SWAP2 PUSH2 0xE57 SWAP2 PUSH1 0x4 ADD PUSH2 0x28FE JUMP JUMPDEST PUSH1 0x20 PUSH1 0x40 MLOAD DUP1 DUP4 SUB DUP2 DUP7 DUP1 EXTCODESIZE ISZERO DUP1 ISZERO PUSH2 0xE6F JUMPI PUSH1 0x0 DUP1 REVERT JUMPDEST POP GAS STATICCALL ISZERO DUP1 ISZERO PUSH2 0xE83 JUMPI RETURNDATASIZE PUSH1 0x0 DUP1 RETURNDATACOPY RETURNDATASIZE PUSH1 0x0 REVERT JUMPDEST POP POP POP POP PUSH1 0x40 MLOAD RETURNDATASIZE PUSH1 0x1F NOT PUSH1 0x1F DUP3 ADD AND DUP3 ADD DUP1 PUSH1 0x40 MSTORE POP DUP2 ADD SWAP1 PUSH2 0xEA7 SWAP2 SWAP1 PUSH2 0x2330 JUMP JUMPDEST PUSH1 0x1 PUSH1 0x1 PUSH1 0xA0 SHL SUB AND EQ JUMPDEST SWAP2 POP POP JUMPDEST SWAP2 SWAP1 POP JUMP JUMPDEST PUSH1 0x3 DUP2 DUP2 SLOAD DUP2 LT PUSH2 0xECB JUMPI PUSH1 0x0 DUP1 REVERT JUMPDEST PUSH1 0x0 SWAP2 DUP3 MSTORE PUSH1 0x20 SWAP1 SWAP2 KECCAK256 PUSH1 0x7 SWAP1 SWAP2 MUL ADD DUP1 SLOAD PUSH1 0x1 DUP3 ADD SLOAD PUSH1 0x2 DUP4 ADD SLOAD PUSH1 0x3 DUP5 ADD SLOAD PUSH1 0x4 DUP6 ADD SLOAD PUSH1 0x5 DUP7 ADD SLOAD PUSH1 0x6 SWAP1 SWAP7 ADD SLOAD SWAP5 SWAP7 POP PUSH1 0x1 PUSH1 0x1 PUSH1 0xA0 SHL SUB DUP1 DUP6 AND SWAP7 PUSH1 0xFF PUSH1 0x1 PUSH1 0xA0 SHL SWAP7 DUP8 SWAP1 DIV DUP2 AND SWAP8 SWAP6 SWAP7 SWAP5 SWAP6 SWAP4 SWAP5 SWAP2 DUP4 AND SWAP4 SWAP3 DUP4 AND SWAP3 SWAP2 SWAP1 SWAP2 DIV AND DUP10 JUMP JUMPDEST PUSH1 0x1 SLOAD PUSH1 0x1 PUSH1 0x1 PUSH1 0xA0 SHL SUB AND SWAP1 JUMP JUMPDEST PUSH1 0x2 PUSH1 0x0 SLOAD EQ ISZERO PUSH2 0xF61 JUMPI PUSH1 0x40 MLOAD PUSH3 0x461BCD PUSH1 0xE5 SHL DUP2 MSTORE PUSH1 0x4 ADD PUSH2 0x44A SWAP1 PUSH2 0x28C7 JUMP JUMPDEST PUSH1 0x2 PUSH1 0x0 SSTORE DUP1 DUP1 ISZERO DUP1 ISZERO SWAP1 PUSH2 0xF77 JUMPI POP PUSH1 0x3 SLOAD DUP2 LT JUMPDEST PUSH2 0xF93 JUMPI PUSH1 0x40 MLOAD PUSH3 0x461BCD PUSH1 0xE5 SHL DUP2 MSTORE PUSH1 0x4 ADD PUSH2 0x44A SWAP1 PUSH2 0x2809 JUMP JUMPDEST DUP2 PUSH1 0x0 PUSH1 0xFF AND PUSH1 0x3 DUP3 DUP2 SLOAD DUP2 LT PUSH2 0xFBA JUMPI PUSH4 0x4E487B71 PUSH1 0xE0 SHL PUSH1 0x0 MSTORE PUSH1 0x32 PUSH1 0x4 MSTORE PUSH1 0x24 PUSH1 0x0 REVERT JUMPDEST PUSH1 0x0 SWAP2 DUP3 MSTORE PUSH1 0x20 SWAP1 SWAP2 KECCAK256 PUSH1 0x7 SWAP1 SWAP2 MUL ADD PUSH1 0x6 ADD SLOAD PUSH1 0x1 PUSH1 0xA0 SHL SWAP1 DIV PUSH1 0xFF AND EQ PUSH2 0xFF5 JUMPI PUSH1 0x40 MLOAD PUSH3 0x461BCD PUSH1 0xE5 SHL DUP2 MSTORE PUSH1 0x4 ADD PUSH2 0x44A SWAP1 PUSH2 0x256D JUMP JUMPDEST DUP3 PUSH1 0x0 PUSH1 0x3 DUP3 DUP2 SLOAD DUP2 LT PUSH2 0x1019 JUMPI PUSH4 0x4E487B71 PUSH1 0xE0 SHL PUSH1 0x0 MSTORE PUSH1 0x32 PUSH1 0x4 MSTORE PUSH1 0x24 PUSH1 0x0 REVERT JUMPDEST PUSH1 0x0 SWAP2 DUP3 MSTORE PUSH1 0x20 DUP1 DUP4 KECCAK256 PUSH1 0x1 PUSH1 0x7 SWAP1 SWAP4 MUL ADD SWAP2 DUP3 ADD SLOAD PUSH1 0x1 PUSH1 0x1 PUSH1 0xA0 SHL SUB AND DUP4 MSTORE PUSH1 0x6 SWAP1 MSTORE PUSH1 0x40 SWAP1 SWAP2 KECCAK256 SLOAD SWAP1 SWAP2 POP PUSH1 0xFF AND ISZERO PUSH2 0x1067 JUMPI PUSH1 0x40 MLOAD PUSH3 0x461BCD PUSH1 0xE5 SHL DUP2 MSTORE PUSH1 0x4 ADD PUSH2 0x44A SWAP1 PUSH2 0x2641 JUMP JUMPDEST PUSH2 0x106F PUSH2 0x7AB JUMP JUMPDEST ISZERO PUSH2 0x108C JUMPI PUSH1 0x40 MLOAD PUSH3 0x461BCD PUSH1 0xE5 SHL DUP2 MSTORE PUSH1 0x4 ADD PUSH2 0x44A SWAP1 PUSH2 0x2765 JUMP JUMPDEST PUSH1 0x0 PUSH1 0x3 DUP7 DUP2 SLOAD DUP2 LT PUSH2 0x10AF JUMPI PUSH4 0x4E487B71 PUSH1 0xE0 SHL PUSH1 0x0 MSTORE PUSH1 0x32 PUSH1 0x4 MSTORE PUSH1 0x24 PUSH1 0x0 REVERT JUMPDEST PUSH1 0x0 SWAP2 DUP3 MSTORE PUSH1 0x20 SWAP1 SWAP2 KECCAK256 PUSH1 0x7 SWAP1 SWAP2 MUL ADD PUSH1 0x5 DUP2 ADD SLOAD SWAP1 SWAP2 POP PUSH1 0x1 PUSH1 0x1 PUSH1 0xA0 SHL SUB AND PUSH2 0x10D9 DUP8 PUSH2 0x1204 JUMP JUMPDEST PUSH1 0x1 PUSH1 0x1 PUSH1 0xA0 SHL SUB AND EQ PUSH2 0x10FF JUMPI PUSH1 0x40 MLOAD PUSH3 0x461BCD PUSH1 0xE5 SHL DUP2 MSTORE PUSH1 0x4 ADD PUSH2 0x44A SWAP1 PUSH2 0x278F JUMP JUMPDEST PUSH1 0x5 DUP2 ADD SLOAD PUSH2 0x1118 SWAP1 DUP8 SWAP1 PUSH1 0x1 PUSH1 0x1 PUSH1 0xA0 SHL SUB AND PUSH2 0x1CE2 JUMP JUMPDEST PUSH2 0x1134 JUMPI PUSH1 0x40 MLOAD PUSH3 0x461BCD PUSH1 0xE5 SHL DUP2 MSTORE PUSH1 0x4 ADD PUSH2 0x44A SWAP1 PUSH2 0x266B JUMP JUMPDEST DUP1 PUSH1 0x2 ADD SLOAD CALLVALUE LT ISZERO PUSH2 0x1158 JUMPI PUSH1 0x40 MLOAD PUSH3 0x461BCD PUSH1 0xE5 SHL DUP2 MSTORE PUSH1 0x4 ADD PUSH2 0x44A SWAP1 PUSH2 0x2618 JUMP JUMPDEST PUSH1 0x0 DUP7 DUP2 MSTORE PUSH1 0x5 PUSH1 0x20 SWAP1 DUP2 MSTORE PUSH1 0x40 DUP1 DUP4 KECCAK256 DUP2 MLOAD DUP1 DUP4 ADD DUP4 MSTORE CALLER DUP1 DUP3 MSTORE CALLVALUE DUP3 DUP7 ADD DUP2 DUP2 MSTORE DUP5 SLOAD PUSH1 0x1 DUP1 DUP3 ADD DUP8 SSTORE DUP7 DUP11 MSTORE SWAP8 SWAP1 SWAP9 KECCAK256 DUP5 MLOAD PUSH1 0x2 SWAP1 SWAP10 MUL ADD DUP1 SLOAD PUSH1 0x1 PUSH1 0x1 PUSH1 0xA0 SHL SUB NOT AND PUSH1 0x1 PUSH1 0x1 PUSH1 0xA0 SHL SUB SWAP1 SWAP10 AND SWAP9 SWAP1 SWAP9 OR DUP9 SSTORE MLOAD SWAP7 SWAP1 SWAP6 ADD SWAP6 SWAP1 SWAP6 SSTORE SWAP2 MLOAD SWAP1 SWAP4 SWAP2 SWAP3 PUSH32 0x842D2AC3C24F62F502B949D8099647C7C74CC52D7897769455905A6AECC27C76 SWAP3 PUSH2 0x11ED SWAP3 DUP13 SWAP3 SWAP1 PUSH2 0x2907 JUMP JUMPDEST PUSH1 0x40 MLOAD DUP1 SWAP2 SUB SWAP1 LOG1 POP POP PUSH1 0x1 PUSH1 0x0 SSTORE POP POP POP POP POP POP JUMP JUMPDEST PUSH1 0x0 DUP1 PUSH1 0x3 DUP4 DUP2 SLOAD DUP2 LT PUSH2 0x1228 JUMPI PUSH4 0x4E487B71 PUSH1 0xE0 SHL PUSH1 0x0 MSTORE PUSH1 0x32 PUSH1 0x4 MSTORE PUSH1 0x24 PUSH1 0x0 REVERT JUMPDEST PUSH1 0x0 SWAP2 DUP3 MSTORE PUSH1 0x20 SWAP1 SWAP2 KECCAK256 PUSH1 0x7 SWAP1 SWAP2 MUL ADD PUSH1 0x1 DUP2 ADD SLOAD DUP2 SLOAD PUSH1 0x40 MLOAD PUSH4 0x31A9108F PUSH1 0xE1 SHL DUP2 MSTORE SWAP3 SWAP4 POP PUSH1 0x1 PUSH1 0x1 PUSH1 0xA0 SHL SUB SWAP1 SWAP2 AND SWAP2 PUSH4 0x6352211E SWAP2 PUSH2 0x126D SWAP2 PUSH1 0x4 ADD PUSH2 0x28FE JUMP JUMPDEST PUSH1 0x20 PUSH1 0x40 MLOAD DUP1 DUP4 SUB DUP2 DUP7 DUP1 EXTCODESIZE ISZERO DUP1 ISZERO PUSH2 0x1285 JUMPI PUSH1 0x0 DUP1 REVERT JUMPDEST POP GAS STATICCALL ISZERO DUP1 ISZERO PUSH2 0x1299 JUMPI RETURNDATASIZE PUSH1 0x0 DUP1 RETURNDATACOPY RETURNDATASIZE PUSH1 0x0 REVERT JUMPDEST POP POP POP POP PUSH1 0x40 MLOAD RETURNDATASIZE PUSH1 0x1F NOT PUSH1 0x1F DUP3 ADD AND DUP3 ADD DUP1 PUSH1 0x40 MSTORE POP DUP2 ADD SWAP1 PUSH2 0xEB2 SWAP2 SWAP1 PUSH2 0x2330 JUMP JUMPDEST PUSH2 0x12C5 PUSH2 0x1E65 JUMP JUMPDEST PUSH1 0x1 PUSH1 0x1 PUSH1 0xA0 SHL SUB AND PUSH2 0x12D6 PUSH2 0xF2F JUMP JUMPDEST PUSH1 0x1 PUSH1 0x1 PUSH1 0xA0 SHL SUB AND EQ PUSH2 0x12FC JUMPI PUSH1 0x40 MLOAD PUSH3 0x461BCD PUSH1 0xE5 SHL DUP2 MSTORE PUSH1 0x4 ADD PUSH2 0x44A SWAP1 PUSH2 0x27D4 JUMP JUMPDEST PUSH1 0x0 JUMPDEST DUP2 DUP2 LT ISZERO PUSH2 0x727 JUMPI PUSH1 0x6 PUSH1 0x0 DUP5 DUP5 DUP5 DUP2 DUP2 LT PUSH2 0x132B JUMPI PUSH4 0x4E487B71 PUSH1 0xE0 SHL PUSH1 0x0 MSTORE PUSH1 0x32 PUSH1 0x4 MSTORE PUSH1 0x24 PUSH1 0x0 REVERT JUMPDEST SWAP1 POP PUSH1 0x20 MUL ADD PUSH1 0x20 DUP2 ADD SWAP1 PUSH2 0x1340 SWAP2 SWAP1 PUSH2 0x230D JUMP JUMPDEST PUSH1 0x1 PUSH1 0x1 PUSH1 0xA0 SHL SUB AND DUP2 MSTORE PUSH1 0x20 DUP2 ADD SWAP2 SWAP1 SWAP2 MSTORE PUSH1 0x40 ADD PUSH1 0x0 KECCAK256 DUP1 SLOAD PUSH1 0xFF NOT AND SWAP1 SSTORE PUSH32 0xC61E61C454D829D6739BFAB76153AD5AF101AAB7439205403AE5E3DFAC8EAFF4 DUP4 DUP4 DUP4 DUP2 DUP2 LT PUSH2 0x13A2 JUMPI PUSH4 0x4E487B71 PUSH1 0xE0 SHL PUSH1 0x0 MSTORE PUSH1 0x32 PUSH1 0x4 MSTORE PUSH1 0x24 PUSH1 0x0 REVERT JUMPDEST SWAP1 POP PUSH1 0x20 MUL ADD PUSH1 0x20 DUP2 ADD SWAP1 PUSH2 0x13B7 SWAP2 SWAP1 PUSH2 0x230D JUMP JUMPDEST PUSH1 0x0 PUSH1 0x40 MLOAD PUSH2 0x13C7 SWAP3 SWAP2 SWAP1 PUSH2 0x2524 JUMP JUMPDEST PUSH1 0x40 MLOAD DUP1 SWAP2 SUB SWAP1 LOG1 DUP1 PUSH2 0x13D9 DUP2 PUSH2 0x2A29 JUMP JUMPDEST SWAP2 POP POP PUSH2 0x12FF JUMP JUMPDEST PUSH2 0x13E9 PUSH2 0x1E65 JUMP JUMPDEST PUSH1 0x1 PUSH1 0x1 PUSH1 0xA0 SHL SUB AND PUSH2 0x13FA PUSH2 0xF2F JUMP JUMPDEST PUSH1 0x1 PUSH1 0x1 PUSH1 0xA0 SHL SUB AND EQ PUSH2 0x1420 JUMPI PUSH1 0x40 MLOAD PUSH3 0x461BCD PUSH1 0xE5 SHL DUP2 MSTORE PUSH1 0x4 ADD PUSH2 0x44A SWAP1 PUSH2 0x27D4 JUMP JUMPDEST PUSH1 0x2 DUP1 SLOAD PUSH1 0x1 PUSH1 0x1 PUSH1 0xA0 SHL SUB NOT AND PUSH1 0x1 PUSH1 0x1 PUSH1 0xA0 SHL SUB DUP4 DUP2 AND SWAP2 SWAP1 SWAP2 OR SWAP2 DUP3 SWAP1 SSTORE PUSH1 0x40 MLOAD PUSH32 0xFC6FF37C6557C4E2CC73BDB3EA0A0F34884527E080EC6D9969CC813CFF2A95C1 SWAP3 PUSH2 0x1471 SWAP3 AND SWAP1 PUSH2 0x24A6 JUMP JUMPDEST PUSH1 0x40 MLOAD DUP1 SWAP2 SUB SWAP1 LOG1 POP JUMP JUMPDEST PUSH1 0x1 DUP2 JUMP JUMPDEST PUSH1 0x2 PUSH1 0x0 SLOAD EQ ISZERO PUSH2 0x14A4 JUMPI PUSH1 0x40 MLOAD PUSH3 0x461BCD PUSH1 0xE5 SHL DUP2 MSTORE PUSH1 0x4 ADD PUSH2 0x44A SWAP1 PUSH2 0x28C7 JUMP JUMPDEST PUSH1 0x2 PUSH1 0x0 SSTORE DUP1 DUP1 ISZERO DUP1 ISZERO SWAP1 PUSH2 0x14BA JUMPI POP PUSH1 0x3 SLOAD DUP2 LT JUMPDEST PUSH2 0x14D6 JUMPI PUSH1 0x40 MLOAD PUSH3 0x461BCD PUSH1 0xE5 SHL DUP2 MSTORE PUSH1 0x4 ADD PUSH2 0x44A SWAP1 PUSH2 0x2809 JUMP JUMPDEST DUP2 PUSH1 0x0 PUSH1 0xFF AND PUSH1 0x3 DUP3 DUP2 SLOAD DUP2 LT PUSH2 0x14FD JUMPI PUSH4 0x4E487B71 PUSH1 0xE0 SHL PUSH1 0x0 MSTORE PUSH1 0x32 PUSH1 0x4 MSTORE PUSH1 0x24 PUSH1 0x0 REVERT JUMPDEST PUSH1 0x0 SWAP2 DUP3 MSTORE PUSH1 0x20 SWAP1 SWAP2 KECCAK256 PUSH1 0x7 SWAP1 SWAP2 MUL ADD PUSH1 0x6 ADD SLOAD PUSH1 0x1 PUSH1 0xA0 SHL SWAP1 DIV PUSH1 0xFF AND EQ PUSH2 0x1538 JUMPI PUSH1 0x40 MLOAD PUSH3 0x461BCD PUSH1 0xE5 SHL DUP2 MSTORE PUSH1 0x4 ADD PUSH2 0x44A SWAP1 PUSH2 0x256D JUMP JUMPDEST DUP3 PUSH1 0x0 PUSH1 0x3 DUP3 DUP2 SLOAD DUP2 LT PUSH2 0x155C JUMPI PUSH4 0x4E487B71 PUSH1 0xE0 SHL PUSH1 0x0 MSTORE PUSH1 0x32 PUSH1 0x4 MSTORE PUSH1 0x24 PUSH1 0x0 REVERT JUMPDEST PUSH1 0x0 SWAP2 DUP3 MSTORE PUSH1 0x20 DUP1 DUP4 KECCAK256 PUSH1 0x1 PUSH1 0x7 SWAP1 SWAP4 MUL ADD SWAP2 DUP3 ADD SLOAD PUSH1 0x1 PUSH1 0x1 PUSH1 0xA0 SHL SUB AND DUP4 MSTORE PUSH1 0x6 SWAP1 MSTORE PUSH1 0x40 SWAP1 SWAP2 KECCAK256 SLOAD SWAP1 SWAP2 POP PUSH1 0xFF AND ISZERO PUSH2 0x15AA JUMPI PUSH1 0x40 MLOAD PUSH3 0x461BCD PUSH1 0xE5 SHL DUP2 MSTORE PUSH1 0x4 ADD PUSH2 0x44A SWAP1 PUSH2 0x2641 JUMP JUMPDEST PUSH2 0x15B2 PUSH2 0x7AB JUMP JUMPDEST ISZERO PUSH2 0x15CF JUMPI PUSH1 0x40 MLOAD PUSH3 0x461BCD PUSH1 0xE5 SHL DUP2 MSTORE PUSH1 0x4 ADD PUSH2 0x44A SWAP1 PUSH2 0x2765 JUMP JUMPDEST PUSH2 0x15D7 PUSH2 0x1E65 JUMP JUMPDEST PUSH1 0x1 PUSH1 0x1 PUSH1 0xA0 SHL SUB AND PUSH2 0x15E8 PUSH2 0xF2F JUMP JUMPDEST PUSH1 0x1 PUSH1 0x1 PUSH1 0xA0 SHL SUB AND EQ PUSH2 0x160E JUMPI PUSH1 0x40 MLOAD PUSH3 0x461BCD PUSH1 0xE5 SHL DUP2 MSTORE PUSH1 0x4 ADD PUSH2 0x44A SWAP1 PUSH2 0x27D4 JUMP JUMPDEST PUSH1 0x0 PUSH1 0x3 DUP7 DUP2 SLOAD DUP2 LT PUSH2 0x1631 JUMPI PUSH4 0x4E487B71 PUSH1 0xE0 SHL PUSH1 0x0 MSTORE PUSH1 0x32 PUSH1 0x4 MSTORE PUSH1 0x24 PUSH1 0x0 REVERT JUMPDEST PUSH1 0x0 SWAP2 DUP3 MSTORE PUSH1 0x20 SWAP1 SWAP2 KECCAK256 PUSH1 0x7 SWAP1 SWAP2 MUL ADD PUSH1 0x5 DUP2 ADD SLOAD SWAP1 SWAP2 POP PUSH1 0x1 PUSH1 0x1 PUSH1 0xA0 SHL SUB AND PUSH2 0x165B DUP8 PUSH2 0x1204 JUMP JUMPDEST PUSH1 0x1 PUSH1 0x1 PUSH1 0xA0 SHL SUB AND EQ PUSH2 0x1681 JUMPI PUSH1 0x40 MLOAD PUSH3 0x461BCD PUSH1 0xE5 SHL DUP2 MSTORE PUSH1 0x4 ADD PUSH2 0x44A SWAP1 PUSH2 0x278F JUMP JUMPDEST PUSH1 0x5 DUP2 ADD SLOAD PUSH2 0x169A SWAP1 DUP8 SWAP1 PUSH1 0x1 PUSH1 0x1 PUSH1 0xA0 SHL SUB AND PUSH2 0x1CE2 JUMP JUMPDEST PUSH2 0x16B6 JUMPI PUSH1 0x40 MLOAD PUSH3 0x461BCD PUSH1 0xE5 SHL DUP2 MSTORE PUSH1 0x4 ADD PUSH2 0x44A SWAP1 PUSH2 0x266B JUMP JUMPDEST TIMESTAMP DUP2 PUSH1 0x3 ADD SLOAD GT ISZERO PUSH2 0x16DA JUMPI PUSH1 0x40 MLOAD PUSH3 0x461BCD PUSH1 0xE5 SHL DUP2 MSTORE PUSH1 0x4 ADD PUSH2 0x44A SWAP1 PUSH2 0x2837 JUMP JUMPDEST PUSH1 0x1 DUP2 DUP2 ADD SLOAD PUSH1 0x1 PUSH1 0xA0 SHL SWAP1 DIV PUSH1 0xFF AND EQ PUSH2 0x1707 JUMPI PUSH1 0x40 MLOAD PUSH3 0x461BCD PUSH1 0xE5 SHL DUP2 MSTORE PUSH1 0x4 ADD PUSH2 0x44A SWAP1 PUSH2 0x26F7 JUMP JUMPDEST PUSH1 0x0 DUP7 DUP2 MSTORE PUSH1 0x5 PUSH1 0x20 MSTORE PUSH1 0x40 SWAP1 KECCAK256 DUP1 SLOAD ISZERO PUSH2 0x1944 JUMPI PUSH1 0x0 DUP1 DUP3 PUSH1 0x0 DUP2 SLOAD DUP2 LT PUSH2 0x1740 JUMPI PUSH4 0x4E487B71 PUSH1 0xE0 SHL PUSH1 0x0 MSTORE PUSH1 0x32 PUSH1 0x4 MSTORE PUSH1 0x24 PUSH1 0x0 REVERT JUMPDEST SWAP1 PUSH1 0x0 MSTORE PUSH1 0x20 PUSH1 0x0 KECCAK256 SWAP1 PUSH1 0x2 MUL ADD PUSH1 0x1 ADD SLOAD SWAP1 POP PUSH1 0x0 DUP1 SWAP3 POP JUMPDEST DUP4 SLOAD DUP4 LT ISZERO PUSH2 0x17DE JUMPI PUSH1 0x0 DUP5 DUP5 DUP2 SLOAD DUP2 LT PUSH2 0x1785 JUMPI PUSH4 0x4E487B71 PUSH1 0xE0 SHL PUSH1 0x0 MSTORE PUSH1 0x32 PUSH1 0x4 MSTORE PUSH1 0x24 PUSH1 0x0 REVERT JUMPDEST PUSH1 0x0 SWAP2 DUP3 MSTORE PUSH1 0x20 SWAP2 DUP3 SWAP1 KECCAK256 PUSH1 0x40 DUP1 MLOAD DUP1 DUP3 ADD SWAP1 SWAP2 MSTORE PUSH1 0x2 SWAP1 SWAP3 MUL ADD DUP1 SLOAD PUSH1 0x1 PUSH1 0x1 PUSH1 0xA0 SHL SUB AND DUP3 MSTORE PUSH1 0x1 ADD SLOAD SWAP2 DUP2 ADD DUP3 SWAP1 MSTORE SWAP2 POP DUP4 LT ISZERO PUSH2 0x17CB JUMPI DUP1 PUSH1 0x20 ADD MLOAD SWAP3 POP DUP4 SWAP2 POP JUMPDEST POP DUP3 PUSH2 0x17D6 DUP2 PUSH2 0x2A29 JUMP JUMPDEST SWAP4 POP POP PUSH2 0x175A JUMP JUMPDEST PUSH1 0x6 DUP6 ADD DUP1 SLOAD PUSH1 0xFF PUSH1 0xA0 SHL NOT AND PUSH1 0x1 PUSH1 0xA0 SHL OR SWAP1 SSTORE DUP4 SLOAD DUP5 SWAP1 DUP3 SWAP1 DUP2 LT PUSH2 0x1815 JUMPI PUSH4 0x4E487B71 PUSH1 0xE0 SHL PUSH1 0x0 MSTORE PUSH1 0x32 PUSH1 0x4 MSTORE PUSH1 0x24 PUSH1 0x0 REVERT JUMPDEST PUSH1 0x0 SWAP2 DUP3 MSTORE PUSH1 0x20 SWAP1 SWAP2 KECCAK256 PUSH1 0x2 SWAP1 SWAP2 MUL ADD SLOAD PUSH1 0x6 DUP7 ADD DUP1 SLOAD PUSH1 0x1 PUSH1 0x1 PUSH1 0xA0 SHL SUB NOT AND PUSH1 0x1 PUSH1 0x1 PUSH1 0xA0 SHL SUB SWAP1 SWAP3 AND SWAP2 SWAP1 SWAP2 OR SWAP1 SSTORE DUP4 SLOAD DUP5 SWAP1 DUP3 SWAP1 DUP2 LT PUSH2 0x1869 JUMPI PUSH4 0x4E487B71 PUSH1 0xE0 SHL PUSH1 0x0 MSTORE PUSH1 0x32 PUSH1 0x4 MSTORE PUSH1 0x24 PUSH1 0x0 REVERT JUMPDEST SWAP1 PUSH1 0x0 MSTORE PUSH1 0x20 PUSH1 0x0 KECCAK256 SWAP1 PUSH1 0x2 MUL ADD PUSH1 0x1 ADD SLOAD DUP6 PUSH1 0x2 ADD DUP2 SWAP1 SSTORE POP PUSH32 0x751B8EAA5AB4378445B4A8182513B04C4FDE3F043584024E59BD93075F248998 DUP5 DUP3 DUP2 SLOAD DUP2 LT PUSH2 0x18C4 JUMPI PUSH4 0x4E487B71 PUSH1 0xE0 SHL PUSH1 0x0 MSTORE PUSH1 0x32 PUSH1 0x4 MSTORE PUSH1 0x24 PUSH1 0x0 REVERT JUMPDEST PUSH1 0x0 SWAP2 DUP3 MSTORE PUSH1 0x20 SWAP1 SWAP2 KECCAK256 PUSH1 0x2 SWAP1 SWAP2 MUL ADD SLOAD DUP6 SLOAD PUSH1 0x1 PUSH1 0x1 PUSH1 0xA0 SHL SUB SWAP1 SWAP2 AND SWAP1 DUP7 SWAP1 DUP5 SWAP1 DUP2 LT PUSH2 0x1903 JUMPI PUSH4 0x4E487B71 PUSH1 0xE0 SHL PUSH1 0x0 MSTORE PUSH1 0x32 PUSH1 0x4 MSTORE PUSH1 0x24 PUSH1 0x0 REVERT JUMPDEST SWAP1 PUSH1 0x0 MSTORE PUSH1 0x20 PUSH1 0x0 KECCAK256 SWAP1 PUSH1 0x2 MUL ADD PUSH1 0x1 ADD SLOAD DUP13 PUSH1 0x40 MLOAD PUSH2 0x1925 SWAP4 SWAP3 SWAP2 SWAP1 PUSH2 0x24F8 JUMP JUMPDEST PUSH1 0x40 MLOAD DUP1 SWAP2 SUB SWAP1 LOG1 PUSH2 0x1937 DUP11 DUP3 PUSH2 0x205D JUMP JUMPDEST PUSH2 0x1940 DUP6 PUSH2 0x1E39 JUMP JUMPDEST POP POP POP JUMPDEST POP POP PUSH1 0x1 PUSH1 0x0 SSTORE POP POP POP POP POP JUMP JUMPDEST PUSH1 0x2 PUSH1 0x0 SLOAD EQ ISZERO PUSH2 0x1975 JUMPI PUSH1 0x40 MLOAD PUSH3 0x461BCD PUSH1 0xE5 SHL DUP2 MSTORE PUSH1 0x4 ADD PUSH2 0x44A SWAP1 PUSH2 0x28C7 JUMP JUMPDEST PUSH1 0x2 PUSH1 0x0 SSTORE DUP1 DUP1 ISZERO DUP1 ISZERO SWAP1 PUSH2 0x198B JUMPI POP PUSH1 0x3 SLOAD DUP2 LT JUMPDEST PUSH2 0x19A7 JUMPI PUSH1 0x40 MLOAD PUSH3 0x461BCD PUSH1 0xE5 SHL DUP2 MSTORE PUSH1 0x4 ADD PUSH2 0x44A SWAP1 PUSH2 0x2809 JUMP JUMPDEST DUP2 PUSH1 0x0 PUSH1 0xFF AND PUSH1 0x3 DUP3 DUP2 SLOAD DUP2 LT PUSH2 0x19CE JUMPI PUSH4 0x4E487B71 PUSH1 0xE0 SHL PUSH1 0x0 MSTORE PUSH1 0x32 PUSH1 0x4 MSTORE PUSH1 0x24 PUSH1 0x0 REVERT JUMPDEST PUSH1 0x0 SWAP2 DUP3 MSTORE PUSH1 0x20 SWAP1 SWAP2 KECCAK256 PUSH1 0x7 SWAP1 SWAP2 MUL ADD PUSH1 0x6 ADD SLOAD PUSH1 0x1 PUSH1 0xA0 SHL SWAP1 DIV PUSH1 0xFF AND EQ PUSH2 0x1A09 JUMPI PUSH1 0x40 MLOAD PUSH3 0x461BCD PUSH1 0xE5 SHL DUP2 MSTORE PUSH1 0x4 ADD PUSH2 0x44A SWAP1 PUSH2 0x256D JUMP JUMPDEST DUP3 PUSH1 0x0 PUSH1 0x3 DUP3 DUP2 SLOAD DUP2 LT PUSH2 0x1A2D JUMPI PUSH4 0x4E487B71 PUSH1 0xE0 SHL PUSH1 0x0 MSTORE PUSH1 0x32 PUSH1 0x4 MSTORE PUSH1 0x24 PUSH1 0x0 REVERT JUMPDEST PUSH1 0x0 SWAP2 DUP3 MSTORE PUSH1 0x20 DUP1 DUP4 KECCAK256 PUSH1 0x1 PUSH1 0x7 SWAP1 SWAP4 MUL ADD SWAP2 DUP3 ADD SLOAD PUSH1 0x1 PUSH1 0x1 PUSH1 0xA0 SHL SUB AND DUP4 MSTORE PUSH1 0x6 SWAP1 MSTORE PUSH1 0x40 SWAP1 SWAP2 KECCAK256 SLOAD SWAP1 SWAP2 POP PUSH1 0xFF AND ISZERO PUSH2 0x1A7B JUMPI PUSH1 0x40 MLOAD PUSH3 0x461BCD PUSH1 0xE5 SHL DUP2 MSTORE PUSH1 0x4 ADD PUSH2 0x44A SWAP1 PUSH2 0x2641 JUMP JUMPDEST PUSH2 0x1A83 PUSH2 0x7AB JUMP JUMPDEST ISZERO PUSH2 0x1AA0 JUMPI PUSH1 0x40 MLOAD PUSH3 0x461BCD PUSH1 0xE5 SHL DUP2 MSTORE PUSH1 0x4 ADD PUSH2 0x44A SWAP1 PUSH2 0x2765 JUMP JUMPDEST PUSH1 0x0 PUSH1 0x3 DUP7 DUP2 SLOAD DUP2 LT PUSH2 0x1AC3 JUMPI PUSH4 0x4E487B71 PUSH1 0xE0 SHL PUSH1 0x0 MSTORE PUSH1 0x32 PUSH1 0x4 MSTORE PUSH1 0x24 PUSH1 0x0 REVERT JUMPDEST PUSH1 0x0 SWAP2 DUP3 MSTORE PUSH1 0x20 SWAP1 SWAP2 KECCAK256 PUSH1 0x7 SWAP1 SWAP2 MUL ADD PUSH1 0x5 DUP2 ADD SLOAD SWAP1 SWAP2 POP PUSH1 0x1 PUSH1 0x1 PUSH1 0xA0 SHL SUB AND PUSH2 0x1AED DUP8 PUSH2 0x1204 JUMP JUMPDEST PUSH1 0x1 PUSH1 0x1 PUSH1 0xA0 SHL SUB AND EQ PUSH2 0x1B13 JUMPI PUSH1 0x40 MLOAD PUSH3 0x461BCD PUSH1 0xE5 SHL DUP2 MSTORE PUSH1 0x4 ADD PUSH2 0x44A SWAP1 PUSH2 0x278F JUMP JUMPDEST PUSH1 0x5 DUP2 ADD SLOAD PUSH2 0x1B2C SWAP1 DUP8 SWAP1 PUSH1 0x1 PUSH1 0x1 PUSH1 0xA0 SHL SUB AND PUSH2 0x1CE2 JUMP JUMPDEST PUSH2 0x1B48 JUMPI PUSH1 0x40 MLOAD PUSH3 0x461BCD PUSH1 0xE5 SHL DUP2 MSTORE PUSH1 0x4 ADD PUSH2 0x44A SWAP1 PUSH2 0x266B JUMP JUMPDEST DUP1 PUSH1 0x2 ADD SLOAD CALLVALUE LT ISZERO PUSH2 0x1B6C JUMPI PUSH1 0x40 MLOAD PUSH3 0x461BCD PUSH1 0xE5 SHL DUP2 MSTORE PUSH1 0x4 ADD PUSH2 0x44A SWAP1 PUSH2 0x2618 JUMP JUMPDEST PUSH1 0x1 DUP2 ADD SLOAD PUSH1 0x5 DUP3 ADD SLOAD DUP3 SLOAD PUSH1 0x40 MLOAD PUSH4 0x21421707 PUSH1 0xE1 SHL DUP2 MSTORE PUSH1 0x1 PUSH1 0x1 PUSH1 0xA0 SHL SUB SWAP4 DUP5 AND SWAP4 PUSH4 0x42842E0E SWAP4 PUSH2 0x1BA9 SWAP4 SWAP2 AND SWAP2 CALLER SWAP2 SWAP1 PUSH1 0x4 ADD PUSH2 0x24D4 JUMP JUMPDEST PUSH1 0x0 PUSH1 0x40 MLOAD DUP1 DUP4 SUB DUP2 PUSH1 0x0 DUP8 DUP1 EXTCODESIZE ISZERO DUP1 ISZERO PUSH2 0x1BC3 JUMPI PUSH1 0x0 DUP1 REVERT JUMPDEST POP GAS CALL ISZERO DUP1 ISZERO PUSH2 0x1BD7 JUMPI RETURNDATASIZE PUSH1 0x0 DUP1 RETURNDATACOPY RETURNDATASIZE PUSH1 0x0 REVERT JUMPDEST POP POP POP PUSH1 0x5 DUP3 ADD SLOAD PUSH2 0x1BF4 SWAP2 POP CALLVALUE SWAP1 PUSH1 0x1 PUSH1 0x1 PUSH1 0xA0 SHL SUB AND PUSH2 0x21EA JUMP JUMPDEST PUSH1 0x6 DUP2 ADD DUP1 SLOAD PUSH1 0x1 PUSH1 0x1 PUSH1 0xA0 SHL SUB NOT PUSH1 0xFF PUSH1 0xA0 SHL NOT SWAP1 SWAP2 AND PUSH1 0x1 PUSH1 0xA0 SHL OR AND CALLER SWAP1 DUP2 OR SWAP1 SWAP2 SSTORE CALLVALUE PUSH1 0x2 DUP4 ADD DUP2 SWAP1 SSTORE PUSH1 0x40 MLOAD DUP9 SWAP2 PUSH32 0x1C74128AE19B4A888C096A2E6BDF487EF12431A53F86731E5CAC4EB9E7A1F0C3 SWAP2 PUSH2 0x1C53 SWAP2 SWAP1 PUSH2 0x28FE JUMP JUMPDEST PUSH1 0x40 MLOAD DUP1 SWAP2 SUB SWAP1 LOG3 PUSH2 0x1C64 DUP2 PUSH2 0x1E39 JUMP JUMPDEST POP POP PUSH1 0x1 PUSH1 0x0 SSTORE POP POP POP POP JUMP JUMPDEST PUSH2 0x1C79 PUSH2 0x1E65 JUMP JUMPDEST PUSH1 0x1 PUSH1 0x1 PUSH1 0xA0 SHL SUB AND PUSH2 0x1C8A PUSH2 0xF2F JUMP JUMPDEST PUSH1 0x1 PUSH1 0x1 PUSH1 0xA0 SHL SUB AND EQ PUSH2 0x1CB0 JUMPI PUSH1 0x40 MLOAD PUSH3 0x461BCD PUSH1 0xE5 SHL DUP2 MSTORE PUSH1 0x4 ADD PUSH2 0x44A SWAP1 PUSH2 0x27D4 JUMP JUMPDEST PUSH1 0x1 PUSH1 0x1 PUSH1 0xA0 SHL SUB DUP2 AND PUSH2 0x1CD6 JUMPI PUSH1 0x40 MLOAD PUSH3 0x461BCD PUSH1 0xE5 SHL DUP2 MSTORE PUSH1 0x4 ADD PUSH2 0x44A SWAP1 PUSH2 0x25D2 JUMP JUMPDEST PUSH2 0x1CDF DUP2 PUSH2 0x1EDA JUMP JUMPDEST POP JUMP JUMPDEST PUSH1 0x0 DUP1 PUSH1 0x3 DUP5 DUP2 SLOAD DUP2 LT PUSH2 0x1D06 JUMPI PUSH4 0x4E487B71 PUSH1 0xE0 SHL PUSH1 0x0 MSTORE PUSH1 0x32 PUSH1 0x4 MSTORE PUSH1 0x24 PUSH1 0x0 REVERT JUMPDEST PUSH1 0x0 SWAP2 DUP3 MSTORE PUSH1 0x20 SWAP1 SWAP2 KECCAK256 PUSH1 0x7 SWAP1 SWAP2 MUL ADD PUSH1 0x1 DUP2 ADD SLOAD DUP2 SLOAD PUSH1 0x40 MLOAD PUSH4 0x20604BF PUSH1 0xE2 SHL DUP2 MSTORE SWAP3 SWAP4 POP ADDRESS SWAP3 PUSH1 0x1 PUSH1 0x1 PUSH1 0xA0 SHL SUB SWAP1 SWAP3 AND SWAP2 PUSH4 0x81812FC SWAP2 PUSH2 0x1D4D SWAP2 PUSH1 0x4 ADD PUSH2 0x28FE JUMP JUMPDEST PUSH1 0x20 PUSH1 0x40 MLOAD DUP1 DUP4 SUB DUP2 DUP7 DUP1 EXTCODESIZE ISZERO DUP1 ISZERO PUSH2 0x1D65 JUMPI PUSH1 0x0 DUP1 REVERT JUMPDEST POP GAS STATICCALL ISZERO DUP1 ISZERO PUSH2 0x1D79 JUMPI RETURNDATASIZE PUSH1 0x0 DUP1 RETURNDATACOPY RETURNDATASIZE PUSH1 0x0 REVERT JUMPDEST POP POP POP POP PUSH1 0x40 MLOAD RETURNDATASIZE PUSH1 0x1F NOT PUSH1 0x1F DUP3 ADD AND DUP3 ADD DUP1 PUSH1 0x40 MSTORE POP DUP2 ADD SWAP1 PUSH2 0x1D9D SWAP2 SWAP1 PUSH2 0x2330 JUMP JUMPDEST PUSH1 0x1 PUSH1 0x1 PUSH1 0xA0 SHL SUB AND EQ DUP1 PUSH2 0x1E31 JUMPI POP PUSH1 0x1 DUP2 ADD SLOAD PUSH1 0x40 MLOAD PUSH4 0xE985E9C5 PUSH1 0xE0 SHL DUP2 MSTORE PUSH1 0x1 PUSH1 0x1 PUSH1 0xA0 SHL SUB SWAP1 SWAP2 AND SWAP1 PUSH4 0xE985E9C5 SWAP1 PUSH2 0x1DE1 SWAP1 DUP7 SWAP1 ADDRESS SWAP1 PUSH1 0x4 ADD PUSH2 0x24BA JUMP JUMPDEST PUSH1 0x20 PUSH1 0x40 MLOAD DUP1 DUP4 SUB DUP2 DUP7 DUP1 EXTCODESIZE ISZERO DUP1 ISZERO PUSH2 0x1DF9 JUMPI PUSH1 0x0 DUP1 REVERT JUMPDEST POP GAS STATICCALL ISZERO DUP1 ISZERO PUSH2 0x1E0D JUMPI RETURNDATASIZE PUSH1 0x0 DUP1 RETURNDATACOPY RETURNDATASIZE PUSH1 0x0 REVERT JUMPDEST POP POP POP POP PUSH1 0x40 MLOAD RETURNDATASIZE PUSH1 0x1F NOT PUSH1 0x1F DUP3 ADD AND DUP3 ADD DUP1 PUSH1 0x40 MSTORE POP DUP2 ADD SWAP1 PUSH2 0x1E31 SWAP2 SWAP1 PUSH2 0x23BB JUMP JUMPDEST SWAP5 SWAP4 POP POP POP POP JUMP JUMPDEST PUSH1 0x1 DUP2 ADD SLOAD PUSH1 0x1 PUSH1 0x1 PUSH1 0xA0 SHL SUB AND PUSH1 0x0 SWAP1 DUP2 MSTORE PUSH1 0x4 PUSH1 0x20 SWAP1 DUP2 MSTORE PUSH1 0x40 DUP1 DUP4 KECCAK256 SWAP4 SLOAD DUP4 MSTORE SWAP3 SWAP1 MSTORE SWAP1 DUP2 KECCAK256 SSTORE JUMP JUMPDEST CALLER SWAP1 JUMP JUMPDEST PUSH2 0x1E71 PUSH2 0x7AB JUMP JUMPDEST PUSH2 0x1E8D JUMPI PUSH1 0x40 MLOAD PUSH3 0x461BCD PUSH1 0xE5 SHL DUP2 MSTORE PUSH1 0x4 ADD PUSH2 0x44A SWAP1 PUSH2 0x253F JUMP JUMPDEST PUSH1 0x1 DUP1 SLOAD PUSH1 0xFF PUSH1 0xA0 SHL NOT AND SWAP1 SSTORE PUSH32 0x5DB9EE0A495BF2E6FF9C91A7834C1BA4FDD244A5E8AA4E537BD38AEAE4B073AA PUSH2 0x1EC3 PUSH2 0x1E65 JUMP JUMPDEST PUSH1 0x40 MLOAD PUSH2 0x1ED0 SWAP2 SWAP1 PUSH2 0x24A6 JUMP JUMPDEST PUSH1 0x40 MLOAD DUP1 SWAP2 SUB SWAP1 LOG1 JUMP JUMPDEST PUSH1 0x1 DUP1 SLOAD PUSH1 0x1 PUSH1 0x1 PUSH1 0xA0 SHL SUB DUP4 DUP2 AND PUSH1 0x1 PUSH1 0x1 PUSH1 0xA0 SHL SUB NOT DUP4 AND DUP2 OR SWAP1 SWAP4 SSTORE PUSH1 0x40 MLOAD SWAP2 AND SWAP2 SWAP1 DUP3 SWAP1 PUSH32 0x8BE0079C531659141344CD1FD0A4F28419497F9722A3DAAFE3B4186F6B6457E0 SWAP1 PUSH1 0x0 SWAP1 LOG3 POP POP JUMP JUMPDEST PUSH1 0x1 PUSH1 0x1 PUSH1 0xA0 SHL SUB DUP3 AND PUSH1 0x0 SWAP1 DUP2 MSTORE PUSH1 0x4 PUSH1 0x20 SWAP1 DUP2 MSTORE PUSH1 0x40 DUP1 DUP4 KECCAK256 DUP5 DUP5 MSTORE SWAP1 SWAP2 MSTORE SWAP1 KECCAK256 SLOAD DUP1 PUSH2 0x1F5B JUMPI POP PUSH2 0x1FF8 JUMP JUMPDEST PUSH1 0x0 PUSH1 0x3 DUP3 DUP2 SLOAD DUP2 LT PUSH2 0x1F7E JUMPI PUSH4 0x4E487B71 PUSH1 0xE0 SHL PUSH1 0x0 MSTORE PUSH1 0x32 PUSH1 0x4 MSTORE PUSH1 0x24 PUSH1 0x0 REVERT JUMPDEST PUSH1 0x0 SWAP2 DUP3 MSTORE PUSH1 0x20 DUP1 DUP4 KECCAK256 PUSH1 0x6 PUSH1 0x7 SWAP1 SWAP4 MUL ADD SWAP2 DUP3 ADD DUP1 SLOAD PUSH1 0x1 PUSH1 0xA1 SHL PUSH1 0xFF PUSH1 0xA0 SHL NOT SWAP1 SWAP2 AND OR SWAP1 SSTORE PUSH1 0x1 DUP3 ADD SLOAD PUSH1 0x1 PUSH1 0x1 PUSH1 0xA0 SHL SUB AND DUP4 MSTORE PUSH1 0x4 DUP2 MSTORE PUSH1 0x40 DUP1 DUP5 KECCAK256 DUP4 SLOAD DUP6 MSTORE SWAP1 SWAP2 MSTORE DUP1 DUP4 KECCAK256 DUP4 SWAP1 SSTORE MLOAD SWAP1 SWAP3 POP DUP4 SWAP2 PUSH32 0x6207DF80804540A4B62858818B8B76ADD067070ECBB89CCE5CF34D457E9E80A2 SWAP2 LOG2 POP POP JUMPDEST POP POP JUMP JUMPDEST PUSH2 0x2004 PUSH2 0x7AB JUMP JUMPDEST ISZERO PUSH2 0x2021 JUMPI PUSH1 0x40 MLOAD PUSH3 0x461BCD PUSH1 0xE5 SHL DUP2 MSTORE PUSH1 0x4 ADD PUSH2 0x44A SWAP1 PUSH2 0x2765 JUMP JUMPDEST PUSH1 0x1 DUP1 SLOAD PUSH1 0xFF PUSH1 0xA0 SHL NOT AND PUSH1 0x1 PUSH1 0xA0 SHL OR SWAP1 SSTORE PUSH32 0x62E78CEA01BEE320CD4E420270B5EA74000D11B0C9F74754EBDBFC544B05A258 PUSH2 0x1EC3 PUSH2 0x1E65 JUMP JUMPDEST PUSH2 0x2066 DUP3 PUSH2 0xD9A JUMP JUMPDEST PUSH2 0x2082 JUMPI PUSH1 0x40 MLOAD PUSH3 0x461BCD PUSH1 0xE5 SHL DUP2 MSTORE PUSH1 0x4 ADD PUSH2 0x44A SWAP1 PUSH2 0x289C JUMP JUMPDEST PUSH1 0x0 PUSH1 0x3 DUP4 DUP2 SLOAD DUP2 LT PUSH2 0x20A5 JUMPI PUSH4 0x4E487B71 PUSH1 0xE0 SHL PUSH1 0x0 MSTORE PUSH1 0x32 PUSH1 0x4 MSTORE PUSH1 0x24 PUSH1 0x0 REVERT JUMPDEST PUSH1 0x0 SWAP2 DUP3 MSTORE PUSH1 0x20 DUP1 DUP4 KECCAK256 DUP7 DUP5 MSTORE PUSH1 0x5 SWAP1 SWAP2 MSTORE PUSH1 0x40 DUP4 KECCAK256 PUSH1 0x7 SWAP1 SWAP3 MUL ADD SWAP3 POP SWAP1 JUMPDEST DUP2 SLOAD DUP2 LT ISZERO PUSH2 0x21E3 JUMPI PUSH1 0x0 DUP3 DUP3 DUP2 SLOAD DUP2 LT PUSH2 0x20F0 JUMPI PUSH4 0x4E487B71 PUSH1 0xE0 SHL PUSH1 0x0 MSTORE PUSH1 0x32 PUSH1 0x4 MSTORE PUSH1 0x24 PUSH1 0x0 REVERT JUMPDEST PUSH1 0x0 SWAP2 DUP3 MSTORE PUSH1 0x20 SWAP2 DUP3 SWAP1 KECCAK256 PUSH1 0x40 DUP1 MLOAD DUP1 DUP3 ADD SWAP1 SWAP2 MSTORE PUSH1 0x2 SWAP1 SWAP3 MUL ADD DUP1 SLOAD PUSH1 0x1 PUSH1 0x1 PUSH1 0xA0 SHL SUB AND DUP3 MSTORE PUSH1 0x1 ADD SLOAD SWAP2 DUP2 ADD SWAP2 SWAP1 SWAP2 MSTORE SWAP1 POP DUP2 DUP6 EQ ISZERO PUSH2 0x21BE JUMPI PUSH1 0x1 DUP5 ADD SLOAD PUSH1 0x5 DUP6 ADD SLOAD DUP3 MLOAD DUP7 SLOAD PUSH1 0x40 MLOAD PUSH4 0x21421707 PUSH1 0xE1 SHL DUP2 MSTORE PUSH1 0x1 PUSH1 0x1 PUSH1 0xA0 SHL SUB SWAP5 DUP6 AND SWAP5 PUSH4 0x42842E0E SWAP5 PUSH2 0x216B SWAP5 SWAP2 AND SWAP3 SWAP1 SWAP2 PUSH1 0x4 ADD PUSH2 0x24D4 JUMP JUMPDEST PUSH1 0x0 PUSH1 0x40 MLOAD DUP1 DUP4 SUB DUP2 PUSH1 0x0 DUP8 DUP1 EXTCODESIZE ISZERO DUP1 ISZERO PUSH2 0x2185 JUMPI PUSH1 0x0 DUP1 REVERT JUMPDEST POP GAS CALL ISZERO DUP1 ISZERO PUSH2 0x2199 JUMPI RETURNDATASIZE PUSH1 0x0 DUP1 RETURNDATACOPY RETURNDATASIZE PUSH1 0x0 REVERT JUMPDEST POP POP POP PUSH1 0x20 DUP3 ADD MLOAD PUSH1 0x5 DUP7 ADD SLOAD PUSH2 0x21B9 SWAP3 POP PUSH1 0x1 PUSH1 0x1 PUSH1 0xA0 SHL SUB AND PUSH2 0x21EA JUMP JUMPDEST PUSH2 0x21D0 JUMP JUMPDEST PUSH2 0x21D0 DUP2 PUSH1 0x0 ADD MLOAD DUP3 PUSH1 0x20 ADD MLOAD PUSH2 0x222A JUMP JUMPDEST POP DUP1 PUSH2 0x21DB DUP2 PUSH2 0x2A29 JUMP JUMPDEST SWAP2 POP POP PUSH2 0x20C5 JUMP JUMPDEST POP POP POP POP POP JUMP JUMPDEST PUSH1 0x0 PUSH1 0x64 PUSH2 0x21F9 DUP5 PUSH1 0x2 PUSH2 0x29F3 JUMP JUMPDEST PUSH2 0x2203 SWAP2 SWAP1 PUSH2 0x29D3 JUMP JUMPDEST PUSH1 0x2 SLOAD SWAP1 SWAP2 POP PUSH2 0x221C SWAP1 PUSH1 0x1 PUSH1 0x1 PUSH1 0xA0 SHL SUB AND DUP3 PUSH2 0x2266 JUMP JUMPDEST PUSH2 0x727 DUP3 PUSH2 0x222A DUP4 DUP7 PUSH2 0x2A12 JUMP JUMPDEST DUP1 ISZERO PUSH2 0x1FF8 JUMPI PUSH1 0x40 MLOAD PUSH1 0x1 PUSH1 0x1 PUSH1 0xA0 SHL SUB DUP4 AND SWAP1 DUP3 ISZERO PUSH2 0x8FC MUL SWAP1 DUP4 SWAP1 PUSH1 0x0 DUP2 DUP2 DUP2 DUP6 DUP9 DUP9 CALL SWAP4 POP POP POP POP ISZERO DUP1 ISZERO PUSH2 0x727 JUMPI RETURNDATASIZE PUSH1 0x0 DUP1 RETURNDATACOPY RETURNDATASIZE PUSH1 0x0 REVERT JUMPDEST DUP1 ISZERO PUSH2 0x1FF8 JUMPI PUSH2 0x1FF8 DUP3 DUP3 DUP1 SELFBALANCE LT ISZERO PUSH2 0x2291 JUMPI PUSH1 0x40 MLOAD PUSH3 0x461BCD PUSH1 0xE5 SHL DUP2 MSTORE PUSH1 0x4 ADD PUSH2 0x44A SWAP1 PUSH2 0x272E JUMP JUMPDEST PUSH1 0x0 DUP3 PUSH1 0x1 PUSH1 0x1 PUSH1 0xA0 SHL SUB AND DUP3 PUSH1 0x40 MLOAD PUSH2 0x22AA SWAP1 PUSH2 0x24A3 JUMP JUMPDEST PUSH1 0x0 PUSH1 0x40 MLOAD DUP1 DUP4 SUB DUP2 DUP6 DUP8 GAS CALL SWAP3 POP POP POP RETURNDATASIZE DUP1 PUSH1 0x0 DUP2 EQ PUSH2 0x22E7 JUMPI PUSH1 0x40 MLOAD SWAP2 POP PUSH1 0x1F NOT PUSH1 0x3F RETURNDATASIZE ADD AND DUP3 ADD PUSH1 0x40 MSTORE RETURNDATASIZE DUP3 MSTORE RETURNDATASIZE PUSH1 0x0 PUSH1 0x20 DUP5 ADD RETURNDATACOPY PUSH2 0x22EC JUMP JUMPDEST PUSH1 0x60 SWAP2 POP JUMPDEST POP POP SWAP1 POP DUP1 PUSH2 0x727 JUMPI PUSH1 0x40 MLOAD PUSH3 0x461BCD PUSH1 0xE5 SHL DUP2 MSTORE PUSH1 0x4 ADD PUSH2 0x44A SWAP1 PUSH2 0x269A JUMP JUMPDEST PUSH1 0x0 PUSH1 0x20 DUP3 DUP5 SUB SLT ISZERO PUSH2 0x231E JUMPI DUP1 DUP2 REVERT JUMPDEST DUP2 CALLDATALOAD PUSH2 0x2329 DUP2 PUSH2 0x2A5A JUMP JUMPDEST SWAP4 SWAP3 POP POP POP JUMP JUMPDEST PUSH1 0x0 PUSH1 0x20 DUP3 DUP5 SUB SLT ISZERO PUSH2 0x2341 JUMPI DUP1 DUP2 REVERT JUMPDEST DUP2 MLOAD PUSH2 0x2329 DUP2 PUSH2 0x2A5A JUMP JUMPDEST PUSH1 0x0 DUP1 PUSH1 0x20 DUP4 DUP6 SUB SLT ISZERO PUSH2 0x235E JUMPI DUP1 DUP2 REVERT JUMPDEST DUP3 CALLDATALOAD PUSH8 0xFFFFFFFFFFFFFFFF DUP1 DUP3 GT ISZERO PUSH2 0x2375 JUMPI DUP3 DUP4 REVERT JUMPDEST DUP2 DUP6 ADD SWAP2 POP DUP6 PUSH1 0x1F DUP4 ADD SLT PUSH2 0x2388 JUMPI DUP3 DUP4 REVERT JUMPDEST DUP2 CALLDATALOAD DUP2 DUP2 GT ISZERO PUSH2 0x2396 JUMPI DUP4 DUP5 REVERT JUMPDEST DUP7 PUSH1 0x20 DUP1 DUP4 MUL DUP6 ADD ADD GT ISZERO PUSH2 0x23A9 JUMPI DUP4 DUP5 REVERT JUMPDEST PUSH1 0x20 SWAP3 SWAP1 SWAP3 ADD SWAP7 SWAP2 SWAP6 POP SWAP1 SWAP4 POP POP POP POP JUMP JUMPDEST PUSH1 0x0 PUSH1 0x20 DUP3 DUP5 SUB SLT ISZERO PUSH2 0x23CC JUMPI DUP1 DUP2 REVERT JUMPDEST DUP2 MLOAD DUP1 ISZERO ISZERO DUP2 EQ PUSH2 0x2329 JUMPI DUP2 DUP3 REVERT JUMPDEST PUSH1 0x0 DUP1 PUSH1 0x40 DUP4 DUP6 SUB SLT ISZERO PUSH2 0x23ED JUMPI DUP2 DUP3 REVERT JUMPDEST DUP3 CALLDATALOAD PUSH2 0x23F8 DUP2 PUSH2 0x2A5A JUMP JUMPDEST SWAP5 PUSH1 0x20 SWAP4 SWAP1 SWAP4 ADD CALLDATALOAD SWAP4 POP POP POP JUMP JUMPDEST PUSH1 0x0 DUP1 PUSH1 0x0 DUP1 PUSH1 0x0 PUSH1 0xA0 DUP7 DUP9 SUB SLT ISZERO PUSH2 0x241D JUMPI DUP1 DUP2 REVERT JUMPDEST DUP6 CALLDATALOAD PUSH2 0x2428 DUP2 PUSH2 0x2A5A JUMP JUMPDEST SWAP5 POP PUSH1 0x20 DUP7 ADD CALLDATALOAD SWAP4 POP PUSH1 0x40 DUP7 ADD CALLDATALOAD PUSH1 0xFF DUP2 AND DUP2 EQ PUSH2 0x2444 JUMPI DUP2 DUP3 REVERT JUMPDEST SWAP5 SWAP8 SWAP4 SWAP7 POP SWAP4 SWAP5 PUSH1 0x60 DUP2 ADD CALLDATALOAD SWAP5 POP PUSH1 0x80 ADD CALLDATALOAD SWAP3 SWAP2 POP POP JUMP JUMPDEST PUSH1 0x0 PUSH1 0x20 DUP3 DUP5 SUB SLT ISZERO PUSH2 0x246D JUMPI DUP1 DUP2 REVERT JUMPDEST POP CALLDATALOAD SWAP2 SWAP1 POP JUMP JUMPDEST PUSH1 0x0 DUP1 PUSH1 0x40 DUP4 DUP6 SUB SLT ISZERO PUSH2 0x2486 JUMPI DUP2 DUP3 REVERT JUMPDEST DUP3 CALLDATALOAD SWAP2 POP PUSH1 0x20 DUP4 ADD CALLDATALOAD PUSH2 0x2498 DUP2 PUSH2 0x2A5A JUMP JUMPDEST DUP1 SWAP2 POP POP SWAP3 POP SWAP3 SWAP1 POP JUMP JUMPDEST SWAP1 JUMP JUMPDEST PUSH1 0x1 PUSH1 0x1 PUSH1 0xA0 SHL SUB SWAP2 SWAP1 SWAP2 AND DUP2 MSTORE PUSH1 0x20 ADD SWAP1 JUMP JUMPDEST PUSH1 0x1 PUSH1 0x1 PUSH1 0xA0 SHL SUB SWAP3 DUP4 AND DUP2 MSTORE SWAP2 AND PUSH1 0x20 DUP3 ADD MSTORE PUSH1 0x40 ADD SWAP1 JUMP JUMPDEST PUSH1 0x1 PUSH1 0x1 PUSH1 0xA0 SHL SUB SWAP4 DUP5 AND DUP2 MSTORE SWAP2 SWAP1 SWAP3 AND PUSH1 0x20 DUP3 ADD MSTORE PUSH1 0x40 DUP2 ADD SWAP2 SWAP1 SWAP2 MSTORE PUSH1 0x60 ADD SWAP1 JUMP JUMPDEST PUSH1 0x1 PUSH1 0x1 PUSH1 0xA0 SHL SUB SWAP4 SWAP1 SWAP4 AND DUP4 MSTORE PUSH1 0x20 DUP4 ADD SWAP2 SWAP1 SWAP2 MSTORE PUSH1 0x40 DUP3 ADD MSTORE PUSH1 0x60 ADD SWAP1 JUMP JUMPDEST SWAP1 ISZERO ISZERO DUP2 MSTORE PUSH1 0x20 ADD SWAP1 JUMP JUMPDEST PUSH1 0x1 PUSH1 0x1 PUSH1 0xA0 SHL SUB SWAP3 SWAP1 SWAP3 AND DUP3 MSTORE ISZERO ISZERO PUSH1 0x20 DUP3 ADD MSTORE PUSH1 0x40 ADD SWAP1 JUMP JUMPDEST PUSH1 0x20 DUP1 DUP3 MSTORE PUSH1 0x14 SWAP1 DUP3 ADD MSTORE PUSH20 0x14185D5CD8589B194E881B9BDD081C185D5CD959 PUSH1 0x62 SHL PUSH1 0x40 DUP3 ADD MSTORE PUSH1 0x60 ADD SWAP1 JUMP JUMPDEST PUSH1 0x20 DUP1 DUP3 MSTORE PUSH1 0x14 SWAP1 DUP3 ADD MSTORE PUSH20 0x37B33332B91039B437BAB6321031329037B832B7 PUSH1 0x61 SHL PUSH1 0x40 DUP3 ADD MSTORE PUSH1 0x60 ADD SWAP1 JUMP JUMPDEST PUSH1 0x20 DUP1 DUP3 MSTORE PUSH1 0x1B SWAP1 DUP3 ADD MSTORE PUSH32 0x73656E6465722073686F756C64206F776E2074686520746F6B656E0000000000 PUSH1 0x40 DUP3 ADD MSTORE PUSH1 0x60 ADD SWAP1 JUMP JUMPDEST PUSH1 0x20 DUP1 DUP3 MSTORE PUSH1 0x26 SWAP1 DUP3 ADD MSTORE PUSH32 0x4F776E61626C653A206E6577206F776E657220697320746865207A65726F2061 PUSH1 0x40 DUP3 ADD MSTORE PUSH6 0x646472657373 PUSH1 0xD0 SHL PUSH1 0x60 DUP3 ADD MSTORE PUSH1 0x80 ADD SWAP1 JUMP JUMPDEST PUSH1 0x20 DUP1 DUP3 MSTORE PUSH1 0xF SWAP1 DUP3 ADD MSTORE PUSH15 0x73656E64206D6F7265206D6F6E6579 PUSH1 0x88 SHL PUSH1 0x40 DUP3 ADD MSTORE PUSH1 0x60 ADD SWAP1 JUMP JUMPDEST PUSH1 0x20 DUP1 DUP3 MSTORE PUSH1 0x10 SWAP1 DUP3 ADD MSTORE PUSH16 0x139195081A5B88189B1858DADB1A5CDD PUSH1 0x82 SHL PUSH1 0x40 DUP3 ADD MSTORE PUSH1 0x60 ADD SWAP1 JUMP JUMPDEST PUSH1 0x20 DUP1 DUP3 MSTORE PUSH1 0x15 SWAP1 DUP3 ADD MSTORE PUSH21 0x1D1BDAD95B881A5CC81B9BDD08185C1C1C9BDD9959 PUSH1 0x5A SHL PUSH1 0x40 DUP3 ADD MSTORE PUSH1 0x60 ADD SWAP1 JUMP JUMPDEST PUSH1 0x20 DUP1 DUP3 MSTORE PUSH1 0x3A SWAP1 DUP3 ADD MSTORE PUSH32 0x416464726573733A20756E61626C6520746F2073656E642076616C75652C2072 PUSH1 0x40 DUP3 ADD MSTORE PUSH32 0x6563697069656E74206D61792068617665207265766572746564000000000000 PUSH1 0x60 DUP3 ADD MSTORE PUSH1 0x80 ADD SWAP1 JUMP JUMPDEST PUSH1 0x20 DUP1 DUP3 MSTORE PUSH1 0x1E SWAP1 DUP3 ADD MSTORE PUSH32 0x626964206E6F7420666F722074696D65642D61756374696F6E2073616C650000 PUSH1 0x40 DUP3 ADD MSTORE PUSH1 0x60 ADD SWAP1 JUMP JUMPDEST PUSH1 0x20 DUP1 DUP3 MSTORE PUSH1 0x1D SWAP1 DUP3 ADD MSTORE PUSH32 0x416464726573733A20696E73756666696369656E742062616C616E6365000000 PUSH1 0x40 DUP3 ADD MSTORE PUSH1 0x60 ADD SWAP1 JUMP JUMPDEST PUSH1 0x20 DUP1 DUP3 MSTORE PUSH1 0x10 SWAP1 DUP3 ADD MSTORE PUSH16 0x14185D5CD8589B194E881C185D5CD959 PUSH1 0x82 SHL PUSH1 0x40 DUP3 ADD MSTORE PUSH1 0x60 ADD SWAP1 JUMP JUMPDEST PUSH1 0x20 DUP1 DUP3 MSTORE PUSH1 0x25 SWAP1 DUP3 ADD MSTORE PUSH32 0x746F6B656E206E6F74206F776E6564206279207468652073656C6C657220616E PUSH1 0x40 DUP3 ADD MSTORE PUSH5 0x796D6F7265 PUSH1 0xD8 SHL PUSH1 0x60 DUP3 ADD MSTORE PUSH1 0x80 ADD SWAP1 JUMP JUMPDEST PUSH1 0x20 DUP1 DUP3 MSTORE DUP2 DUP2 ADD MSTORE PUSH32 0x4F776E61626C653A2063616C6C6572206973206E6F7420746865206F776E6572 PUSH1 0x40 DUP3 ADD MSTORE PUSH1 0x60 ADD SWAP1 JUMP JUMPDEST PUSH1 0x20 DUP1 DUP3 MSTORE PUSH1 0x14 SWAP1 DUP3 ADD MSTORE PUSH20 0x1BD999995C88191BD95CC81B9BDD08195E1A5CDD PUSH1 0x62 SHL PUSH1 0x40 DUP3 ADD MSTORE PUSH1 0x60 ADD SWAP1 JUMP JUMPDEST PUSH1 0x20 DUP1 DUP3 MSTORE PUSH1 0x14 SWAP1 DUP3 ADD MSTORE PUSH20 0x1CD85B19481B9BDD081CDD185C9D1959081E595D PUSH1 0x62 SHL PUSH1 0x40 DUP3 ADD MSTORE PUSH1 0x60 ADD SWAP1 JUMP JUMPDEST PUSH1 0x20 DUP1 DUP3 MSTORE PUSH1 0x19 SWAP1 DUP3 ADD MSTORE PUSH32 0x63616C6C2073686F756C64206F776E20746865206F6666657200000000000000 PUSH1 0x40 DUP3 ADD MSTORE PUSH1 0x60 ADD SWAP1 JUMP JUMPDEST PUSH1 0x20 DUP1 DUP3 MSTORE PUSH1 0x11 SWAP1 DUP3 ADD MSTORE PUSH17 0x1CD85B19481A5CC81B9BDD081D985B1A59 PUSH1 0x7A SHL PUSH1 0x40 DUP3 ADD MSTORE PUSH1 0x60 ADD SWAP1 JUMP JUMPDEST PUSH1 0x20 DUP1 DUP3 MSTORE PUSH1 0x1F SWAP1 DUP3 ADD MSTORE PUSH32 0x5265656E7472616E637947756172643A207265656E7472616E742063616C6C00 PUSH1 0x40 DUP3 ADD MSTORE PUSH1 0x60 ADD SWAP1 JUMP JUMPDEST SWAP1 DUP2 MSTORE PUSH1 0x20 ADD SWAP1 JUMP JUMPDEST SWAP3 DUP4 MSTORE PUSH1 0x1 PUSH1 0x1 PUSH1 0xA0 SHL SUB SWAP2 SWAP1 SWAP2 AND PUSH1 0x20 DUP4 ADD MSTORE PUSH1 0x40 DUP3 ADD MSTORE PUSH1 0x60 ADD SWAP1 JUMP JUMPDEST SWAP9 DUP10 MSTORE PUSH1 0x1 PUSH1 0x1 PUSH1 0xA0 SHL SUB SWAP8 DUP9 AND PUSH1 0x20 DUP11 ADD MSTORE PUSH1 0xFF SWAP7 DUP8 AND PUSH1 0x40 DUP11 ADD MSTORE PUSH1 0x60 DUP10 ADD SWAP6 SWAP1 SWAP6 MSTORE PUSH1 0x80 DUP9 ADD SWAP4 SWAP1 SWAP4 MSTORE PUSH1 0xA0 DUP8 ADD SWAP2 SWAP1 SWAP2 MSTORE DUP5 AND PUSH1 0xC0 DUP7 ADD MSTORE SWAP1 SWAP3 AND PUSH1 0xE0 DUP5 ADD MSTORE AND PUSH2 0x100 DUP3 ADD MSTORE PUSH2 0x120 ADD SWAP1 JUMP JUMPDEST PUSH1 0xFF SWAP2 SWAP1 SWAP2 AND DUP2 MSTORE PUSH1 0x20 ADD SWAP1 JUMP JUMPDEST PUSH1 0xFF SWAP7 DUP8 AND DUP2 MSTORE PUSH1 0x20 DUP2 ADD SWAP6 SWAP1 SWAP6 MSTORE PUSH1 0x40 DUP6 ADD SWAP4 SWAP1 SWAP4 MSTORE PUSH1 0x60 DUP5 ADD SWAP2 SWAP1 SWAP2 MSTORE SWAP1 SWAP3 AND PUSH1 0x80 DUP3 ADD MSTORE PUSH1 0xA0 DUP2 ADD SWAP2 SWAP1 SWAP2 MSTORE PUSH1 0xC0 ADD SWAP1 JUMP JUMPDEST PUSH1 0x0 DUP3 NOT DUP3 GT ISZERO PUSH2 0x29CE JUMPI PUSH2 0x29CE PUSH2 0x2A44 JUMP JUMPDEST POP ADD SWAP1 JUMP JUMPDEST PUSH1 0x0 DUP3 PUSH2 0x29EE JUMPI PUSH4 0x4E487B71 PUSH1 0xE0 SHL DUP2 MSTORE PUSH1 0x12 PUSH1 0x4 MSTORE PUSH1 0x24 DUP2 REVERT JUMPDEST POP DIV SWAP1 JUMP JUMPDEST PUSH1 0x0 DUP2 PUSH1 0x0 NOT DIV DUP4 GT DUP3 ISZERO ISZERO AND ISZERO PUSH2 0x2A0D JUMPI PUSH2 0x2A0D PUSH2 0x2A44 JUMP JUMPDEST POP MUL SWAP1 JUMP JUMPDEST PUSH1 0x0 DUP3 DUP3 LT ISZERO PUSH2 0x2A24 JUMPI PUSH2 0x2A24 PUSH2 0x2A44 JUMP JUMPDEST POP SUB SWAP1 JUMP JUMPDEST PUSH1 0x0 PUSH1 0x0 NOT DUP3 EQ ISZERO PUSH2 0x2A3D JUMPI PUSH2 0x2A3D PUSH2 0x2A44 JUMP JUMPDEST POP PUSH1 0x1 ADD SWAP1 JUMP JUMPDEST PUSH4 0x4E487B71 PUSH1 0xE0 SHL PUSH1 0x0 MSTORE PUSH1 0x11 PUSH1 0x4 MSTORE PUSH1 0x24 PUSH1 0x0 REVERT JUMPDEST PUSH1 0x1 PUSH1 0x1 PUSH1 0xA0 SHL SUB DUP2 AND DUP2 EQ PUSH2 0x1CDF JUMPI PUSH1 0x0 DUP1 REVERT INVALID LOG2 PUSH5 0x6970667358 0x22 SLT KECCAK256 STOP KECCAK256 SWAP10 0x1E SWAP14 SHL PUSH20 0x4975654E7DE62CA90983663CE3C947600F6CB1CE CALL PUSH31 0xAD2DC264736F6C634300080000330000000000000000000000000000000000 "
        },
        "methodIdentifiers": {
          "STATUS_ACCEPTED()": "cef56f11",
          "STATUS_CANCELLED()": "5a4e5a15",
          "STATUS_OPEN()": "24f8515b",
          "acceptSell(uint256)": "ee6ca193",
          "blacklistNFT(address[])": "212ce7e8",
          "cancelSell(uint256)": "07c9cd45",
          "feeAddress()": "41275358",
          "finalizeAuction(uint256)": "e8083863",
          "getTokenOwner(uint256)": "a5cd761f",
          "isTokenApproved(uint256,address)": "f5744b06",
          "isValidSell(uint256)": "89e25a65",
          "nftBlacklist(address)": "6d69575b",
          "offerSell(address,uint256,uint8,uint256,uint256)": "76451ae2",
          "offers(uint256)": "8a72ea6a",
          "owner()": "8da5cb5b",
          "pause()": "8456cb59",
          "paused()": "5c975abb",
          "placeBid(uint256)": "9979ef45",
          "renounceOwnership()": "715018a6",
          "tokenSellOffers(address,uint256)": "5403d88a",
          "transferOwnership(address)": "f2fde38b",
          "unblacklistNFT(address[])": "aa252214",
          "unpause()": "3f4ba83a",
          "updateSettings(address)": "bd51d725"
        }
      }
    }
  }
}