{
  "_format": "hh-sol-artifact-1",
  "contractName": "ContractInterface721",
  "sourceName": "contracts/ContractInterface721.sol",
  "abi": [
    {
      "inputs": [],
      "stateMutability": "nonpayable",
      "type": "constructor"
    },
    {
      "anonymous": false,
      "inputs": [
        {
          "indexed": true,
          "internalType": "address",
          "name": "factory",
          "type": "address"
        },
        {
          "indexed": true,
          "internalType": "address",
          "name": "newContract",
          "type": "address"
        }
      ],
      "name": "CreatedERC721TradableContract",
      "type": "event"
    },
    {
      "inputs": [
        {
          "internalType": "string",
          "name": "_name",
          "type": "string"
        },
        {
          "internalType": "string",
          "name": "_symbol",
          "type": "string"
        },
        {
          "internalType": "string",
          "name": "_uri",
          "type": "string"
        },
        {
          "internalType": "address",
          "name": "factory",
          "type": "address"
        }
      ],
      "name": "createContract",
      "outputs": [
        {
          "internalType": "address",
          "name": "",
          "type": "address"
        }
      ],
      "stateMutability": "nonpayable",
      "type": "function"
    }
  ],
  "bytecode": "0x608060405234801561001057600080fd5b50612f23806100206000396000f3fe60806040523480156200001157600080fd5b50600436106200002e5760003560e01c80631039569a1462000033575b600080fd5b6200004a62000044366004620001e1565b62000062565b604051620000599190620002dc565b60405180910390f35b6000808585858560405162000077906200014a565b620000869493929190620002f0565b604051809103906000f080158015620000a3573d6000803e3d6000fd5b5060405163f2fde38b60e01b81529091506001600160a01b0382169063f2fde38b90620000d5908690600401620002dc565b600060405180830381600087803b158015620000f057600080fd5b505af115801562000105573d6000803e3d6000fd5b50506040516001600160a01b038085169350861691507fd6857f96ed2923ce91575b33c91912aef7b4b01b2abb5fc5193b583e88ad64d190600090a395945050505050565b612b8e806200036083390190565b600082601f83011262000169578081fd5b813567ffffffffffffffff8082111562000187576200018762000349565b604051601f8301601f191681016020018281118282101715620001ae57620001ae62000349565b604052828152848301602001861015620001c6578384fd5b82602086016020830137918201602001929092529392505050565b60008060008060808587031215620001f7578384fd5b843567ffffffffffffffff808211156200020f578586fd5b6200021d8883890162000158565b9550602087013591508082111562000233578485fd5b620002418883890162000158565b9450604087013591508082111562000257578384fd5b50620002668782880162000158565b92505060608501356001600160a01b038116811462000283578182fd5b939692955090935050565b60008151808452815b81811015620002b55760208185018101518683018201520162000297565b81811115620002c75782602083870101525b50601f01601f19169290920160200192915050565b6001600160a01b0391909116815260200190565b6000608082526200030560808301876200028e565b82810360208401526200031981876200028e565b905082810360408401526200032f81866200028e565b91505060018060a01b038316606083015295945050505050565b634e487b7160e01b600052604160045260246000fdfe60806040526006805460ff191690553480156200001b57600080fd5b5060405162002b8e38038062002b8e8339810160408190526200003e9162000431565b83518490849062000057906000906020850190620002e0565b5080516200006d906001906020840190620002e0565b5050506200008a620000846200011a60201b60201c565b62000137565b620000a1600a6200018960201b62000e4d1760201c565b620000b8600d6200018960201b62000e4d1760201c565b620000cf600e6200018960201b62000e4d1760201c565b620000da8462000192565b8151620000ef906010906020850190620002e0565b50600f80546001600160a01b0319166001600160a01b03929092169190911790555062000586915050565b600062000131620001dc60201b62000e561760201c565b90505b90565b600980546001600160a01b038381166001600160a01b0319831681179093556040519116919082907f8be0079c531659141344cd1fd0a4f28419497f9722a3daafe3b4186f6b6457e090600090a35050565b80546001019055565b60065460ff1615620001c15760405162461bcd60e51b8152600401620001b8906200050b565b60405180910390fd5b620001cc816200023a565b506006805460ff19166001179055565b6000333014156200023557600080368080601f0160208091040260200160405190810160405280939291908181526020018383808284376000920191909152505050503601516001600160a01b03169150620001349050565b503390565b6040518060800160405280604f815260200162002b3f604f913980516020918201208251838301206040805180820190915260018152603160f81b930192909252907fc89efdaa54c0f20c7adf612882df0950f5a951637e0307cdcb4c672f298b8bc630620002a8620002dc565b604051620002be959493929190602001620004df565b60408051601f19818403018152919052805160209091012060075550565b4690565b828054620002ee9062000533565b90600052602060002090601f0160209004810192826200031257600085556200035d565b82601f106200032d57805160ff19168380011785556200035d565b828001600101855582156200035d579182015b828111156200035d57825182559160200191906001019062000340565b506200036b9291506200036f565b5090565b5b808211156200036b576000815560010162000370565b600082601f83011262000397578081fd5b81516001600160401b0380821115620003b457620003b462000570565b6040516020601f8401601f1916820181018381118382101715620003dc57620003dc62000570565b6040528382528584018101871015620003f3578485fd5b8492505b83831015620004165785830181015182840182015291820191620003f7565b838311156200042757848185840101525b5095945050505050565b6000806000806080858703121562000447578384fd5b84516001600160401b03808211156200045e578586fd5b6200046c8883890162000386565b9550602087015191508082111562000482578485fd5b620004908883890162000386565b94506040870151915080821115620004a6578384fd5b50620004b58782880162000386565b606087015190935090506001600160a01b0381168114620004d4578182fd5b939692955090935050565b948552602085019390935260408401919091526001600160a01b03166060830152608082015260a00190565b6020808252600e908201526d185b1c9958591e481a5b9a5d195960921b604082015260600190565b6002810460018216806200054857607f821691505b602082108114156200056a57634e487b7160e01b600052602260045260246000fd5b50919050565b634e487b7160e01b600052604160045260246000fd5b6125a980620005966000396000f3fe6080604052600436106101e25760003560e01c80636352211e11610102578063c45a015511610095578063d48e638a11610064578063d48e638a14610520578063e985e9c514610540578063f2fde38b14610560578063f5b3beb714610209576101e2565b8063c45a0155146104ab578063c87b56dd146104c0578063c8cb8a75146104e0578063d424134114610500576101e2565b806395d89b41116100d157806395d89b4114610436578063a22cb4651461044b578063b88d4fde1461046b578063b8fc74981461048b576101e2565b80636352211e146103cc57806370a08231146103ec578063715018a61461040c5780638da5cb5b14610421576101e2565b806318160ddd1161017a5780633408e470116101495780633408e4701461036257806342842e0e1461037757806342966c681461039757806353d74fdf146103b7576101e2565b806318160ddd146102f857806320379ee51461030d57806323b872dd146103225780632d0335ab14610342576101e2565b8063081812fc116101b6578063081812fc14610283578063095ea7b3146102b05780630c53c51c146102d05780630f7e5970146102e3576101e2565b806275a317146101e7578063010a38f51461020957806301ffc9a71461023457806306fdde0314610261575b600080fd5b3480156101f357600080fd5b50610207610202366004611c15565b610580565b005b34801561021557600080fd5b5061021e6105db565b60405161022b9190611e47565b60405180910390f35b34801561024057600080fd5b5061025461024f366004611c9d565b6105ed565b60405161022b9190611e3c565b34801561026d57600080fd5b50610276610635565b60405161022b9190611e92565b34801561028f57600080fd5b506102a361029e366004611cd5565b6106c7565b60405161022b9190611db6565b3480156102bc57600080fd5b506102076102cb366004611c74565b610713565b6102766102de366004611b9c565b6107a6565b3480156102ef57600080fd5b50610276610926565b34801561030457600080fd5b5061021e610943565b34801561031957600080fd5b5061021e61095b565b34801561032e57600080fd5b5061020761033d366004611ac1565b610961565b34801561034e57600080fd5b5061021e61035d366004611a75565b610999565b34801561036e57600080fd5b5061021e6109b4565b34801561038357600080fd5b50610207610392366004611ac1565b6109b8565b3480156103a357600080fd5b506102076103b2366004611cd5565b6109d3565b3480156103c357600080fd5b5061021e610a1e565b3480156103d857600080fd5b506102a36103e7366004611cd5565b610a2c565b3480156103f857600080fd5b5061021e610407366004611a75565b610a61565b34801561041857600080fd5b50610207610aa5565b34801561042d57600080fd5b506102a3610af0565b34801561044257600080fd5b50610276610aff565b34801561045757600080fd5b50610207610466366004611b62565b610b0e565b34801561047757600080fd5b50610207610486366004611afc565b610b24565b34801561049757600080fd5b506102546104a6366004611cd5565b610b63565b3480156104b757600080fd5b506102a3610b8d565b3480156104cc57600080fd5b506102766104db366004611cd5565b610b9c565b3480156104ec57600080fd5b506102076104fb366004611c74565b610c7f565b34801561050c57600080fd5b5061020761051b366004611a75565b610ce6565b34801561052c57600080fd5b506102a361053b366004611cd5565b610d90565b34801561054c57600080fd5b5061025461055b366004611a8f565b610dab565b34801561056c57600080fd5b5061020761057b366004611a75565b610ddf565b600061058c600a610eb2565b905081516000146105b8576000818152600c6020908152604090912083516105b692850190611936565b505b6105c28382610c7f565b6105cc600a610e4d565b6105d68382610eb6565b505050565b60006105e7600a610eb2565b90505b90565b60006001600160e01b031982166380ac58cd60e01b148061061e57506001600160e01b03198216635b5e139f60e01b145b8061062d575061062d82610ed0565b90505b919050565b6060600080546106449061246e565b80601f01602080910402602001604051908101604052809291908181526020018280546106709061246e565b80156106bd5780601f10610692576101008083540402835291602001916106bd565b820191906000526020600020905b8154815290600101906020018083116106a057829003601f168201915b5050505050905090565b60006106d282610ee9565b6106f75760405162461bcd60e51b81526004016106ee90612213565b60405180910390fd5b506000908152600460205260409020546001600160a01b031690565b600061071e82610a2c565b9050806001600160a01b0316836001600160a01b031614156107525760405162461bcd60e51b81526004016106ee9061236d565b806001600160a01b0316610764610f06565b6001600160a01b0316148061078057506107808161055b610f06565b61079c5760405162461bcd60e51b81526004016106ee906120ee565b6105d68383610f10565b60408051606081810183526001600160a01b038816600081815260086020908152908590205484528301529181018690526107e48782878787610f7e565b6108005760405162461bcd60e51b81526004016106ee906122dd565b6001600160a01b038716600090815260086020526040902054610824906001611024565b6001600160a01b0388166000908152600860205260409081902091909155517f5845892132946850460bff5a0083f71031bc5bf9aadcd40f1de79423eac9b10b9061087490899033908a90611dca565b60405180910390a1600080306001600160a01b0316888a60405160200161089c929190611d35565b60408051601f19818403018152908290526108b691611d19565b6000604051808303816000865af19150503d80600081146108f3576040519150601f19603f3d011682016040523d82523d6000602084013e6108f8565b606091505b50915091508161091a5760405162461bcd60e51b81526004016106ee90611f74565b98975050505050505050565b604051806040016040528060018152602001603160f81b81525081565b60006001610951600e610eb2565b6105e7919061242b565b60075490565b61097261096c610f06565b82611030565b61098e5760405162461bcd60e51b81526004016106ee906123ae565b6105d68383836110b5565b6001600160a01b031660009081526008602052604090205490565b4690565b6105d683838360405180602001604052806000815250610b24565b6109db610f06565b6001600160a01b03166109ec610af0565b6001600160a01b031614610a125760405162461bcd60e51b81526004016106ee9061225f565b610a1b816111e2565b50565b60006001610951600d610eb2565b6000818152600260205260408120546001600160a01b03168061062d5760405162461bcd60e51b81526004016106ee90612195565b60006001600160a01b038216610a895760405162461bcd60e51b81526004016106ee9061214b565b506001600160a01b031660009081526003602052604090205490565b610aad610f06565b6001600160a01b0316610abe610af0565b6001600160a01b031614610ae45760405162461bcd60e51b81526004016106ee9061225f565b610aee6000611289565b565b6009546001600160a01b031690565b6060600180546106449061246e565b610b20610b19610f06565b83836112db565b5050565b610b35610b2f610f06565b83611030565b610b515760405162461bcd60e51b81526004016106ee906123ae565b610b5d8484848461137e565b50505050565b6000610b6f600a610eb2565b8210610b7d57506000610630565b610b8682610ee9565b1592915050565b600f546001600160a01b031681565b6060610ba782610ee9565b610bb057600080fd5b6000828152600c602052604081208054610bc99061246e565b90501115610c6f576000828152600c602052604090208054610bea9061246e565b80601f0160208091040260200160405190810160405280929190818152602001828054610c169061246e565b8015610c635780601f10610c3857610100808354040283529160200191610c63565b820191906000526020600020905b815481529060010190602001808311610c4657829003601f168201915b50505050509050610630565b610c78826113b1565b9050610630565b6000818152600b60205260409081902080546001600160a01b0319166001600160a01b03851690811790915590517f0f47dbb9b3bdff520f29937fc5df76458f08ebff4402a2fec7d4c9e1ab597ad390610cda908490611e47565b60405180910390a25050565b610cee610f06565b6001600160a01b0316610cff610af0565b6001600160a01b031614610d255760405162461bcd60e51b81526004016106ee9061225f565b600f546001600160a01b0382811691161415610d4057600080fd5b600f80546001600160a01b0319166001600160a01b0383811691909117918290556040519116907f20c46533d6b522da2ef138a5ccae7a332bfc757ff25b5fa16c1a8909230f716590600090a250565b6000908152600b60205260409020546001600160a01b031690565b600f546000906001600160a01b0383811691161415610dcc57506001610dd9565b610dd68383611434565b90505b92915050565b610de7610f06565b6001600160a01b0316610df8610af0565b6001600160a01b031614610e1e5760405162461bcd60e51b81526004016106ee9061225f565b6001600160a01b038116610e445760405162461bcd60e51b81526004016106ee90611f2e565b610a1b81611289565b80546001019055565b600033301415610ead57600080368080601f0160208091040260200160405190810160405280939291908181526020018383808284376000920191909152505050503601516001600160a01b031691506105ea9050565b503390565b5490565b610b20828260405180602001604052806000815250611462565b6001600160e01b031981166301ffc9a760e01b14919050565b6000908152600260205260409020546001600160a01b0316151590565b60006105e7610e56565b600081815260046020526040902080546001600160a01b0319166001600160a01b0384169081179091558190610f4582610a2c565b6001600160a01b03167f8c5be1e5ebec7d5bd14f71427d1e84f3dd0314c0f7b2291e5b200ac8c7c3b92560405160405180910390a45050565b60006001600160a01b038616610fa65760405162461bcd60e51b81526004016106ee906120a9565b6001610fb9610fb487611495565b6114f3565b83868660405160008152602001604052604051610fd99493929190611e74565b6020604051602081039080840390855afa158015610ffb573d6000803e3d6000fd5b505050602060405103516001600160a01b0316866001600160a01b031614905095945050505050565b6000610dd682846123ff565b600061103b82610ee9565b6110575760405162461bcd60e51b81526004016106ee9061205d565b600061106283610a2c565b9050806001600160a01b0316846001600160a01b0316148061109d5750836001600160a01b0316611092846106c7565b6001600160a01b0316145b806110ad57506110ad8185610dab565b949350505050565b826001600160a01b03166110c882610a2c565b6001600160a01b0316146110ee5760405162461bcd60e51b81526004016106ee90612294565b6001600160a01b0382166111145760405162461bcd60e51b81526004016106ee90611fe2565b61111f83838361150f565b61112a600082610f10565b6001600160a01b038316600090815260036020526040812080546001929061115390849061242b565b90915550506001600160a01b03821660009081526003602052604081208054600192906111819084906123ff565b909155505060008181526002602052604080822080546001600160a01b0319166001600160a01b0386811691821790925591518493918716917fddf252ad1be2c89b69c2b068fc378daa952ba7f163c4a11628f55a4df523b3ef91a4505050565b60006111ed82610a2c565b90506111fb8160008461150f565b611206600083610f10565b6001600160a01b038116600090815260036020526040812080546001929061122f90849061242b565b909155505060008281526002602052604080822080546001600160a01b0319169055518391906001600160a01b038416907fddf252ad1be2c89b69c2b068fc378daa952ba7f163c4a11628f55a4df523b3ef908390a45050565b600980546001600160a01b038381166001600160a01b0319831681179093556040519116919082907f8be0079c531659141344cd1fd0a4f28419497f9722a3daafe3b4186f6b6457e090600090a35050565b816001600160a01b0316836001600160a01b0316141561130d5760405162461bcd60e51b81526004016106ee90612026565b6001600160a01b0383811660008181526005602090815260408083209487168084529490915290819020805460ff1916851515179055517f17307eab39ab6107e8899845ad3d59bd9653f200f220920489ca2b5937696c3190611371908590611e3c565b60405180910390a3505050565b6113898484846110b5565b611395848484846115e5565b610b5d5760405162461bcd60e51b81526004016106ee90611edc565b60606113bc82610ee9565b6113d85760405162461bcd60e51b81526004016106ee9061231e565b60006113e2611700565b90506000815111611402576040518060200160405280600081525061142d565b8061140c8461170f565b60405160200161141d929190611d6c565b6040516020818303038152906040525b9392505050565b6001600160a01b03918216600090815260056020908152604080832093909416825291909152205460ff1690565b61146c838361182a565b61147960008484846115e5565b6105d65760405162461bcd60e51b81526004016106ee90611edc565b600060405180608001604052806043815260200161253160439139805160209182012083518483015160408087015180519086012090516114d69501611e50565b604051602081830303815290604052805190602001209050919050565b60006114fd61095b565b826040516020016114d6929190611d9b565b6001600160a01b0382166115665761152683610a61565b6001141561153857611538600d611909565b6040805160208082018084526000808452858152600c90925292902090516115609290611936565b506105d6565b6001600160a01b03831661159a5761157d82610a61565b61158b5761158b600d610e4d565b611595600e610e4d565b6105d6565b816001600160a01b0316836001600160a01b0316146105d6576115bc83610a61565b600114156115ce576115ce600d611909565b6115d782610a61565b6105d6576105d6600d610e4d565b60006115f9846001600160a01b0316611930565b156116f557836001600160a01b031663150b7a02611615610f06565b8786866040518563ffffffff1660e01b81526004016116379493929190611dff565b602060405180830381600087803b15801561165157600080fd5b505af1925050508015611681575060408051601f3d908101601f1916820190925261167e91810190611cb9565b60015b6116db573d8080156116af576040519150601f19603f3d011682016040523d82523d6000602084013e6116b4565b606091505b5080516116d35760405162461bcd60e51b81526004016106ee90611edc565b805181602001fd5b6001600160e01b031916630a85bd0160e11b1490506110ad565b506001949350505050565b6060601080546106449061246e565b60608161173457506040805180820190915260018152600360fc1b6020820152610630565b8160005b811561175e5780611748816124a9565b91506117579050600a83612417565b9150611738565b60008167ffffffffffffffff81111561178757634e487b7160e01b600052604160045260246000fd5b6040519080825280601f01601f1916602001820160405280156117b1576020820181803683370190505b5090505b84156110ad576117c660018361242b565b91506117d3600a866124c4565b6117de9060306123ff565b60f81b81838151811061180157634e487b7160e01b600052603260045260246000fd5b60200101906001600160f81b031916908160001a905350611823600a86612417565b94506117b5565b6001600160a01b0382166118505760405162461bcd60e51b81526004016106ee906121de565b61185981610ee9565b156118765760405162461bcd60e51b81526004016106ee90611fab565b6118826000838361150f565b6001600160a01b03821660009081526003602052604081208054600192906118ab9084906123ff565b909155505060008181526002602052604080822080546001600160a01b0319166001600160a01b03861690811790915590518392907fddf252ad1be2c89b69c2b068fc378daa952ba7f163c4a11628f55a4df523b3ef908290a45050565b8054806119285760405162461bcd60e51b81526004016106ee90611ea5565b600019019055565b3b151590565b8280546119429061246e565b90600052602060002090601f01602090048101928261196457600085556119aa565b82601f1061197d57805160ff19168380011785556119aa565b828001600101855582156119aa579182015b828111156119aa57825182559160200191906001019061198f565b506119b69291506119ba565b5090565b5b808211156119b657600081556001016119bb565b600067ffffffffffffffff808411156119ea576119ea612504565b604051601f8501601f191681016020018281118282101715611a0e57611a0e612504565b604052848152915081838501861015611a2657600080fd5b8484602083013760006020868301015250509392505050565b80356001600160a01b038116811461063057600080fd5b600082601f830112611a66578081fd5b610dd6838335602085016119cf565b600060208284031215611a86578081fd5b610dd682611a3f565b60008060408385031215611aa1578081fd5b611aaa83611a3f565b9150611ab860208401611a3f565b90509250929050565b600080600060608486031215611ad5578081fd5b611ade84611a3f565b9250611aec60208501611a3f565b9150604084013590509250925092565b60008060008060808587031215611b11578081fd5b611b1a85611a3f565b9350611b2860208601611a3f565b925060408501359150606085013567ffffffffffffffff811115611b4a578182fd5b611b5687828801611a56565b91505092959194509250565b60008060408385031215611b74578182fd5b611b7d83611a3f565b915060208301358015158114611b91578182fd5b809150509250929050565b600080600080600060a08688031215611bb3578081fd5b611bbc86611a3f565b9450602086013567ffffffffffffffff811115611bd7578182fd5b611be388828901611a56565b9450506040860135925060608601359150608086013560ff81168114611c07578182fd5b809150509295509295909350565b60008060408385031215611c27578182fd5b611c3083611a3f565b9150602083013567ffffffffffffffff811115611c4b578182fd5b8301601f81018513611c5b578182fd5b611c6a858235602084016119cf565b9150509250929050565b60008060408385031215611c86578182fd5b611c8f83611a3f565b946020939093013593505050565b600060208284031215611cae578081fd5b813561142d8161251a565b600060208284031215611cca578081fd5b815161142d8161251a565b600060208284031215611ce6578081fd5b5035919050565b60008151808452611d05816020860160208601612442565b601f01601f19169290920160200192915050565b60008251611d2b818460208701612442565b9190910192915050565b60008351611d47818460208801612442565b60609390931b6bffffffffffffffffffffffff19169190920190815260140192915050565b60008351611d7e818460208801612442565b835190830190611d92818360208801612442565b01949350505050565b61190160f01b81526002810192909252602282015260420190565b6001600160a01b0391909116815260200190565b6001600160a01b03848116825283166020820152606060408201819052600090611df690830184611ced565b95945050505050565b6001600160a01b0385811682528416602082015260408101839052608060608201819052600090611e3290830184611ced565b9695505050505050565b901515815260200190565b90815260200190565b93845260208401929092526001600160a01b03166040830152606082015260800190565b93845260ff9290921660208401526040830152606082015260800190565b600060208252610dd66020830184611ced565b6020808252601b908201527f436f756e7465723a2064656372656d656e74206f766572666c6f770000000000604082015260600190565b60208082526032908201527f4552433732313a207472616e7366657220746f206e6f6e20455243373231526560408201527131b2b4bb32b91034b6b83632b6b2b73a32b960711b606082015260800190565b60208082526026908201527f4f776e61626c653a206e6577206f776e657220697320746865207a65726f206160408201526564647265737360d01b606082015260800190565b6020808252601c908201527f46756e6374696f6e2063616c6c206e6f74207375636365737366756c00000000604082015260600190565b6020808252601c908201527f4552433732313a20746f6b656e20616c7265616479206d696e74656400000000604082015260600190565b60208082526024908201527f4552433732313a207472616e7366657220746f20746865207a65726f206164646040820152637265737360e01b606082015260800190565b60208082526019908201527f4552433732313a20617070726f766520746f2063616c6c657200000000000000604082015260600190565b6020808252602c908201527f4552433732313a206f70657261746f7220717565727920666f72206e6f6e657860408201526b34b9ba32b73a103a37b5b2b760a11b606082015260800190565b60208082526025908201527f4e61746976654d6574615472616e73616374696f6e3a20494e56414c49445f5360408201526424a3a722a960d91b606082015260800190565b60208082526038908201527f4552433732313a20617070726f76652063616c6c6572206973206e6f74206f7760408201527f6e6572206e6f7220617070726f76656420666f7220616c6c0000000000000000606082015260800190565b6020808252602a908201527f4552433732313a2062616c616e636520717565727920666f7220746865207a65604082015269726f206164647265737360b01b606082015260800190565b60208082526029908201527f4552433732313a206f776e657220717565727920666f72206e6f6e657869737460408201526832b73a103a37b5b2b760b91b606082015260800190565b6020808252818101527f4552433732313a206d696e7420746f20746865207a65726f2061646472657373604082015260600190565b6020808252602c908201527f4552433732313a20617070726f76656420717565727920666f72206e6f6e657860408201526b34b9ba32b73a103a37b5b2b760a11b606082015260800190565b6020808252818101527f4f776e61626c653a2063616c6c6572206973206e6f7420746865206f776e6572604082015260600190565b60208082526029908201527f4552433732313a207472616e73666572206f6620746f6b656e2074686174206960408201526839903737ba1037bbb760b91b606082015260800190565b60208082526021908201527f5369676e657220616e64207369676e617475726520646f206e6f74206d6174636040820152600d60fb1b606082015260800190565b6020808252602f908201527f4552433732314d657461646174613a2055524920717565727920666f72206e6f60408201526e3732bc34b9ba32b73a103a37b5b2b760891b606082015260800190565b60208082526021908201527f4552433732313a20617070726f76616c20746f2063757272656e74206f776e656040820152603960f91b606082015260800190565b60208082526031908201527f4552433732313a207472616e736665722063616c6c6572206973206e6f74206f6040820152701ddb995c881b9bdc88185c1c1c9bdd9959607a1b606082015260800190565b60008219821115612412576124126124d8565b500190565b600082612426576124266124ee565b500490565b60008282101561243d5761243d6124d8565b500390565b60005b8381101561245d578181015183820152602001612445565b83811115610b5d5750506000910152565b60028104600182168061248257607f821691505b602082108114156124a357634e487b7160e01b600052602260045260246000fd5b50919050565b60006000198214156124bd576124bd6124d8565b5060010190565b6000826124d3576124d36124ee565b500690565b634e487b7160e01b600052601160045260246000fd5b634e487b7160e01b600052601260045260246000fd5b634e487b7160e01b600052604160045260246000fd5b6001600160e01b031981168114610a1b57600080fdfe4d6574615472616e73616374696f6e2875696e74323536206e6f6e63652c616464726573732066726f6d2c62797465732066756e6374696f6e5369676e617475726529a264697066735822122020145c227dfaad4bce30c911856fad004cd8dda84acbd891a785e8da553546cc64736f6c63430008000033454950373132446f6d61696e28737472696e67206e616d652c737472696e672076657273696f6e2c6164647265737320766572696679696e67436f6e74726163742c627974657333322073616c7429a2646970667358221220c866b710f0bd29d61a3256f636c25609e8273ed63912a9c3abc921bc8804abf164736f6c63430008000033",
  "linkReferences": {},
  "deployedLinkReferences": {}
}