{
  "_format": "hh-sol-artifact-1",
  "contractName": "Bookkeeper",
  "sourceName": "contracts/Bookkeeper.sol",
  "abi": [
    {
      "inputs": [],
      "stateMutability": "nonpayable",
      "type": "constructor"
    },
    {
      "anonymous": false,
      "inputs": [
        {
          "indexed": true,
          "internalType": "bytes32",
          "name": "role",
          "type": "bytes32"
        },
        {
          "indexed": true,
          "internalType": "bytes32",
          "name": "previousAdminRole",
          "type": "bytes32"
        },
        {
          "indexed": true,
          "internalType": "bytes32",
          "name": "newAdminRole",
          "type": "bytes32"
        }
      ],
      "name": "RoleAdminChanged",
      "type": "event"
    },
    {
      "anonymous": false,
      "inputs": [
        {
          "indexed": true,
          "internalType": "bytes32",
          "name": "role",
          "type": "bytes32"
        },
        {
          "indexed": true,
          "internalType": "address",
          "name": "account",
          "type": "address"
        },
        {
          "indexed": true,
          "internalType": "address",
          "name": "sender",
          "type": "address"
        }
      ],
      "name": "RoleGranted",
      "type": "event"
    },
    {
      "anonymous": false,
      "inputs": [
        {
          "indexed": true,
          "internalType": "bytes32",
          "name": "role",
          "type": "bytes32"
        },
        {
          "indexed": true,
          "internalType": "address",
          "name": "account",
          "type": "address"
        },
        {
          "indexed": true,
          "internalType": "address",
          "name": "sender",
          "type": "address"
        }
      ],
      "name": "RoleRevoked",
      "type": "event"
    },
    {
      "inputs": [],
      "name": "DAY_IN_SECONDS",
      "outputs": [
        {
          "internalType": "uint256",
          "name": "",
          "type": "uint256"
        }
      ],
      "stateMutability": "view",
      "type": "function"
    },
    {
      "inputs": [],
      "name": "DEFAULT_ADMIN_ROLE",
      "outputs": [
        {
          "internalType": "bytes32",
          "name": "",
          "type": "bytes32"
        }
      ],
      "stateMutability": "view",
      "type": "function"
    },
    {
      "inputs": [],
      "name": "RECORDER_ROLE",
      "outputs": [
        {
          "internalType": "bytes32",
          "name": "",
          "type": "bytes32"
        }
      ],
      "stateMutability": "view",
      "type": "function"
    },
    {
      "inputs": [],
      "name": "getDate",
      "outputs": [
        {
          "internalType": "uint256",
          "name": "",
          "type": "uint256"
        }
      ],
      "stateMutability": "view",
      "type": "function"
    },
    {
      "inputs": [
        {
          "internalType": "bytes32",
          "name": "role",
          "type": "bytes32"
        }
      ],
      "name": "getRoleAdmin",
      "outputs": [
        {
          "internalType": "bytes32",
          "name": "",
          "type": "bytes32"
        }
      ],
      "stateMutability": "view",
      "type": "function"
    },
    {
      "inputs": [
        {
          "internalType": "address",
          "name": "user",
          "type": "address"
        },
        {
          "internalType": "uint256",
          "name": "date",
          "type": "uint256"
        }
      ],
      "name": "getVolume",
      "outputs": [
        {
          "internalType": "uint256",
          "name": "",
          "type": "uint256"
        }
      ],
      "stateMutability": "view",
      "type": "function"
    },
    {
      "inputs": [
        {
          "internalType": "bytes32",
          "name": "role",
          "type": "bytes32"
        },
        {
          "internalType": "address",
          "name": "account",
          "type": "address"
        }
      ],
      "name": "grantRole",
      "outputs": [],
      "stateMutability": "nonpayable",
      "type": "function"
    },
    {
      "inputs": [
        {
          "internalType": "bytes32",
          "name": "role",
          "type": "bytes32"
        },
        {
          "internalType": "address",
          "name": "account",
          "type": "address"
        }
      ],
      "name": "hasRole",
      "outputs": [
        {
          "internalType": "bool",
          "name": "",
          "type": "bool"
        }
      ],
      "stateMutability": "view",
      "type": "function"
    },
    {
      "inputs": [
        {
          "internalType": "address",
          "name": "user",
          "type": "address"
        },
        {
          "internalType": "uint256",
          "name": "amount",
          "type": "uint256"
        }
      ],
      "name": "recordVolume",
      "outputs": [],
      "stateMutability": "nonpayable",
      "type": "function"
    },
    {
      "inputs": [
        {
          "internalType": "bytes32",
          "name": "role",
          "type": "bytes32"
        },
        {
          "internalType": "address",
          "name": "account",
          "type": "address"
        }
      ],
      "name": "renounceRole",
      "outputs": [],
      "stateMutability": "nonpayable",
      "type": "function"
    },
    {
      "inputs": [
        {
          "internalType": "bytes32",
          "name": "role",
          "type": "bytes32"
        },
        {
          "internalType": "address",
          "name": "account",
          "type": "address"
        }
      ],
      "name": "revokeRole",
      "outputs": [],
      "stateMutability": "nonpayable",
      "type": "function"
    },
    {
      "inputs": [
        {
          "internalType": "bytes4",
          "name": "interfaceId",
          "type": "bytes4"
        }
      ],
      "name": "supportsInterface",
      "outputs": [
        {
          "internalType": "bool",
          "name": "",
          "type": "bool"
        }
      ],
      "stateMutability": "view",
      "type": "function"
    }
  ],
  "bytecode": "0x608060405234801561001057600080fd5b5061001c600033610021565b6100e1565b61002b828261002f565b5050565b61003982826100b4565b61002b576000828152602081815260408083206001600160a01b03851684529091529020805460ff191660011790556100706100dd565b6001600160a01b0316816001600160a01b0316837f2f8788117e7eff1d82e926ec794901d17c78024a50270940304540a733656f0d60405160405180910390a45050565b6000918252602082815260408084206001600160a01b0393909316845291905290205460ff1690565b3390565b6109d4806100f06000396000f3fe608060405234801561001057600080fd5b50600436106100b45760003560e01c806381b028bf1161007157806381b028bf1461013a57806391d148541461014d578063a217fddf14610160578063bea8658114610168578063c9c04fcf14610170578063d547741f14610183576100b4565b806301ffc9a7146100b9578063248a9ca3146100e25780632f2ff15d1461010257806336568abe14610117578063430fe9c11461012a5780635fdc628114610132575b600080fd5b6100cc6100c736600461075b565b610196565b6040516100d991906107f8565b60405180910390f35b6100f56100f0366004610718565b6101c3565b6040516100d99190610803565b610115610110366004610730565b6101d8565b005b610115610125366004610730565b610201565b6100f5610250565b6100f5610264565b6100f56101483660046106ef565b61026b565b6100cc61015b366004610730565b610293565b6100f56102bc565b6100f56102c1565b61011561017e3660046106ef565b6102e5565b610115610191366004610730565b610377565b60006001600160e01b03198216637965db0b60e01b14806101bb57506101bb82610396565b90505b919050565b60009081526020819052604090206001015490565b6101e1826101c3565b6101f2816101ed6103af565b6103b3565b6101fc8383610417565b505050565b6102096103af565b6001600160a01b0316816001600160a01b0316146102425760405162461bcd60e51b815260040161023990610874565b60405180910390fd5b61024c828261049c565b5050565b600061025f6201518042610902565b905090565b6201518081565b6001600160a01b03919091166000908152600160209081526040808320938352929052205490565b6000918252602082815260408084206001600160a01b0393909316845291905290205460ff1690565b600081565b7ff996da754c790e95d5c7ca3330cfcad529487fe9d1d8edb7afc65076fdf9adb481565b61030f7ff996da754c790e95d5c7ca3330cfcad529487fe9d1d8edb7afc65076fdf9adb433610293565b61032b5760405162461bcd60e51b8152600401610239906108c3565b6000610335610250565b6001600160a01b038416600090815260016020908152604080832084845290915281208054929350849290919061036d9084906108ea565b9091555050505050565b610380826101c3565b61038c816101ed6103af565b6101fc838361049c565b6001600160e01b031981166301ffc9a760e01b14919050565b3390565b6103bd8282610293565b61024c576103d5816001600160a01b0316601461051f565b6103e083602061051f565b6040516020016103f1929190610783565b60408051601f198184030181529082905262461bcd60e51b82526102399160040161080c565b6104218282610293565b61024c576000828152602081815260408083206001600160a01b03851684529091529020805460ff191660011790556104586103af565b6001600160a01b0316816001600160a01b0316837f2f8788117e7eff1d82e926ec794901d17c78024a50270940304540a733656f0d60405160405180910390a45050565b6104a68282610293565b1561024c576000828152602081815260408083206001600160a01b03851684529091529020805460ff191690556104db6103af565b6001600160a01b0316816001600160a01b0316837ff6391f5c32d9c69d2a47ea670b442974b53935d1edc7fd64eb21e047a839171b60405160405180910390a45050565b6060600061052e836002610922565b6105399060026108ea565b67ffffffffffffffff81111561055f57634e487b7160e01b600052604160045260246000fd5b6040519080825280601f01601f191660200182016040528015610589576020820181803683370190505b509050600360fc1b816000815181106105b257634e487b7160e01b600052603260045260246000fd5b60200101906001600160f81b031916908160001a905350600f60fb1b816001815181106105ef57634e487b7160e01b600052603260045260246000fd5b60200101906001600160f81b031916908160001a9053506000610613846002610922565b61061e9060016108ea565b90505b60018111156106b2576f181899199a1a9b1b9c1cb0b131b232b360811b85600f166010811061066057634e487b7160e01b600052603260045260246000fd5b1a60f81b82828151811061068457634e487b7160e01b600052603260045260246000fd5b60200101906001600160f81b031916908160001a90535060049490941c936106ab81610971565b9050610621565b5083156106d15760405162461bcd60e51b81526004016102399061083f565b9392505050565b80356001600160a01b03811681146101be57600080fd5b60008060408385031215610701578182fd5b61070a836106d8565b946020939093013593505050565b600060208284031215610729578081fd5b5035919050565b60008060408385031215610742578182fd5b82359150610752602084016106d8565b90509250929050565b60006020828403121561076c578081fd5b81356001600160e01b0319811681146106d1578182fd5b60007f416363657373436f6e74726f6c3a206163636f756e7420000000000000000000825283516107bb816017850160208801610941565b7001034b99036b4b9b9b4b733903937b6329607d1b60179184019182015283516107ec816028840160208801610941565b01602801949350505050565b901515815260200190565b90815260200190565b600060208252825180602084015261082b816040850160208701610941565b601f01601f19169190910160400192915050565b6020808252818101527f537472696e67733a20686578206c656e67746820696e73756666696369656e74604082015260600190565b6020808252602f908201527f416363657373436f6e74726f6c3a2063616e206f6e6c792072656e6f756e636560408201526e103937b632b9903337b91039b2b63360891b606082015260800190565b6020808252600d908201526c5245434f52444552206f6e6c7960981b604082015260600190565b600082198211156108fd576108fd610988565b500190565b60008261091d57634e487b7160e01b81526012600452602481fd5b500490565b600081600019048311821515161561093c5761093c610988565b500290565b60005b8381101561095c578181015183820152602001610944565b8381111561096b576000848401525b50505050565b60008161098057610980610988565b506000190190565b634e487b7160e01b600052601160045260246000fdfea2646970667358221220b9f6316468f69730126f849d50daef02c126e0b01eaa8ce8fec8594d6b73259164736f6c63430008000033",
  "linkReferences": {},
  "deployedLinkReferences": {}
}